{
  "_format": "hh-sol-artifact-1",
  "contractName": "usingProvable",
  "sourceName": "contracts/ProvableAPI.sol",
  "abi": [
    {
      "inputs": [
        {
          "internalType": "bytes32",
          "name": "_myid",
          "type": "bytes32"
        },
        {
          "internalType": "string",
          "name": "_result",
          "type": "string"
        }
      ],
      "name": "__callback",
      "outputs": [],
      "stateMutability": "nonpayable",
      "type": "function"
    },
    {
      "inputs": [
        {
          "internalType": "bytes32",
          "name": "_myid",
          "type": "bytes32"
        },
        {
          "internalType": "string",
          "name": "_result",
          "type": "string"
        },
        {
          "internalType": "bytes",
          "name": "_proof",
          "type": "bytes"
        }
      ],
      "name": "__callback",
      "outputs": [],
      "stateMutability": "nonpayable",
      "type": "function"
    }
  ],
  "bytecode": "0x608060405234801561001057600080fd5b5061042e806100206000396000f3fe608060405234801561001057600080fd5b50600436106100365760003560e01c806327dc297e1461003b57806338bbfa5014610057575b600080fd5b610055600480360381019061005091906101fd565b610073565b005b610071600480360381019061006c9190610251565b6100f5565b005b6100f18282600067ffffffffffffffff8111156100b9577f4e487b7100000000000000000000000000000000000000000000000000000000600052604160045260246000fd5b6040519080825280601f01601f1916602001820160405280156100eb5781602001600182028036833780820191505090505b506100f5565b5050565b6000801b600360008060001b815260200190815260200160002081905550505050565b600061012b610126846102f5565b6102d0565b90508281526020810184848401111561014357600080fd5b61014e848285610361565b509392505050565b600061016961016484610326565b6102d0565b90508281526020810184848401111561018157600080fd5b61018c848285610361565b509392505050565b6000813590506101a3816103e1565b92915050565b600082601f8301126101ba57600080fd5b81356101ca848260208601610118565b91505092915050565b600082601f8301126101e457600080fd5b81356101f4848260208601610156565b91505092915050565b6000806040838503121561021057600080fd5b600061021e85828601610194565b925050602083013567ffffffffffffffff81111561023b57600080fd5b610247858286016101d3565b9150509250929050565b60008060006060848603121561026657600080fd5b600061027486828701610194565b935050602084013567ffffffffffffffff81111561029157600080fd5b61029d868287016101d3565b925050604084013567ffffffffffffffff8111156102ba57600080fd5b6102c6868287016101a9565b9150509250925092565b60006102da6102eb565b90506102e68282610370565b919050565b6000604051905090565b600067ffffffffffffffff8211156103105761030f6103a1565b5b610319826103d0565b9050602081019050919050565b600067ffffffffffffffff821115610341576103406103a1565b5b61034a826103d0565b9050602081019050919050565b6000819050919050565b82818337600083830152505050565b610379826103d0565b810181811067ffffffffffffffff82111715610398576103976103a1565b5b80604052505050565b7f4e487b7100000000000000000000000000000000000000000000000000000000600052604160045260246000fd5b6000601f19601f8301169050919050565b6103ea81610357565b81146103f557600080fd5b5056fea26469706673582212209532a4a42312813be92973623192828b239a4268dcffac52104c0691b3b0d90264736f6c63430008040033",
  "linkReferences": {},
  "deployedLinkReferences": {}
}