{
  "_format": "hh-sol-artifact-1",
  "contractName": "ERC721Metadata",
  "sourceName": "contracts/ERC721Mintable.sol",
  "abi": [
    {
      "inputs": [
        {
          "internalType": "string",
          "name": "name",
          "type": "string"
        },
        {
          "internalType": "string",
          "name": "symbol",
          "type": "string"
        },
        {
          "internalType": "string",
          "name": "baseTokenURI",
          "type": "string"
        }
      ],
      "stateMutability": "nonpayable",
      "type": "constructor"
    },
    {
      "anonymous": false,
      "inputs": [
        {
          "indexed": true,
          "internalType": "address",
          "name": "owner",
          "type": "address"
        },
        {
          "indexed": true,
          "internalType": "address",
          "name": "approved",
          "type": "address"
        },
        {
          "indexed": true,
          "internalType": "uint256",
          "name": "tokenId",
          "type": "uint256"
        }
      ],
      "name": "Approval",
      "type": "event"
    },
    {
      "anonymous": false,
      "inputs": [
        {
          "indexed": true,
          "internalType": "address",
          "name": "owner",
          "type": "address"
        },
        {
          "indexed": true,
          "internalType": "address",
          "name": "operator",
          "type": "address"
        },
        {
          "indexed": false,
          "internalType": "bool",
          "name": "approved",
          "type": "bool"
        }
      ],
      "name": "ApprovalForAll",
      "type": "event"
    },
    {
      "anonymous": false,
      "inputs": [
        {
          "indexed": false,
          "internalType": "bool",
          "name": "value",
          "type": "bool"
        }
      ],
      "name": "Paused",
      "type": "event"
    },
    {
      "anonymous": false,
      "inputs": [
        {
          "indexed": true,
          "internalType": "address",
          "name": "from",
          "type": "address"
        },
        {
          "indexed": true,
          "internalType": "address",
          "name": "to",
          "type": "address"
        },
        {
          "indexed": true,
          "internalType": "uint256",
          "name": "tokenId",
          "type": "uint256"
        }
      ],
      "name": "Transfer",
      "type": "event"
    },
    {
      "anonymous": false,
      "inputs": [
        {
          "indexed": false,
          "internalType": "bool",
          "name": "value",
          "type": "bool"
        }
      ],
      "name": "UnPaused",
      "type": "event"
    },
    {
      "anonymous": false,
      "inputs": [
        {
          "indexed": false,
          "internalType": "address",
          "name": "newOwner",
          "type": "address"
        },
        {
          "indexed": false,
          "internalType": "address",
          "name": "oldOwner",
          "type": "address"
        }
      ],
      "name": "ownershipTransfered",
      "type": "event"
    },
    {
      "inputs": [
        {
          "internalType": "bytes32",
          "name": "_myid",
          "type": "bytes32"
        },
        {
          "internalType": "string",
          "name": "_result",
          "type": "string"
        }
      ],
      "name": "__callback",
      "outputs": [],
      "stateMutability": "nonpayable",
      "type": "function"
    },
    {
      "inputs": [
        {
          "internalType": "bytes32",
          "name": "_myid",
          "type": "bytes32"
        },
        {
          "internalType": "string",
          "name": "_result",
          "type": "string"
        },
        {
          "internalType": "bytes",
          "name": "_proof",
          "type": "bytes"
        }
      ],
      "name": "__callback",
      "outputs": [],
      "stateMutability": "nonpayable",
      "type": "function"
    },
    {
      "inputs": [
        {
          "internalType": "address",
          "name": "to",
          "type": "address"
        },
        {
          "internalType": "uint256",
          "name": "tokenId",
          "type": "uint256"
        }
      ],
      "name": "approve",
      "outputs": [],
      "stateMutability": "nonpayable",
      "type": "function"
    },
    {
      "inputs": [
        {
          "internalType": "address",
          "name": "owner",
          "type": "address"
        }
      ],
      "name": "balanceOf",
      "outputs": [
        {
          "internalType": "uint256",
          "name": "",
          "type": "uint256"
        }
      ],
      "stateMutability": "view",
      "type": "function"
    },
    {
      "inputs": [
        {
          "internalType": "uint256",
          "name": "tokenId",
          "type": "uint256"
        }
      ],
      "name": "getApproved",
      "outputs": [
        {
          "internalType": "address",
          "name": "",
          "type": "address"
        }
      ],
      "stateMutability": "view",
      "type": "function"
    },
    {
      "inputs": [],
      "name": "getBaseTokenURI",
      "outputs": [
        {
          "internalType": "string",
          "name": "",
          "type": "string"
        }
      ],
      "stateMutability": "view",
      "type": "function"
    },
    {
      "inputs": [],
      "name": "getName",
      "outputs": [
        {
          "internalType": "string",
          "name": "",
          "type": "string"
        }
      ],
      "stateMutability": "view",
      "type": "function"
    },
    {
      "inputs": [],
      "name": "getOwner",
      "outputs": [
        {
          "internalType": "address",
          "name": "",
          "type": "address"
        }
      ],
      "stateMutability": "view",
      "type": "function"
    },
    {
      "inputs": [],
      "name": "getPauseStatus",
      "outputs": [
        {
          "internalType": "bool",
          "name": "status",
          "type": "bool"
        }
      ],
      "stateMutability": "view",
      "type": "function"
    },
    {
      "inputs": [],
      "name": "getSymbol",
      "outputs": [
        {
          "internalType": "string",
          "name": "",
          "type": "string"
        }
      ],
      "stateMutability": "view",
      "type": "function"
    },
    {
      "inputs": [
        {
          "internalType": "address",
          "name": "owner",
          "type": "address"
        },
        {
          "internalType": "address",
          "name": "operator",
          "type": "address"
        }
      ],
      "name": "isApprovedForAll",
      "outputs": [
        {
          "internalType": "bool",
          "name": "",
          "type": "bool"
        }
      ],
      "stateMutability": "view",
      "type": "function"
    },
    {
      "inputs": [
        {
          "internalType": "uint256",
          "name": "tokenId",
          "type": "uint256"
        }
      ],
      "name": "ownerOf",
      "outputs": [
        {
          "internalType": "address",
          "name": "",
          "type": "address"
        }
      ],
      "stateMutability": "view",
      "type": "function"
    },
    {
      "inputs": [
        {
          "internalType": "address",
          "name": "from",
          "type": "address"
        },
        {
          "internalType": "address",
          "name": "to",
          "type": "address"
        },
        {
          "internalType": "uint256",
          "name": "tokenId",
          "type": "uint256"
        }
      ],
      "name": "safeTransferFrom",
      "outputs": [],
      "stateMutability": "nonpayable",
      "type": "function"
    },
    {
      "inputs": [
        {
          "internalType": "address",
          "name": "from",
          "type": "address"
        },
        {
          "internalType": "address",
          "name": "to",
          "type": "address"
        },
        {
          "internalType": "uint256",
          "name": "tokenId",
          "type": "uint256"
        },
        {
          "internalType": "bytes",
          "name": "_data",
          "type": "bytes"
        }
      ],
      "name": "safeTransferFrom",
      "outputs": [],
      "stateMutability": "nonpayable",
      "type": "function"
    },
    {
      "inputs": [
        {
          "internalType": "address",
          "name": "to",
          "type": "address"
        },
        {
          "internalType": "bool",
          "name": "approved",
          "type": "bool"
        }
      ],
      "name": "setApprovalForAll",
      "outputs": [],
      "stateMutability": "nonpayable",
      "type": "function"
    },
    {
      "inputs": [
        {
          "internalType": "bool",
          "name": "_value",
          "type": "bool"
        }
      ],
      "name": "setPauseStatus",
      "outputs": [],
      "stateMutability": "nonpayable",
      "type": "function"
    },
    {
      "inputs": [
        {
          "internalType": "bytes4",
          "name": "interfaceId",
          "type": "bytes4"
        }
      ],
      "name": "supportsInterface",
      "outputs": [
        {
          "internalType": "bool",
          "name": "",
          "type": "bool"
        }
      ],
      "stateMutability": "view",
      "type": "function"
    },
    {
      "inputs": [
        {
          "internalType": "uint256",
          "name": "index",
          "type": "uint256"
        }
      ],
      "name": "tokenByIndex",
      "outputs": [
        {
          "internalType": "uint256",
          "name": "",
          "type": "uint256"
        }
      ],
      "stateMutability": "view",
      "type": "function"
    },
    {
      "inputs": [
        {
          "internalType": "address",
          "name": "owner",
          "type": "address"
        },
        {
          "internalType": "uint256",
          "name": "index",
          "type": "uint256"
        }
      ],
      "name": "tokenOfOwnerByIndex",
      "outputs": [
        {
          "internalType": "uint256",
          "name": "",
          "type": "uint256"
        }
      ],
      "stateMutability": "view",
      "type": "function"
    },
    {
      "inputs": [
        {
          "internalType": "uint256",
          "name": "tokenId",
          "type": "uint256"
        }
      ],
      "name": "tokenURI",
      "outputs": [
        {
          "internalType": "string",
          "name": "",
          "type": "string"
        }
      ],
      "stateMutability": "view",
      "type": "function"
    },
    {
      "inputs": [],
      "name": "totalSupply",
      "outputs": [
        {
          "internalType": "uint256",
          "name": "",
          "type": "uint256"
        }
      ],
      "stateMutability": "view",
      "type": "function"
    },
    {
      "inputs": [
        {
          "internalType": "address",
          "name": "from",
          "type": "address"
        },
        {
          "internalType": "address",
          "name": "to",
          "type": "address"
        },
        {
          "internalType": "uint256",
          "name": "tokenId",
          "type": "uint256"
        }
      ],
      "name": "transferFrom",
      "outputs": [],
      "stateMutability": "nonpayable",
      "type": "function"
    },
    {
      "inputs": [
        {
          "internalType": "address",
          "name": "_newOwner",
          "type": "address"
        }
      ],
      "name": "transferOwnership",
      "outputs": [],
      "stateMutability": "nonpayable",
      "type": "function"
    }
  ],
  "bytecode": "0x60806040523480156200001157600080fd5b5060405162002f7a38038062002f7a833981810160405281019062000037919062000307565b336000806101000a81548173ffffffffffffffffffffffffffffffffffffffff021916908373ffffffffffffffffffffffffffffffffffffffff16021790555060008060146101000a81548160ff021916908315150217905550620000a96301ffc9a760e01b6200014560201b60201c565b620000c16380ac58cd60e01b6200014560201b60201c565b620000d963780e9d6360e01b6200014560201b60201c565b82600f9080519060200190620000f1929190620001e5565b5081601090805190602001906200010a929190620001e5565b50806011908051906020019062000123929190620001e5565b506200013c635b5e139f60e01b6200014560201b60201c565b50505062000518565b63ffffffff60e01b817bffffffffffffffffffffffffffffffffffffffffffffffffffffffff191614156200017957600080fd5b6001806000837bffffffffffffffffffffffffffffffffffffffffffffffffffffffff19167bffffffffffffffffffffffffffffffffffffffffffffffffffffffff1916815260200190815260200160002060006101000a81548160ff02191690831515021790555050565b828054620001f3906200043d565b90600052602060002090601f01602090048101928262000217576000855562000263565b82601f106200023257805160ff191683800117855562000263565b8280016001018555821562000263579182015b828111156200026257825182559160200191906001019062000245565b5b50905062000272919062000276565b5090565b5b808211156200029157600081600090555060010162000277565b5090565b6000620002ac620002a684620003d1565b620003a8565b905082815260208101848484011115620002c557600080fd5b620002d284828562000407565b509392505050565b600082601f830112620002ec57600080fd5b8151620002fe84826020860162000295565b91505092915050565b6000806000606084860312156200031d57600080fd5b600084015167ffffffffffffffff8111156200033857600080fd5b6200034686828701620002da565b935050602084015167ffffffffffffffff8111156200036457600080fd5b6200037286828701620002da565b925050604084015167ffffffffffffffff8111156200039057600080fd5b6200039e86828701620002da565b9150509250925092565b6000620003b4620003c7565b9050620003c2828262000473565b919050565b6000604051905090565b600067ffffffffffffffff821115620003ef57620003ee620004d8565b5b620003fa8262000507565b9050602081019050919050565b60005b83811015620004275780820151818401526020810190506200040a565b8381111562000437576000848401525b50505050565b600060028204905060018216806200045657607f821691505b602082108114156200046d576200046c620004a9565b5b50919050565b6200047e8262000507565b810181811067ffffffffffffffff82111715620004a0576200049f620004d8565b5b80604052505050565b7f4e487b7100000000000000000000000000000000000000000000000000000000600052602260045260246000fd5b7f4e487b7100000000000000000000000000000000000000000000000000000000600052604160045260246000fd5b6000601f19601f8301169050919050565b612a5280620005286000396000f3fe608060405234801561001057600080fd5b506004361061014d5760003560e01c806342842e0e116100c3578063b88d4fde1161007c578063b88d4fde146103b0578063bdc32be0146103cc578063c38bb537146103ea578063c87b56dd14610406578063e985e9c514610436578063f2fde38b146104665761014d565b806342842e0e146102ca5780634f6ccce7146102e65780636352211e1461031657806370a0823114610346578063893d20e814610376578063a22cb465146103945761014d565b806318160ddd1161011557806318160ddd1461020a5780631d9023cb1461022857806323b872dd1461024657806327dc297e146102625780632f745c591461027e57806338bbfa50146102ae5761014d565b806301ffc9a714610152578063081812fc14610182578063095ea7b3146101b257806315070401146101ce57806317d7de7c146101ec575b600080fd5b61016c60048036038101906101679190612043565b610482565b6040516101799190612328565b60405180910390f35b61019c60048036038101906101979190612095565b6104ea565b6040516101a99190612298565b60405180910390f35b6101cc60048036038101906101c79190611f0b565b610527565b005b6101d6610719565b6040516101e39190612343565b60405180910390f35b6101f46107ab565b6040516102019190612343565b60405180910390f35b61021261083d565b60405161021f9190612485565b60405180910390f35b61023061084a565b60405161023d9190612328565b60405180910390f35b610260600480360381019061025b9190611e05565b610860565b005b61027c60048036038101906102779190611f70565b610909565b005b61029860048036038101906102939190611f0b565b61098b565b6040516102a59190612485565b60405180910390f35b6102c860048036038101906102c39190611fc4565b610a2b565b005b6102e460048036038101906102df9190611e05565b610a4e565b005b61030060048036038101906102fb9190612095565b610abe565b60405161030d9190612485565b60405180910390f35b610330600480360381019061032b9190612095565b610b1f565b60405161033d9190612298565b60405180910390f35b610360600480360381019061035b9190611da0565b610b5c565b60405161036d9190612485565b60405180910390f35b61037e610bac565b60405161038b9190612298565b60405180910390f35b6103ae60048036038101906103a99190611ecf565b610bd5565b005b6103ca60048036038101906103c59190611e54565b610d5b565b005b6103d4610dd1565b6040516103e19190612343565b60405180910390f35b61040460048036038101906103ff9190611f47565b610e63565b005b610420600480360381019061041b9190612095565b61104e565b60405161042d9190612343565b60405180910390f35b610450600480360381019061044b9190611dc9565b611105565b60405161045d9190612328565b60405180910390f35b610480600480360381019061047b9190611da0565b611199565b005b600060016000837bffffffffffffffffffffffffffffffffffffffffffffffffffffffff19167bffffffffffffffffffffffffffffffffffffffffffffffffffffffff1916815260200190815260200160002060009054906101000a900460ff169050919050565b60006003600083815260200190815260200160002060009054906101000a900473ffffffffffffffffffffffffffffffffffffffff169050919050565b600060149054906101000a900460ff1615610577576040517f08c379a000000000000000000000000000000000000000000000000000000000815260040161056e90612425565b60405180910390fd5b60006002600083815260200190815260200160002060009054906101000a900473ffffffffffffffffffffffffffffffffffffffff1690508073ffffffffffffffffffffffffffffffffffffffff168373ffffffffffffffffffffffffffffffffffffffff16141561061e576040517f08c379a000000000000000000000000000000000000000000000000000000000815260040161061590612465565b60405180910390fd5b8073ffffffffffffffffffffffffffffffffffffffff163373ffffffffffffffffffffffffffffffffffffffff16148061065e575061065d8333611105565b5b61066757600080fd5b826003600084815260200190815260200160002060006101000a81548173ffffffffffffffffffffffffffffffffffffffff021916908373ffffffffffffffffffffffffffffffffffffffff160217905550818373ffffffffffffffffffffffffffffffffffffffff168273ffffffffffffffffffffffffffffffffffffffff167f8c5be1e5ebec7d5bd14f71427d1e84f3dd0314c0f7b2291e5b200ac8c7c3b92560405160405180910390a4505050565b60606010805461072890612653565b80601f016020809104026020016040519081016040528092919081815260200182805461075490612653565b80156107a15780601f10610776576101008083540402835291602001916107a1565b820191906000526020600020905b81548152906001019060200180831161078457829003601f168201915b5050505050905090565b6060600f80546107ba90612653565b80601f01602080910402602001604051908101604052809291908181526020018280546107e690612653565b80156108335780601f1061080857610100808354040283529160200191610833565b820191906000526020600020905b81548152906001019060200180831161081657829003601f168201915b5050505050905090565b6000600880549050905090565b60008060149054906101000a900460ff16905090565b600060149054906101000a900460ff16156108b0576040517f08c379a00000000000000000000000000000000000000000000000000000000081526004016108a790612425565b60405180910390fd5b6108ba33826112a3565b6108f9576040517f08c379a00000000000000000000000000000000000000000000000000000000081526004016108f0906123a5565b60405180910390fd5b610904838383611338565b505050565b6109878282600067ffffffffffffffff81111561094f577f4e487b7100000000000000000000000000000000000000000000000000000000600052604160045260246000fd5b6040519080825280601f01601f1916602001820160405280156109815781602001600182028036833780820191505090505b50610a2b565b5050565b600061099683610b5c565b82106109a157600080fd5b600660008473ffffffffffffffffffffffffffffffffffffffff1673ffffffffffffffffffffffffffffffffffffffff1681526020019081526020016000208281548110610a18577f4e487b7100000000000000000000000000000000000000000000000000000000600052603260045260246000fd5b9060005260206000200154905092915050565b6000801b600d60008060001b815260200190815260200160002081905550505050565b600060149054906101000a900460ff1615610a9e576040517f08c379a0000000000000000000000000000000000000000000000000000000008152600401610a9590612425565b60405180910390fd5b610ab983838360405180602001604052806000815250610d5b565b505050565b6000610ac861083d565b8210610ad357600080fd5b60088281548110610b0d577f4e487b7100000000000000000000000000000000000000000000000000000000600052603260045260246000fd5b90600052602060002001549050919050565b60006002600083815260200190815260200160002060009054906101000a900473ffffffffffffffffffffffffffffffffffffffff169050919050565b6000610ba5600460008473ffffffffffffffffffffffffffffffffffffffff1673ffffffffffffffffffffffffffffffffffffffff1681526020019081526020016000206113ac565b9050919050565b60008060009054906101000a900473ffffffffffffffffffffffffffffffffffffffff16905090565b600060149054906101000a900460ff1615610c25576040517f08c379a0000000000000000000000000000000000000000000000000000000008152600401610c1c90612425565b60405180910390fd5b3373ffffffffffffffffffffffffffffffffffffffff168273ffffffffffffffffffffffffffffffffffffffff161415610c5e57600080fd5b80600560003373ffffffffffffffffffffffffffffffffffffffff1673ffffffffffffffffffffffffffffffffffffffff16815260200190815260200160002060008473ffffffffffffffffffffffffffffffffffffffff1673ffffffffffffffffffffffffffffffffffffffff16815260200190815260200160002060006101000a81548160ff0219169083151502179055508173ffffffffffffffffffffffffffffffffffffffff163373ffffffffffffffffffffffffffffffffffffffff167f17307eab39ab6107e8899845ad3d59bd9653f200f220920489ca2b5937696c3183604051610d4f9190612328565b60405180910390a35050565b600060149054906101000a900460ff1615610dab576040517f08c379a0000000000000000000000000000000000000000000000000000000008152600401610da290612425565b60405180910390fd5b610db6848484610860565b610dc2848484846113ba565b610dcb57600080fd5b50505050565b606060118054610de090612653565b80601f0160208091040260200160405190810160405280929190818152602001828054610e0c90612653565b8015610e595780601f10610e2e57610100808354040283529160200191610e59565b820191906000526020600020905b815481529060010190602001808311610e3c57829003601f168201915b5050505050905090565b60008054906101000a900473ffffffffffffffffffffffffffffffffffffffff1673ffffffffffffffffffffffffffffffffffffffff163373ffffffffffffffffffffffffffffffffffffffff1614610ef1576040517f08c379a0000000000000000000000000000000000000000000000000000000008152600401610ee890612405565b60405180910390fd5b600115158115151480610f08575060001515811515145b610f47576040517f08c379a0000000000000000000000000000000000000000000000000000000008152600401610f3e90612445565b60405180910390fd5b801515600060149054906101000a900460ff1615151415610f9d576040517f08c379a0000000000000000000000000000000000000000000000000000000008152600401610f9490612365565b60405180910390fd5b8015610ff95780600060146101000a81548160ff0219169083151502179055507f0e2fb031ee032dc02d8011dc50b816eb450cf856abd8261680dac74f72165bd281604051610fec9190612328565b60405180910390a161104b565b80600060146101000a81548160ff0219169083151502179055507fbef695c228e00c57176296d6577586ca18da1cd098f552037934a1ffd0557c2c816040516110429190612328565b60405180910390a15b50565b6060611059826114d1565b61106257600080fd5b60126000838152602001908152602001600020805461108090612653565b80601f01602080910402602001604051908101604052809291908181526020018280546110ac90612653565b80156110f95780601f106110ce576101008083540402835291602001916110f9565b820191906000526020600020905b8154815290600101906020018083116110dc57829003601f168201915b50505050509050919050565b6000600560008473ffffffffffffffffffffffffffffffffffffffff1673ffffffffffffffffffffffffffffffffffffffff16815260200190815260200160002060008373ffffffffffffffffffffffffffffffffffffffff1673ffffffffffffffffffffffffffffffffffffffff16815260200190815260200160002060009054906101000a900460ff16905092915050565b60008054906101000a900473ffffffffffffffffffffffffffffffffffffffff1673ffffffffffffffffffffffffffffffffffffffff163373ffffffffffffffffffffffffffffffffffffffff1614611227576040517f08c379a000000000000000000000000000000000000000000000000000000000815260040161121e90612405565b60405180910390fd5b806000806101000a81548173ffffffffffffffffffffffffffffffffffffffff021916908373ffffffffffffffffffffffffffffffffffffffff1602179055507feb38696426b5aa8881f6ba9f2f3e0ac06ee7ea6ffbe944120578d61191ef610181336040516112989291906122b3565b60405180910390a150565b6000806112af83610b1f565b90508073ffffffffffffffffffffffffffffffffffffffff168473ffffffffffffffffffffffffffffffffffffffff16148061131e57508373ffffffffffffffffffffffffffffffffffffffff16611306846104ea565b73ffffffffffffffffffffffffffffffffffffffff16145b8061132f575061132e8185611105565b5b91505092915050565b600060149054906101000a900460ff1615611388576040517f08c379a000000000000000000000000000000000000000000000000000000000815260040161137f90612425565b60405180910390fd5b611393838383611543565b61139d83826117c2565b6113a782826119eb565b505050565b600081600001549050919050565b60006113db8473ffffffffffffffffffffffffffffffffffffffff16611aaf565b6113e857600190506114c9565b60008473ffffffffffffffffffffffffffffffffffffffff1663150b7a02338887876040518563ffffffff1660e01b815260040161142994939291906122dc565b602060405180830381600087803b15801561144357600080fd5b505af1158015611457573d6000803e3d6000fd5b505050506040513d601f19601f8201168201806040525081019061147b919061206c565b905063150b7a0260e01b7bffffffffffffffffffffffffffffffffffffffffffffffffffffffff1916817bffffffffffffffffffffffffffffffffffffffffffffffffffffffff1916149150505b949350505050565b6000806002600084815260200190815260200160002060009054906101000a900473ffffffffffffffffffffffffffffffffffffffff169050600073ffffffffffffffffffffffffffffffffffffffff168173ffffffffffffffffffffffffffffffffffffffff161415915050919050565b600060149054906101000a900460ff1615611593576040517f08c379a000000000000000000000000000000000000000000000000000000000815260040161158a90612425565b60405180910390fd5b61159c81610b1f565b73ffffffffffffffffffffffffffffffffffffffff168373ffffffffffffffffffffffffffffffffffffffff1614611609576040517f08c379a0000000000000000000000000000000000000000000000000000000008152600401611600906123c5565b60405180910390fd5b600073ffffffffffffffffffffffffffffffffffffffff168273ffffffffffffffffffffffffffffffffffffffff161415611679576040517f08c379a0000000000000000000000000000000000000000000000000000000008152600401611670906123e5565b60405180910390fd5b61168281611ad2565b6116c9600460008573ffffffffffffffffffffffffffffffffffffffff1673ffffffffffffffffffffffffffffffffffffffff168152602001908152602001600020611be0565b611710600460008473ffffffffffffffffffffffffffffffffffffffff1673ffffffffffffffffffffffffffffffffffffffff168152602001908152602001600020611c3c565b816002600083815260200190815260200160002060006101000a81548173ffffffffffffffffffffffffffffffffffffffff021916908373ffffffffffffffffffffffffffffffffffffffff160217905550808273ffffffffffffffffffffffffffffffffffffffff168473ffffffffffffffffffffffffffffffffffffffff167fddf252ad1be2c89b69c2b068fc378daa952ba7f163c4a11628f55a4df523b3ef60405160405180910390a4505050565b60006001600660008573ffffffffffffffffffffffffffffffffffffffff1673ffffffffffffffffffffffffffffffffffffffff16815260200190815260200160002080549050611813919061255f565b905060006007600084815260200190815260200160002054905081811461195a576000600660008673ffffffffffffffffffffffffffffffffffffffff1673ffffffffffffffffffffffffffffffffffffffff16815260200190815260200160002083815481106118ad577f4e487b7100000000000000000000000000000000000000000000000000000000600052603260045260246000fd5b9060005260206000200154905080600660008773ffffffffffffffffffffffffffffffffffffffff1673ffffffffffffffffffffffffffffffffffffffff1681526020019081526020016000208381548110611932577f4e487b7100000000000000000000000000000000000000000000000000000000600052603260045260246000fd5b9060005260206000200181905550816007600083815260200190815260200160002081905550505b600660008573ffffffffffffffffffffffffffffffffffffffff1673ffffffffffffffffffffffffffffffffffffffff1681526020019081526020016000208054806119cf577f4e487b7100000000000000000000000000000000000000000000000000000000600052603160045260246000fd5b6001900381819060005260206000200160009055905550505050565b600660008373ffffffffffffffffffffffffffffffffffffffff1673ffffffffffffffffffffffffffffffffffffffff168152602001908152602001600020805490506007600083815260200190815260200160002081905550600660008373ffffffffffffffffffffffffffffffffffffffff1673ffffffffffffffffffffffffffffffffffffffff1681526020019081526020016000208190806001815401808255809150506001900390600052602060002001600090919091909150555050565b6000808273ffffffffffffffffffffffffffffffffffffffff163b119050919050565b600060149054906101000a900460ff1615611b22576040517f08c379a0000000000000000000000000000000000000000000000000000000008152600401611b1990612425565b60405180910390fd5b600073ffffffffffffffffffffffffffffffffffffffff166003600083815260200190815260200160002060009054906101000a900473ffffffffffffffffffffffffffffffffffffffff1673ffffffffffffffffffffffffffffffffffffffff1614611bdd5760006003600083815260200190815260200160002060006101000a81548173ffffffffffffffffffffffffffffffffffffffff021916908373ffffffffffffffffffffffffffffffffffffffff1602179055505b50565b60008160000154905060008111611c2c576040517f08c379a0000000000000000000000000000000000000000000000000000000008152600401611c2390612385565b60405180910390fd5b6001810382600001819055505050565b6001816000016000828254019250508190555050565b6000611c65611c60846124c5565b6124a0565b905082815260208101848484011115611c7d57600080fd5b611c88848285612611565b509392505050565b6000611ca3611c9e846124f6565b6124a0565b905082815260208101848484011115611cbb57600080fd5b611cc6848285612611565b509392505050565b600081359050611cdd816129a9565b92915050565b600081359050611cf2816129c0565b92915050565b600081359050611d07816129d7565b92915050565b600081359050611d1c816129ee565b92915050565b600081519050611d31816129ee565b92915050565b600082601f830112611d4857600080fd5b8135611d58848260208601611c52565b91505092915050565b600082601f830112611d7257600080fd5b8135611d82848260208601611c90565b91505092915050565b600081359050611d9a81612a05565b92915050565b600060208284031215611db257600080fd5b6000611dc084828501611cce565b91505092915050565b60008060408385031215611ddc57600080fd5b6000611dea85828601611cce565b9250506020611dfb85828601611cce565b9150509250929050565b600080600060608486031215611e1a57600080fd5b6000611e2886828701611cce565b9350506020611e3986828701611cce565b9250506040611e4a86828701611d8b565b9150509250925092565b60008060008060808587031215611e6a57600080fd5b6000611e7887828801611cce565b9450506020611e8987828801611cce565b9350506040611e9a87828801611d8b565b925050606085013567ffffffffffffffff811115611eb757600080fd5b611ec387828801611d37565b91505092959194509250565b60008060408385031215611ee257600080fd5b6000611ef085828601611cce565b9250506020611f0185828601611ce3565b9150509250929050565b60008060408385031215611f1e57600080fd5b6000611f2c85828601611cce565b9250506020611f3d85828601611d8b565b9150509250929050565b600060208284031215611f5957600080fd5b6000611f6784828501611ce3565b91505092915050565b60008060408385031215611f8357600080fd5b6000611f9185828601611cf8565b925050602083013567ffffffffffffffff811115611fae57600080fd5b611fba85828601611d61565b9150509250929050565b600080600060608486031215611fd957600080fd5b6000611fe786828701611cf8565b935050602084013567ffffffffffffffff81111561200457600080fd5b61201086828701611d61565b925050604084013567ffffffffffffffff81111561202d57600080fd5b61203986828701611d37565b9150509250925092565b60006020828403121561205557600080fd5b600061206384828501611d0d565b91505092915050565b60006020828403121561207e57600080fd5b600061208c84828501611d22565b91505092915050565b6000602082840312156120a757600080fd5b60006120b584828501611d8b565b91505092915050565b6120c781612593565b82525050565b6120d6816125a5565b82525050565b60006120e782612527565b6120f1818561253d565b9350612101818560208601612620565b61210a81612743565b840191505092915050565b600061212082612532565b61212a818561254e565b935061213a818560208601612620565b61214381612743565b840191505092915050565b600061215b60258361254e565b915061216682612754565b604082019050919050565b600061217e601b8361254e565b9150612189826127a3565b602082019050919050565b60006121a1603c8361254e565b91506121ac826127cc565b604082019050919050565b60006121c460228361254e565b91506121cf8261281b565b604082019050919050565b60006121e7601a8361254e565b91506121f28261286a565b602082019050919050565b600061220a603c8361254e565b915061221582612893565b604082019050919050565b600061222d603f8361254e565b9150612238826128e2565b604082019050919050565b6000612250601e8361254e565b915061225b82612931565b602082019050919050565b600061227360388361254e565b915061227e8261295a565b604082019050919050565b61229281612607565b82525050565b60006020820190506122ad60008301846120be565b92915050565b60006040820190506122c860008301856120be565b6122d560208301846120be565b9392505050565b60006080820190506122f160008301876120be565b6122fe60208301866120be565b61230b6040830185612289565b818103606083015261231d81846120dc565b905095945050505050565b600060208201905061233d60008301846120cd565b92915050565b6000602082019050818103600083015261235d8184612115565b905092915050565b6000602082019050818103600083015261237e8161214e565b9050919050565b6000602082019050818103600083015261239e81612171565b9050919050565b600060208201905081810360008301526123be81612194565b9050919050565b600060208201905081810360008301526123de816121b7565b9050919050565b600060208201905081810360008301526123fe816121da565b9050919050565b6000602082019050818103600083015261241e816121fd565b9050919050565b6000602082019050818103600083015261243e81612220565b9050919050565b6000602082019050818103600083015261245e81612243565b9050919050565b6000602082019050818103600083015261247e81612266565b9050919050565b600060208201905061249a6000830184612289565b92915050565b60006124aa6124bb565b90506124b68282612685565b919050565b6000604051905090565b600067ffffffffffffffff8211156124e0576124df612714565b5b6124e982612743565b9050602081019050919050565b600067ffffffffffffffff82111561251157612510612714565b5b61251a82612743565b9050602081019050919050565b600081519050919050565b600081519050919050565b600082825260208201905092915050565b600082825260208201905092915050565b600061256a82612607565b915061257583612607565b925082821015612588576125876126b6565b5b828203905092915050565b600061259e826125e7565b9050919050565b60008115159050919050565b6000819050919050565b60007fffffffff0000000000000000000000000000000000000000000000000000000082169050919050565b600073ffffffffffffffffffffffffffffffffffffffff82169050919050565b6000819050919050565b82818337600083830152505050565b60005b8381101561263e578082015181840152602081019050612623565b8381111561264d576000848401525b50505050565b6000600282049050600182168061266b57607f821691505b6020821081141561267f5761267e6126e5565b5b50919050565b61268e82612743565b810181811067ffffffffffffffff821117156126ad576126ac612714565b5b80604052505050565b7f4e487b7100000000000000000000000000000000000000000000000000000000600052601160045260246000fd5b7f4e487b7100000000000000000000000000000000000000000000000000000000600052602260045260246000fd5b7f4e487b7100000000000000000000000000000000000000000000000000000000600052604160045260246000fd5b6000601f19601f8301169050919050565b7f596f75206d75737420696e697469616c697365206120646966666572656e742060008201527f76616c7565000000000000000000000000000000000000000000000000000000602082015250565b7f436f756e7465723a2064656372656d656e74206f766572666c6f770000000000600082015250565b7f596f75206d75737420626520746865206f776e6572206f7220617070726f766560008201527f6420627920746865206f776e6572206f66207468697320746f6b656e00000000602082015250565b7f596f75206d75737420626520746865206f776e6572206f662074686520746f6b60008201527f656e000000000000000000000000000000000000000000000000000000000000602082015250565b7f4d75737420626520612076616c696420746f2061646472657373000000000000600082015250565b7f596f75206d75737420626520746865206f776e6572206f662074686520636f6e60008201527f747261637420746f20656e74657220746869732066756e6374696f6e00000000602082015250565b7f54686520636f6e74726163742069732063757272656e746c792070617573656460008201527f2c20746869732066756e6374696f6e206973206e6f742063616c6c61626c6500602082015250565b7f796f75206d75737420696e707574206120626f6f6c65616e2076616c75650000600082015250565b7f596f75206d757374206e6f7420626520746865206f776e6572206f662074686560008201527f20746f6b656e20796f752061726520617070726f76696e670000000000000000602082015250565b6129b281612593565b81146129bd57600080fd5b50565b6129c9816125a5565b81146129d457600080fd5b50565b6129e0816125b1565b81146129eb57600080fd5b50565b6129f7816125bb565b8114612a0257600080fd5b50565b612a0e81612607565b8114612a1957600080fd5b5056fea264697066735822122008650ad6b34ef928dfd955b4d145146cdc84c8d073eb68910b01c92e199e3ab864736f6c63430008040033",
  "linkReferences": {},
  "deployedLinkReferences": {}
}