{
  "_format": "hh-sol-artifact-1",
  "contractName": "ERC721Metadata",
  "sourceName": "contracts/ERC721Mintable.sol",
  "abi": [
    {
      "inputs": [
        {
          "internalType": "string",
          "name": "name",
          "type": "string"
        },
        {
          "internalType": "string",
          "name": "symbol",
          "type": "string"
        },
        {
          "internalType": "string",
          "name": "baseTokenURI",
          "type": "string"
        }
      ],
      "stateMutability": "nonpayable",
      "type": "constructor"
    },
    {
      "anonymous": false,
      "inputs": [
        {
          "indexed": true,
          "internalType": "address",
          "name": "owner",
          "type": "address"
        },
        {
          "indexed": true,
          "internalType": "address",
          "name": "approved",
          "type": "address"
        },
        {
          "indexed": true,
          "internalType": "uint256",
          "name": "tokenId",
          "type": "uint256"
        }
      ],
      "name": "Approval",
      "type": "event"
    },
    {
      "anonymous": false,
      "inputs": [
        {
          "indexed": true,
          "internalType": "address",
          "name": "owner",
          "type": "address"
        },
        {
          "indexed": true,
          "internalType": "address",
          "name": "operator",
          "type": "address"
        },
        {
          "indexed": false,
          "internalType": "bool",
          "name": "approved",
          "type": "bool"
        }
      ],
      "name": "ApprovalForAll",
      "type": "event"
    },
    {
      "anonymous": false,
      "inputs": [
        {
          "indexed": false,
          "internalType": "address",
          "name": "initiator",
          "type": "address"
        },
        {
          "indexed": false,
          "internalType": "bool",
          "name": "value",
          "type": "bool"
        }
      ],
      "name": "Paused",
      "type": "event"
    },
    {
      "anonymous": false,
      "inputs": [
        {
          "indexed": true,
          "internalType": "address",
          "name": "from",
          "type": "address"
        },
        {
          "indexed": true,
          "internalType": "address",
          "name": "to",
          "type": "address"
        },
        {
          "indexed": true,
          "internalType": "uint256",
          "name": "tokenId",
          "type": "uint256"
        }
      ],
      "name": "Transfer",
      "type": "event"
    },
    {
      "anonymous": false,
      "inputs": [
        {
          "indexed": false,
          "internalType": "address",
          "name": "initiator",
          "type": "address"
        },
        {
          "indexed": false,
          "internalType": "bool",
          "name": "value",
          "type": "bool"
        }
      ],
      "name": "UnPaused",
      "type": "event"
    },
    {
      "anonymous": false,
      "inputs": [
        {
          "indexed": false,
          "internalType": "address",
          "name": "newOwner",
          "type": "address"
        },
        {
          "indexed": false,
          "internalType": "address",
          "name": "oldOwner",
          "type": "address"
        }
      ],
      "name": "ownershipTransfered",
      "type": "event"
    },
    {
      "inputs": [
        {
          "internalType": "bytes32",
          "name": "_myid",
          "type": "bytes32"
        },
        {
          "internalType": "string",
          "name": "_result",
          "type": "string"
        }
      ],
      "name": "__callback",
      "outputs": [],
      "stateMutability": "nonpayable",
      "type": "function"
    },
    {
      "inputs": [
        {
          "internalType": "bytes32",
          "name": "_myid",
          "type": "bytes32"
        },
        {
          "internalType": "string",
          "name": "_result",
          "type": "string"
        },
        {
          "internalType": "bytes",
          "name": "_proof",
          "type": "bytes"
        }
      ],
      "name": "__callback",
      "outputs": [],
      "stateMutability": "nonpayable",
      "type": "function"
    },
    {
      "inputs": [
        {
          "internalType": "address",
          "name": "to",
          "type": "address"
        },
        {
          "internalType": "uint256",
          "name": "tokenId",
          "type": "uint256"
        }
      ],
      "name": "approve",
      "outputs": [],
      "stateMutability": "nonpayable",
      "type": "function"
    },
    {
      "inputs": [
        {
          "internalType": "address",
          "name": "owner",
          "type": "address"
        }
      ],
      "name": "balanceOf",
      "outputs": [
        {
          "internalType": "uint256",
          "name": "",
          "type": "uint256"
        }
      ],
      "stateMutability": "view",
      "type": "function"
    },
    {
      "inputs": [
        {
          "internalType": "uint256",
          "name": "tokenId",
          "type": "uint256"
        }
      ],
      "name": "getApproved",
      "outputs": [
        {
          "internalType": "address",
          "name": "",
          "type": "address"
        }
      ],
      "stateMutability": "view",
      "type": "function"
    },
    {
      "inputs": [],
      "name": "getBaseTokenURI",
      "outputs": [
        {
          "internalType": "string",
          "name": "",
          "type": "string"
        }
      ],
      "stateMutability": "view",
      "type": "function"
    },
    {
      "inputs": [],
      "name": "getName",
      "outputs": [
        {
          "internalType": "string",
          "name": "",
          "type": "string"
        }
      ],
      "stateMutability": "view",
      "type": "function"
    },
    {
      "inputs": [],
      "name": "getOwner",
      "outputs": [
        {
          "internalType": "address",
          "name": "",
          "type": "address"
        }
      ],
      "stateMutability": "view",
      "type": "function"
    },
    {
      "inputs": [],
      "name": "getPauseStatus",
      "outputs": [
        {
          "internalType": "bool",
          "name": "status",
          "type": "bool"
        }
      ],
      "stateMutability": "view",
      "type": "function"
    },
    {
      "inputs": [],
      "name": "getSymbol",
      "outputs": [
        {
          "internalType": "string",
          "name": "",
          "type": "string"
        }
      ],
      "stateMutability": "view",
      "type": "function"
    },
    {
      "inputs": [
        {
          "internalType": "address",
          "name": "owner",
          "type": "address"
        },
        {
          "internalType": "address",
          "name": "operator",
          "type": "address"
        }
      ],
      "name": "isApprovedForAll",
      "outputs": [
        {
          "internalType": "bool",
          "name": "",
          "type": "bool"
        }
      ],
      "stateMutability": "view",
      "type": "function"
    },
    {
      "inputs": [
        {
          "internalType": "uint256",
          "name": "tokenId",
          "type": "uint256"
        }
      ],
      "name": "ownerOf",
      "outputs": [
        {
          "internalType": "address",
          "name": "",
          "type": "address"
        }
      ],
      "stateMutability": "view",
      "type": "function"
    },
    {
      "inputs": [
        {
          "internalType": "address",
          "name": "from",
          "type": "address"
        },
        {
          "internalType": "address",
          "name": "to",
          "type": "address"
        },
        {
          "internalType": "uint256",
          "name": "tokenId",
          "type": "uint256"
        }
      ],
      "name": "safeTransferFrom",
      "outputs": [],
      "stateMutability": "nonpayable",
      "type": "function"
    },
    {
      "inputs": [
        {
          "internalType": "address",
          "name": "from",
          "type": "address"
        },
        {
          "internalType": "address",
          "name": "to",
          "type": "address"
        },
        {
          "internalType": "uint256",
          "name": "tokenId",
          "type": "uint256"
        },
        {
          "internalType": "bytes",
          "name": "_data",
          "type": "bytes"
        }
      ],
      "name": "safeTransferFrom",
      "outputs": [],
      "stateMutability": "nonpayable",
      "type": "function"
    },
    {
      "inputs": [
        {
          "internalType": "address",
          "name": "to",
          "type": "address"
        },
        {
          "internalType": "bool",
          "name": "approved",
          "type": "bool"
        }
      ],
      "name": "setApprovalForAll",
      "outputs": [],
      "stateMutability": "nonpayable",
      "type": "function"
    },
    {
      "inputs": [
        {
          "internalType": "bool",
          "name": "_value",
          "type": "bool"
        }
      ],
      "name": "setPauseStatus",
      "outputs": [],
      "stateMutability": "nonpayable",
      "type": "function"
    },
    {
      "inputs": [
        {
          "internalType": "bytes4",
          "name": "interfaceId",
          "type": "bytes4"
        }
      ],
      "name": "supportsInterface",
      "outputs": [
        {
          "internalType": "bool",
          "name": "",
          "type": "bool"
        }
      ],
      "stateMutability": "view",
      "type": "function"
    },
    {
      "inputs": [
        {
          "internalType": "uint256",
          "name": "index",
          "type": "uint256"
        }
      ],
      "name": "tokenByIndex",
      "outputs": [
        {
          "internalType": "uint256",
          "name": "",
          "type": "uint256"
        }
      ],
      "stateMutability": "view",
      "type": "function"
    },
    {
      "inputs": [
        {
          "internalType": "address",
          "name": "owner",
          "type": "address"
        },
        {
          "internalType": "uint256",
          "name": "index",
          "type": "uint256"
        }
      ],
      "name": "tokenOfOwnerByIndex",
      "outputs": [
        {
          "internalType": "uint256",
          "name": "",
          "type": "uint256"
        }
      ],
      "stateMutability": "view",
      "type": "function"
    },
    {
      "inputs": [
        {
          "internalType": "uint256",
          "name": "tokenId",
          "type": "uint256"
        }
      ],
      "name": "tokenURI",
      "outputs": [
        {
          "internalType": "string",
          "name": "",
          "type": "string"
        }
      ],
      "stateMutability": "view",
      "type": "function"
    },
    {
      "inputs": [],
      "name": "totalSupply",
      "outputs": [
        {
          "internalType": "uint256",
          "name": "",
          "type": "uint256"
        }
      ],
      "stateMutability": "view",
      "type": "function"
    },
    {
      "inputs": [
        {
          "internalType": "address",
          "name": "from",
          "type": "address"
        },
        {
          "internalType": "address",
          "name": "to",
          "type": "address"
        },
        {
          "internalType": "uint256",
          "name": "tokenId",
          "type": "uint256"
        }
      ],
      "name": "transferFrom",
      "outputs": [],
      "stateMutability": "nonpayable",
      "type": "function"
    },
    {
      "inputs": [
        {
          "internalType": "address",
          "name": "_newOwner",
          "type": "address"
        }
      ],
      "name": "transferOwnership",
      "outputs": [],
      "stateMutability": "nonpayable",
      "type": "function"
    }
  ],
  "bytecode": "0x60806040523480156200001157600080fd5b5060405162002c9538038062002c95833981810160405281019062000037919062000307565b336000806101000a81548173ffffffffffffffffffffffffffffffffffffffff021916908373ffffffffffffffffffffffffffffffffffffffff16021790555060008060146101000a81548160ff021916908315150217905550620000a96301ffc9a760e01b6200014560201b60201c565b620000c16380ac58cd60e01b6200014560201b60201c565b620000d963780e9d6360e01b6200014560201b60201c565b82600f9080519060200190620000f1929190620001e5565b5081601090805190602001906200010a929190620001e5565b50806011908051906020019062000123929190620001e5565b506200013c635b5e139f60e01b6200014560201b60201c565b50505062000518565b63ffffffff60e01b817bffffffffffffffffffffffffffffffffffffffffffffffffffffffff191614156200017957600080fd5b6001806000837bffffffffffffffffffffffffffffffffffffffffffffffffffffffff19167bffffffffffffffffffffffffffffffffffffffffffffffffffffffff1916815260200190815260200160002060006101000a81548160ff02191690831515021790555050565b828054620001f3906200043d565b90600052602060002090601f01602090048101928262000217576000855562000263565b82601f106200023257805160ff191683800117855562000263565b8280016001018555821562000263579182015b828111156200026257825182559160200191906001019062000245565b5b50905062000272919062000276565b5090565b5b808211156200029157600081600090555060010162000277565b5090565b6000620002ac620002a684620003d1565b620003a8565b905082815260208101848484011115620002c557600080fd5b620002d284828562000407565b509392505050565b600082601f830112620002ec57600080fd5b8151620002fe84826020860162000295565b91505092915050565b6000806000606084860312156200031d57600080fd5b600084015167ffffffffffffffff8111156200033857600080fd5b6200034686828701620002da565b935050602084015167ffffffffffffffff8111156200036457600080fd5b6200037286828701620002da565b925050604084015167ffffffffffffffff8111156200039057600080fd5b6200039e86828701620002da565b9150509250925092565b6000620003b4620003c7565b9050620003c2828262000473565b919050565b6000604051905090565b600067ffffffffffffffff821115620003ef57620003ee620004d8565b5b620003fa8262000507565b9050602081019050919050565b60005b83811015620004275780820151818401526020810190506200040a565b8381111562000437576000848401525b50505050565b600060028204905060018216806200045657607f821691505b602082108114156200046d576200046c620004a9565b5b50919050565b6200047e8262000507565b810181811067ffffffffffffffff82111715620004a0576200049f620004d8565b5b80604052505050565b7f4e487b7100000000000000000000000000000000000000000000000000000000600052602260045260246000fd5b7f4e487b7100000000000000000000000000000000000000000000000000000000600052604160045260246000fd5b6000601f19601f8301169050919050565b61276d80620005286000396000f3fe608060405234801561001057600080fd5b506004361061014d5760003560e01c806342842e0e116100c3578063b88d4fde1161007c578063b88d4fde146103b0578063bdc32be0146103cc578063c38bb537146103ea578063c87b56dd14610406578063e985e9c514610436578063f2fde38b146104665761014d565b806342842e0e146102ca5780634f6ccce7146102e65780636352211e1461031657806370a0823114610346578063893d20e814610376578063a22cb465146103945761014d565b806318160ddd1161011557806318160ddd1461020a5780631d9023cb1461022857806323b872dd1461024657806327dc297e146102625780632f745c591461027e57806338bbfa50146102ae5761014d565b806301ffc9a714610152578063081812fc14610182578063095ea7b3146101b257806315070401146101ce57806317d7de7c146101ec575b600080fd5b61016c60048036038101906101679190611dc7565b610482565b60405161017991906120b2565b60405180910390f35b61019c60048036038101906101979190611e19565b6104ea565b6040516101a99190611ff9565b60405180910390f35b6101cc60048036038101906101c79190611c8f565b610527565b005b6101d66106c9565b6040516101e391906120cd565b60405180910390f35b6101f461075b565b60405161020191906120cd565b60405180910390f35b6102126107ed565b60405161021f91906121ef565b60405180910390f35b6102306107fa565b60405161023d91906120b2565b60405180910390f35b610260600480360381019061025b9190611b89565b610810565b005b61027c60048036038101906102779190611cf4565b610869565b005b61029860048036038101906102939190611c8f565b6108eb565b6040516102a591906121ef565b60405180910390f35b6102c860048036038101906102c39190611d48565b61098b565b005b6102e460048036038101906102df9190611b89565b6109ae565b005b61030060048036038101906102fb9190611e19565b6109ce565b60405161030d91906121ef565b60405180910390f35b610330600480360381019061032b9190611e19565b610a2f565b60405161033d9190611ff9565b60405180910390f35b610360600480360381019061035b9190611b24565b610a6c565b60405161036d91906121ef565b60405180910390f35b61037e610abc565b60405161038b9190611ff9565b60405180910390f35b6103ae60048036038101906103a99190611c53565b610ae5565b005b6103ca60048036038101906103c59190611bd8565b610c1b565b005b6103d4610c41565b6040516103e191906120cd565b60405180910390f35b61040460048036038101906103ff9190611ccb565b610cd3565b005b610420600480360381019061041b9190611e19565b610ec2565b60405161042d91906120cd565b60405180910390f35b610450600480360381019061044b9190611b4d565b610f79565b60405161045d91906120b2565b60405180910390f35b610480600480360381019061047b9190611b24565b61100d565b005b600060016000837bffffffffffffffffffffffffffffffffffffffffffffffffffffffff19167bffffffffffffffffffffffffffffffffffffffffffffffffffffffff1916815260200190815260200160002060009054906101000a900460ff169050919050565b60006003600083815260200190815260200160002060009054906101000a900473ffffffffffffffffffffffffffffffffffffffff169050919050565b60006002600083815260200190815260200160002060009054906101000a900473ffffffffffffffffffffffffffffffffffffffff1690508073ffffffffffffffffffffffffffffffffffffffff168373ffffffffffffffffffffffffffffffffffffffff1614156105ce576040517f08c379a00000000000000000000000000000000000000000000000000000000081526004016105c5906121af565b60405180910390fd5b8073ffffffffffffffffffffffffffffffffffffffff163373ffffffffffffffffffffffffffffffffffffffff16148061060e575061060d8333610f79565b5b61061757600080fd5b826003600084815260200190815260200160002060006101000a81548173ffffffffffffffffffffffffffffffffffffffff021916908373ffffffffffffffffffffffffffffffffffffffff160217905550818373ffffffffffffffffffffffffffffffffffffffff168273ffffffffffffffffffffffffffffffffffffffff167f8c5be1e5ebec7d5bd14f71427d1e84f3dd0314c0f7b2291e5b200ac8c7c3b92560405160405180910390a4505050565b6060601080546106d8906123bd565b80601f0160208091040260200160405190810160405280929190818152602001828054610704906123bd565b80156107515780601f1061072657610100808354040283529160200191610751565b820191906000526020600020905b81548152906001019060200180831161073457829003601f168201915b5050505050905090565b6060600f805461076a906123bd565b80601f0160208091040260200160405190810160405280929190818152602001828054610796906123bd565b80156107e35780601f106107b8576101008083540402835291602001916107e3565b820191906000526020600020905b8154815290600101906020018083116107c657829003601f168201915b5050505050905090565b6000600880549050905090565b60008060149054906101000a900460ff16905090565b61081a3382611117565b610859576040517f08c379a00000000000000000000000000000000000000000000000000000000081526004016108509061210f565b60405180910390fd5b6108648383836111ac565b505050565b6108e78282600067ffffffffffffffff8111156108af577f4e487b7100000000000000000000000000000000000000000000000000000000600052604160045260246000fd5b6040519080825280601f01601f1916602001820160405280156108e15781602001600182028036833780820191505090505b5061098b565b5050565b60006108f683610a6c565b821061090157600080fd5b600660008473ffffffffffffffffffffffffffffffffffffffff1673ffffffffffffffffffffffffffffffffffffffff1681526020019081526020016000208281548110610978577f4e487b7100000000000000000000000000000000000000000000000000000000600052603260045260246000fd5b9060005260206000200154905092915050565b6000801b600d60008060001b815260200190815260200160002081905550505050565b6109c983838360405180602001604052806000815250610c1b565b505050565b60006109d86107ed565b82106109e357600080fd5b60088281548110610a1d577f4e487b7100000000000000000000000000000000000000000000000000000000600052603260045260246000fd5b90600052602060002001549050919050565b60006002600083815260200190815260200160002060009054906101000a900473ffffffffffffffffffffffffffffffffffffffff169050919050565b6000610ab5600460008473ffffffffffffffffffffffffffffffffffffffff1673ffffffffffffffffffffffffffffffffffffffff1681526020019081526020016000206111d0565b9050919050565b60008060009054906101000a900473ffffffffffffffffffffffffffffffffffffffff16905090565b3373ffffffffffffffffffffffffffffffffffffffff168273ffffffffffffffffffffffffffffffffffffffff161415610b1e57600080fd5b80600560003373ffffffffffffffffffffffffffffffffffffffff1673ffffffffffffffffffffffffffffffffffffffff16815260200190815260200160002060008473ffffffffffffffffffffffffffffffffffffffff1673ffffffffffffffffffffffffffffffffffffffff16815260200190815260200160002060006101000a81548160ff0219169083151502179055508173ffffffffffffffffffffffffffffffffffffffff163373ffffffffffffffffffffffffffffffffffffffff167f17307eab39ab6107e8899845ad3d59bd9653f200f220920489ca2b5937696c3183604051610c0f91906120b2565b60405180910390a35050565b610c26848484610810565b610c32848484846111de565b610c3b57600080fd5b50505050565b606060118054610c50906123bd565b80601f0160208091040260200160405190810160405280929190818152602001828054610c7c906123bd565b8015610cc95780601f10610c9e57610100808354040283529160200191610cc9565b820191906000526020600020905b815481529060010190602001808311610cac57829003601f168201915b5050505050905090565b60008054906101000a900473ffffffffffffffffffffffffffffffffffffffff1673ffffffffffffffffffffffffffffffffffffffff163373ffffffffffffffffffffffffffffffffffffffff1614610d61576040517f08c379a0000000000000000000000000000000000000000000000000000000008152600401610d589061216f565b60405180910390fd5b600115158115151480610d78575060001515811515145b610db7576040517f08c379a0000000000000000000000000000000000000000000000000000000008152600401610dae9061218f565b60405180910390fd5b801515600060149054906101000a900460ff1615151415610e0d576040517f08c379a0000000000000000000000000000000000000000000000000000000008152600401610e04906121cf565b60405180910390fd5b8015610e6b5780600060146101000a81548160ff0219169083151502179055507fe8699cf681560fd07de85543bd994263f4557bdc5179dd702f256d15fd083e1d3382604051610e5e929190612089565b60405180910390a1610ebf565b80600060146101000a81548160ff0219169083151502179055507f7e33492b866dc3a8907fa6d980cd33332afb0d044cf12c0005fabd6b0aa77bff3382604051610eb6929190612089565b60405180910390a15b50565b6060610ecd826112f5565b610ed657600080fd5b601260008381526020019081526020016000208054610ef4906123bd565b80601f0160208091040260200160405190810160405280929190818152602001828054610f20906123bd565b8015610f6d5780601f10610f4257610100808354040283529160200191610f6d565b820191906000526020600020905b815481529060010190602001808311610f5057829003601f168201915b50505050509050919050565b6000600560008473ffffffffffffffffffffffffffffffffffffffff1673ffffffffffffffffffffffffffffffffffffffff16815260200190815260200160002060008373ffffffffffffffffffffffffffffffffffffffff1673ffffffffffffffffffffffffffffffffffffffff16815260200190815260200160002060009054906101000a900460ff16905092915050565b60008054906101000a900473ffffffffffffffffffffffffffffffffffffffff1673ffffffffffffffffffffffffffffffffffffffff163373ffffffffffffffffffffffffffffffffffffffff161461109b576040517f08c379a00000000000000000000000000000000000000000000000000000000081526004016110929061216f565b60405180910390fd5b806000806101000a81548173ffffffffffffffffffffffffffffffffffffffff021916908373ffffffffffffffffffffffffffffffffffffffff1602179055507feb38696426b5aa8881f6ba9f2f3e0ac06ee7ea6ffbe944120578d61191ef6101813360405161110c929190612014565b60405180910390a150565b60008061112383610a2f565b90508073ffffffffffffffffffffffffffffffffffffffff168473ffffffffffffffffffffffffffffffffffffffff16148061119257508373ffffffffffffffffffffffffffffffffffffffff1661117a846104ea565b73ffffffffffffffffffffffffffffffffffffffff16145b806111a357506111a28185610f79565b5b91505092915050565b6111b7838383611367565b6111c18382611596565b6111cb82826117bf565b505050565b600081600001549050919050565b60006111ff8473ffffffffffffffffffffffffffffffffffffffff16611883565b61120c57600190506112ed565b60008473ffffffffffffffffffffffffffffffffffffffff1663150b7a02338887876040518563ffffffff1660e01b815260040161124d949392919061203d565b602060405180830381600087803b15801561126757600080fd5b505af115801561127b573d6000803e3d6000fd5b505050506040513d601f19601f8201168201806040525081019061129f9190611df0565b905063150b7a0260e01b7bffffffffffffffffffffffffffffffffffffffffffffffffffffffff1916817bffffffffffffffffffffffffffffffffffffffffffffffffffffffff1916149150505b949350505050565b6000806002600084815260200190815260200160002060009054906101000a900473ffffffffffffffffffffffffffffffffffffffff169050600073ffffffffffffffffffffffffffffffffffffffff168173ffffffffffffffffffffffffffffffffffffffff161415915050919050565b61137081610a2f565b73ffffffffffffffffffffffffffffffffffffffff168373ffffffffffffffffffffffffffffffffffffffff16146113dd576040517f08c379a00000000000000000000000000000000000000000000000000000000081526004016113d49061212f565b60405180910390fd5b600073ffffffffffffffffffffffffffffffffffffffff168273ffffffffffffffffffffffffffffffffffffffff16141561144d576040517f08c379a00000000000000000000000000000000000000000000000000000000081526004016114449061214f565b60405180910390fd5b611456816118a6565b61149d600460008573ffffffffffffffffffffffffffffffffffffffff1673ffffffffffffffffffffffffffffffffffffffff168152602001908152602001600020611964565b6114e4600460008473ffffffffffffffffffffffffffffffffffffffff1673ffffffffffffffffffffffffffffffffffffffff1681526020019081526020016000206119c0565b816002600083815260200190815260200160002060006101000a81548173ffffffffffffffffffffffffffffffffffffffff021916908373ffffffffffffffffffffffffffffffffffffffff160217905550808273ffffffffffffffffffffffffffffffffffffffff168473ffffffffffffffffffffffffffffffffffffffff167fddf252ad1be2c89b69c2b068fc378daa952ba7f163c4a11628f55a4df523b3ef60405160405180910390a4505050565b60006001600660008573ffffffffffffffffffffffffffffffffffffffff1673ffffffffffffffffffffffffffffffffffffffff168152602001908152602001600020805490506115e791906122c9565b905060006007600084815260200190815260200160002054905081811461172e576000600660008673ffffffffffffffffffffffffffffffffffffffff1673ffffffffffffffffffffffffffffffffffffffff1681526020019081526020016000208381548110611681577f4e487b7100000000000000000000000000000000000000000000000000000000600052603260045260246000fd5b9060005260206000200154905080600660008773ffffffffffffffffffffffffffffffffffffffff1673ffffffffffffffffffffffffffffffffffffffff1681526020019081526020016000208381548110611706577f4e487b7100000000000000000000000000000000000000000000000000000000600052603260045260246000fd5b9060005260206000200181905550816007600083815260200190815260200160002081905550505b600660008573ffffffffffffffffffffffffffffffffffffffff1673ffffffffffffffffffffffffffffffffffffffff1681526020019081526020016000208054806117a3577f4e487b7100000000000000000000000000000000000000000000000000000000600052603160045260246000fd5b6001900381819060005260206000200160009055905550505050565b600660008373ffffffffffffffffffffffffffffffffffffffff1673ffffffffffffffffffffffffffffffffffffffff168152602001908152602001600020805490506007600083815260200190815260200160002081905550600660008373ffffffffffffffffffffffffffffffffffffffff1673ffffffffffffffffffffffffffffffffffffffff1681526020019081526020016000208190806001815401808255809150506001900390600052602060002001600090919091909150555050565b6000808273ffffffffffffffffffffffffffffffffffffffff163b119050919050565b600073ffffffffffffffffffffffffffffffffffffffff166003600083815260200190815260200160002060009054906101000a900473ffffffffffffffffffffffffffffffffffffffff1673ffffffffffffffffffffffffffffffffffffffff16146119615760006003600083815260200190815260200160002060006101000a81548173ffffffffffffffffffffffffffffffffffffffff021916908373ffffffffffffffffffffffffffffffffffffffff1602179055505b50565b600081600001549050600081116119b0576040517f08c379a00000000000000000000000000000000000000000000000000000000081526004016119a7906120ef565b60405180910390fd5b6001810382600001819055505050565b6001816000016000828254019250508190555050565b60006119e96119e48461222f565b61220a565b905082815260208101848484011115611a0157600080fd5b611a0c84828561237b565b509392505050565b6000611a27611a2284612260565b61220a565b905082815260208101848484011115611a3f57600080fd5b611a4a84828561237b565b509392505050565b600081359050611a61816126c4565b92915050565b600081359050611a76816126db565b92915050565b600081359050611a8b816126f2565b92915050565b600081359050611aa081612709565b92915050565b600081519050611ab581612709565b92915050565b600082601f830112611acc57600080fd5b8135611adc8482602086016119d6565b91505092915050565b600082601f830112611af657600080fd5b8135611b06848260208601611a14565b91505092915050565b600081359050611b1e81612720565b92915050565b600060208284031215611b3657600080fd5b6000611b4484828501611a52565b91505092915050565b60008060408385031215611b6057600080fd5b6000611b6e85828601611a52565b9250506020611b7f85828601611a52565b9150509250929050565b600080600060608486031215611b9e57600080fd5b6000611bac86828701611a52565b9350506020611bbd86828701611a52565b9250506040611bce86828701611b0f565b9150509250925092565b60008060008060808587031215611bee57600080fd5b6000611bfc87828801611a52565b9450506020611c0d87828801611a52565b9350506040611c1e87828801611b0f565b925050606085013567ffffffffffffffff811115611c3b57600080fd5b611c4787828801611abb565b91505092959194509250565b60008060408385031215611c6657600080fd5b6000611c7485828601611a52565b9250506020611c8585828601611a67565b9150509250929050565b60008060408385031215611ca257600080fd5b6000611cb085828601611a52565b9250506020611cc185828601611b0f565b9150509250929050565b600060208284031215611cdd57600080fd5b6000611ceb84828501611a67565b91505092915050565b60008060408385031215611d0757600080fd5b6000611d1585828601611a7c565b925050602083013567ffffffffffffffff811115611d3257600080fd5b611d3e85828601611ae5565b9150509250929050565b600080600060608486031215611d5d57600080fd5b6000611d6b86828701611a7c565b935050602084013567ffffffffffffffff811115611d8857600080fd5b611d9486828701611ae5565b925050604084013567ffffffffffffffff811115611db157600080fd5b611dbd86828701611abb565b9150509250925092565b600060208284031215611dd957600080fd5b6000611de784828501611a91565b91505092915050565b600060208284031215611e0257600080fd5b6000611e1084828501611aa6565b91505092915050565b600060208284031215611e2b57600080fd5b6000611e3984828501611b0f565b91505092915050565b611e4b816122fd565b82525050565b611e5a8161230f565b82525050565b6000611e6b82612291565b611e7581856122a7565b9350611e8581856020860161238a565b611e8e816124ad565b840191505092915050565b6000611ea48261229c565b611eae81856122b8565b9350611ebe81856020860161238a565b611ec7816124ad565b840191505092915050565b6000611edf601b836122b8565b9150611eea826124be565b602082019050919050565b6000611f02603c836122b8565b9150611f0d826124e7565b604082019050919050565b6000611f256022836122b8565b9150611f3082612536565b604082019050919050565b6000611f48601a836122b8565b9150611f5382612585565b602082019050919050565b6000611f6b603c836122b8565b9150611f76826125ae565b604082019050919050565b6000611f8e601e836122b8565b9150611f99826125fd565b602082019050919050565b6000611fb16038836122b8565b9150611fbc82612626565b604082019050919050565b6000611fd46037836122b8565b9150611fdf82612675565b604082019050919050565b611ff381612371565b82525050565b600060208201905061200e6000830184611e42565b92915050565b60006040820190506120296000830185611e42565b6120366020830184611e42565b9392505050565b60006080820190506120526000830187611e42565b61205f6020830186611e42565b61206c6040830185611fea565b818103606083015261207e8184611e60565b905095945050505050565b600060408201905061209e6000830185611e42565b6120ab6020830184611e51565b9392505050565b60006020820190506120c76000830184611e51565b92915050565b600060208201905081810360008301526120e78184611e99565b905092915050565b6000602082019050818103600083015261210881611ed2565b9050919050565b6000602082019050818103600083015261212881611ef5565b9050919050565b6000602082019050818103600083015261214881611f18565b9050919050565b6000602082019050818103600083015261216881611f3b565b9050919050565b6000602082019050818103600083015261218881611f5e565b9050919050565b600060208201905081810360008301526121a881611f81565b9050919050565b600060208201905081810360008301526121c881611fa4565b9050919050565b600060208201905081810360008301526121e881611fc7565b9050919050565b60006020820190506122046000830184611fea565b92915050565b6000612214612225565b905061222082826123ef565b919050565b6000604051905090565b600067ffffffffffffffff82111561224a5761224961247e565b5b612253826124ad565b9050602081019050919050565b600067ffffffffffffffff82111561227b5761227a61247e565b5b612284826124ad565b9050602081019050919050565b600081519050919050565b600081519050919050565b600082825260208201905092915050565b600082825260208201905092915050565b60006122d482612371565b91506122df83612371565b9250828210156122f2576122f1612420565b5b828203905092915050565b600061230882612351565b9050919050565b60008115159050919050565b6000819050919050565b60007fffffffff0000000000000000000000000000000000000000000000000000000082169050919050565b600073ffffffffffffffffffffffffffffffffffffffff82169050919050565b6000819050919050565b82818337600083830152505050565b60005b838110156123a857808201518184015260208101905061238d565b838111156123b7576000848401525b50505050565b600060028204905060018216806123d557607f821691505b602082108114156123e9576123e861244f565b5b50919050565b6123f8826124ad565b810181811067ffffffffffffffff821117156124175761241661247e565b5b80604052505050565b7f4e487b7100000000000000000000000000000000000000000000000000000000600052601160045260246000fd5b7f4e487b7100000000000000000000000000000000000000000000000000000000600052602260045260246000fd5b7f4e487b7100000000000000000000000000000000000000000000000000000000600052604160045260246000fd5b6000601f19601f8301169050919050565b7f436f756e7465723a2064656372656d656e74206f766572666c6f770000000000600082015250565b7f596f75206d75737420626520746865206f776e6572206f7220617070726f766560008201527f6420627920746865206f776e6572206f66207468697320746f6b656e00000000602082015250565b7f596f75206d75737420626520746865206f776e6572206f662074686520746f6b60008201527f656e000000000000000000000000000000000000000000000000000000000000602082015250565b7f4d75737420626520612076616c696420746f2061646472657373000000000000600082015250565b7f596f75206d75737420626520746865206f776e6572206f662074686520636f6e60008201527f747261637420746f20656e74657220746869732066756e6374696f6e00000000602082015250565b7f796f75206d75737420696e707574206120626f6f6c65616e2076616c75650000600082015250565b7f596f75206d757374206e6f7420626520746865206f776e6572206f662074686560008201527f20746f6b656e20796f752061726520617070726f76696e670000000000000000602082015250565b7f54686520636f6e7472616374207061757365207374617475732069732074686560008201527f2073616d6520617320696e70757420617267756d656e74000000000000000000602082015250565b6126cd816122fd565b81146126d857600080fd5b50565b6126e48161230f565b81146126ef57600080fd5b50565b6126fb8161231b565b811461270657600080fd5b50565b61271281612325565b811461271d57600080fd5b50565b61272981612371565b811461273457600080fd5b5056fea2646970667358221220a18a246c44822cb7064d9140cf0744caa48c0c926200f624319eed4a6dedc34264736f6c63430008040033",
  "linkReferences": {},
  "deployedLinkReferences": {}
}