{
  "_format": "hh-sol-artifact-1",
  "contractName": "ERC721",
  "sourceName": "contracts/ERC721Mintable.sol",
  "abi": [
    {
      "inputs": [],
      "stateMutability": "nonpayable",
      "type": "constructor"
    },
    {
      "anonymous": false,
      "inputs": [
        {
          "indexed": true,
          "internalType": "address",
          "name": "owner",
          "type": "address"
        },
        {
          "indexed": true,
          "internalType": "address",
          "name": "approved",
          "type": "address"
        },
        {
          "indexed": true,
          "internalType": "uint256",
          "name": "tokenId",
          "type": "uint256"
        }
      ],
      "name": "Approval",
      "type": "event"
    },
    {
      "anonymous": false,
      "inputs": [
        {
          "indexed": true,
          "internalType": "address",
          "name": "owner",
          "type": "address"
        },
        {
          "indexed": true,
          "internalType": "address",
          "name": "operator",
          "type": "address"
        },
        {
          "indexed": false,
          "internalType": "bool",
          "name": "approved",
          "type": "bool"
        }
      ],
      "name": "ApprovalForAll",
      "type": "event"
    },
    {
      "anonymous": false,
      "inputs": [
        {
          "indexed": false,
          "internalType": "address",
          "name": "initiator",
          "type": "address"
        },
        {
          "indexed": false,
          "internalType": "bool",
          "name": "value",
          "type": "bool"
        }
      ],
      "name": "Paused",
      "type": "event"
    },
    {
      "anonymous": false,
      "inputs": [
        {
          "indexed": true,
          "internalType": "address",
          "name": "from",
          "type": "address"
        },
        {
          "indexed": true,
          "internalType": "address",
          "name": "to",
          "type": "address"
        },
        {
          "indexed": true,
          "internalType": "uint256",
          "name": "tokenId",
          "type": "uint256"
        }
      ],
      "name": "Transfer",
      "type": "event"
    },
    {
      "anonymous": false,
      "inputs": [
        {
          "indexed": false,
          "internalType": "address",
          "name": "initiator",
          "type": "address"
        },
        {
          "indexed": false,
          "internalType": "bool",
          "name": "value",
          "type": "bool"
        }
      ],
      "name": "UnPaused",
      "type": "event"
    },
    {
      "anonymous": false,
      "inputs": [
        {
          "indexed": false,
          "internalType": "address",
          "name": "newOwner",
          "type": "address"
        },
        {
          "indexed": false,
          "internalType": "address",
          "name": "oldOwner",
          "type": "address"
        }
      ],
      "name": "ownershipTransfered",
      "type": "event"
    },
    {
      "inputs": [
        {
          "internalType": "address",
          "name": "to",
          "type": "address"
        },
        {
          "internalType": "uint256",
          "name": "tokenId",
          "type": "uint256"
        }
      ],
      "name": "approve",
      "outputs": [],
      "stateMutability": "nonpayable",
      "type": "function"
    },
    {
      "inputs": [
        {
          "internalType": "address",
          "name": "owner",
          "type": "address"
        }
      ],
      "name": "balanceOf",
      "outputs": [
        {
          "internalType": "uint256",
          "name": "",
          "type": "uint256"
        }
      ],
      "stateMutability": "view",
      "type": "function"
    },
    {
      "inputs": [
        {
          "internalType": "uint256",
          "name": "tokenId",
          "type": "uint256"
        }
      ],
      "name": "getApproved",
      "outputs": [
        {
          "internalType": "address",
          "name": "",
          "type": "address"
        }
      ],
      "stateMutability": "view",
      "type": "function"
    },
    {
      "inputs": [],
      "name": "getOwner",
      "outputs": [
        {
          "internalType": "address",
          "name": "",
          "type": "address"
        }
      ],
      "stateMutability": "view",
      "type": "function"
    },
    {
      "inputs": [],
      "name": "getPauseStatus",
      "outputs": [
        {
          "internalType": "bool",
          "name": "status",
          "type": "bool"
        }
      ],
      "stateMutability": "view",
      "type": "function"
    },
    {
      "inputs": [
        {
          "internalType": "address",
          "name": "owner",
          "type": "address"
        },
        {
          "internalType": "address",
          "name": "operator",
          "type": "address"
        }
      ],
      "name": "isApprovedForAll",
      "outputs": [
        {
          "internalType": "bool",
          "name": "",
          "type": "bool"
        }
      ],
      "stateMutability": "view",
      "type": "function"
    },
    {
      "inputs": [
        {
          "internalType": "uint256",
          "name": "tokenId",
          "type": "uint256"
        }
      ],
      "name": "ownerOf",
      "outputs": [
        {
          "internalType": "address",
          "name": "",
          "type": "address"
        }
      ],
      "stateMutability": "view",
      "type": "function"
    },
    {
      "inputs": [
        {
          "internalType": "address",
          "name": "from",
          "type": "address"
        },
        {
          "internalType": "address",
          "name": "to",
          "type": "address"
        },
        {
          "internalType": "uint256",
          "name": "tokenId",
          "type": "uint256"
        }
      ],
      "name": "safeTransferFrom",
      "outputs": [],
      "stateMutability": "nonpayable",
      "type": "function"
    },
    {
      "inputs": [
        {
          "internalType": "address",
          "name": "from",
          "type": "address"
        },
        {
          "internalType": "address",
          "name": "to",
          "type": "address"
        },
        {
          "internalType": "uint256",
          "name": "tokenId",
          "type": "uint256"
        },
        {
          "internalType": "bytes",
          "name": "_data",
          "type": "bytes"
        }
      ],
      "name": "safeTransferFrom",
      "outputs": [],
      "stateMutability": "nonpayable",
      "type": "function"
    },
    {
      "inputs": [
        {
          "internalType": "address",
          "name": "to",
          "type": "address"
        },
        {
          "internalType": "bool",
          "name": "approved",
          "type": "bool"
        }
      ],
      "name": "setApprovalForAll",
      "outputs": [],
      "stateMutability": "nonpayable",
      "type": "function"
    },
    {
      "inputs": [
        {
          "internalType": "bool",
          "name": "_value",
          "type": "bool"
        }
      ],
      "name": "setPauseStatus",
      "outputs": [],
      "stateMutability": "nonpayable",
      "type": "function"
    },
    {
      "inputs": [
        {
          "internalType": "bytes4",
          "name": "interfaceId",
          "type": "bytes4"
        }
      ],
      "name": "supportsInterface",
      "outputs": [
        {
          "internalType": "bool",
          "name": "",
          "type": "bool"
        }
      ],
      "stateMutability": "view",
      "type": "function"
    },
    {
      "inputs": [
        {
          "internalType": "address",
          "name": "from",
          "type": "address"
        },
        {
          "internalType": "address",
          "name": "to",
          "type": "address"
        },
        {
          "internalType": "uint256",
          "name": "tokenId",
          "type": "uint256"
        }
      ],
      "name": "transferFrom",
      "outputs": [],
      "stateMutability": "nonpayable",
      "type": "function"
    },
    {
      "inputs": [
        {
          "internalType": "address",
          "name": "_newOwner",
          "type": "address"
        }
      ],
      "name": "transferOwnership",
      "outputs": [],
      "stateMutability": "nonpayable",
      "type": "function"
    }
  ],
  "bytecode": "0x608060405234801561001057600080fd5b50336000806101000a81548173ffffffffffffffffffffffffffffffffffffffff021916908373ffffffffffffffffffffffffffffffffffffffff16021790555060008060146101000a81548160ff0219169083151502179055506100816301ffc9a760e01b61009c60201b60201c565b6100976380ac58cd60e01b61009c60201b60201c565b61013b565b63ffffffff60e01b817bffffffffffffffffffffffffffffffffffffffffffffffffffffffff191614156100cf57600080fd5b6001806000837bffffffffffffffffffffffffffffffffffffffffffffffffffffffff19167bffffffffffffffffffffffffffffffffffffffffffffffffffffffff1916815260200190815260200160002060006101000a81548160ff02191690831515021790555050565b611b5b8061014a6000396000f3fe608060405234801561001057600080fd5b50600436106100ea5760003560e01c806370a082311161008c578063b88d4fde11610066578063b88d4fde1461025b578063c38bb53714610277578063e985e9c514610293578063f2fde38b146102c3576100ea565b806370a08231146101f1578063893d20e814610221578063a22cb4651461023f576100ea565b80631d9023cb116100c85780631d9023cb1461016b57806323b872dd1461018957806342842e0e146101a55780636352211e146101c1576100ea565b806301ffc9a7146100ef578063081812fc1461011f578063095ea7b31461014f575b600080fd5b61010960048036038101906101049190611331565b6102df565b60405161011691906115e3565b60405180910390f35b61013960048036038101906101349190611383565b610347565b604051610146919061152a565b60405180910390f35b610169600480360381019061016491906112cc565b610384565b005b610173610526565b60405161018091906115e3565b60405180910390f35b6101a3600480360381019061019e91906111c6565b61053c565b005b6101bf60048036038101906101ba91906111c6565b610595565b005b6101db60048036038101906101d69190611383565b6105b5565b6040516101e8919061152a565b60405180910390f35b61020b60048036038101906102069190611161565b6105f2565b60405161021891906116fe565b60405180910390f35b610229610642565b604051610236919061152a565b60405180910390f35b61025960048036038101906102549190611290565b61066b565b005b61027560048036038101906102709190611215565b6107a1565b005b610291600480360381019061028c9190611308565b6107c7565b005b6102ad60048036038101906102a8919061118a565b6109b6565b6040516102ba91906115e3565b60405180910390f35b6102dd60048036038101906102d89190611161565b610a4a565b005b600060016000837bffffffffffffffffffffffffffffffffffffffffffffffffffffffff19167bffffffffffffffffffffffffffffffffffffffffffffffffffffffff1916815260200190815260200160002060009054906101000a900460ff169050919050565b60006003600083815260200190815260200160002060009054906101000a900473ffffffffffffffffffffffffffffffffffffffff169050919050565b60006002600083815260200190815260200160002060009054906101000a900473ffffffffffffffffffffffffffffffffffffffff1690508073ffffffffffffffffffffffffffffffffffffffff168373ffffffffffffffffffffffffffffffffffffffff16141561042b576040517f08c379a0000000000000000000000000000000000000000000000000000000008152600401610422906116be565b60405180910390fd5b8073ffffffffffffffffffffffffffffffffffffffff163373ffffffffffffffffffffffffffffffffffffffff16148061046b575061046a83336109b6565b5b61047457600080fd5b826003600084815260200190815260200160002060006101000a81548173ffffffffffffffffffffffffffffffffffffffff021916908373ffffffffffffffffffffffffffffffffffffffff160217905550818373ffffffffffffffffffffffffffffffffffffffff168273ffffffffffffffffffffffffffffffffffffffff167f8c5be1e5ebec7d5bd14f71427d1e84f3dd0314c0f7b2291e5b200ac8c7c3b92560405160405180910390a4505050565b60008060149054906101000a900460ff16905090565b6105463382610b54565b610585576040517f08c379a000000000000000000000000000000000000000000000000000000000815260040161057c9061161e565b60405180910390fd5b610590838383610be9565b505050565b6105b0838383604051806020016040528060008152506107a1565b505050565b60006002600083815260200190815260200160002060009054906101000a900473ffffffffffffffffffffffffffffffffffffffff169050919050565b600061063b600460008473ffffffffffffffffffffffffffffffffffffffff1673ffffffffffffffffffffffffffffffffffffffff168152602001908152602001600020610e18565b9050919050565b60008060009054906101000a900473ffffffffffffffffffffffffffffffffffffffff16905090565b3373ffffffffffffffffffffffffffffffffffffffff168273ffffffffffffffffffffffffffffffffffffffff1614156106a457600080fd5b80600560003373ffffffffffffffffffffffffffffffffffffffff1673ffffffffffffffffffffffffffffffffffffffff16815260200190815260200160002060008473ffffffffffffffffffffffffffffffffffffffff1673ffffffffffffffffffffffffffffffffffffffff16815260200190815260200160002060006101000a81548160ff0219169083151502179055508173ffffffffffffffffffffffffffffffffffffffff163373ffffffffffffffffffffffffffffffffffffffff167f17307eab39ab6107e8899845ad3d59bd9653f200f220920489ca2b5937696c318360405161079591906115e3565b60405180910390a35050565b6107ac84848461053c565b6107b884848484610e26565b6107c157600080fd5b50505050565b60008054906101000a900473ffffffffffffffffffffffffffffffffffffffff1673ffffffffffffffffffffffffffffffffffffffff163373ffffffffffffffffffffffffffffffffffffffff1614610855576040517f08c379a000000000000000000000000000000000000000000000000000000000815260040161084c9061167e565b60405180910390fd5b60011515811515148061086c575060001515811515145b6108ab576040517f08c379a00000000000000000000000000000000000000000000000000000000081526004016108a29061169e565b60405180910390fd5b801515600060149054906101000a900460ff1615151415610901576040517f08c379a00000000000000000000000000000000000000000000000000000000081526004016108f8906116de565b60405180910390fd5b801561095f5780600060146101000a81548160ff0219169083151502179055507fe8699cf681560fd07de85543bd994263f4557bdc5179dd702f256d15fd083e1d33826040516109529291906115ba565b60405180910390a16109b3565b80600060146101000a81548160ff0219169083151502179055507f7e33492b866dc3a8907fa6d980cd33332afb0d044cf12c0005fabd6b0aa77bff33826040516109aa9291906115ba565b60405180910390a15b50565b6000600560008473ffffffffffffffffffffffffffffffffffffffff1673ffffffffffffffffffffffffffffffffffffffff16815260200190815260200160002060008373ffffffffffffffffffffffffffffffffffffffff1673ffffffffffffffffffffffffffffffffffffffff16815260200190815260200160002060009054906101000a900460ff16905092915050565b60008054906101000a900473ffffffffffffffffffffffffffffffffffffffff1673ffffffffffffffffffffffffffffffffffffffff163373ffffffffffffffffffffffffffffffffffffffff1614610ad8576040517f08c379a0000000000000000000000000000000000000000000000000000000008152600401610acf9061167e565b60405180910390fd5b806000806101000a81548173ffffffffffffffffffffffffffffffffffffffff021916908373ffffffffffffffffffffffffffffffffffffffff1602179055507feb38696426b5aa8881f6ba9f2f3e0ac06ee7ea6ffbe944120578d61191ef61018133604051610b49929190611545565b60405180910390a150565b600080610b60836105b5565b90508073ffffffffffffffffffffffffffffffffffffffff168473ffffffffffffffffffffffffffffffffffffffff161480610bcf57508373ffffffffffffffffffffffffffffffffffffffff16610bb784610347565b73ffffffffffffffffffffffffffffffffffffffff16145b80610be05750610bdf81856109b6565b5b91505092915050565b610bf2816105b5565b73ffffffffffffffffffffffffffffffffffffffff168373ffffffffffffffffffffffffffffffffffffffff1614610c5f576040517f08c379a0000000000000000000000000000000000000000000000000000000008152600401610c569061163e565b60405180910390fd5b600073ffffffffffffffffffffffffffffffffffffffff168273ffffffffffffffffffffffffffffffffffffffff161415610ccf576040517f08c379a0000000000000000000000000000000000000000000000000000000008152600401610cc69061165e565b60405180910390fd5b610cd881610f3d565b610d1f600460008573ffffffffffffffffffffffffffffffffffffffff1673ffffffffffffffffffffffffffffffffffffffff168152602001908152602001600020610ffb565b610d66600460008473ffffffffffffffffffffffffffffffffffffffff1673ffffffffffffffffffffffffffffffffffffffff168152602001908152602001600020611057565b816002600083815260200190815260200160002060006101000a81548173ffffffffffffffffffffffffffffffffffffffff021916908373ffffffffffffffffffffffffffffffffffffffff160217905550808273ffffffffffffffffffffffffffffffffffffffff168473ffffffffffffffffffffffffffffffffffffffff167fddf252ad1be2c89b69c2b068fc378daa952ba7f163c4a11628f55a4df523b3ef60405160405180910390a4505050565b600081600001549050919050565b6000610e478473ffffffffffffffffffffffffffffffffffffffff1661106d565b610e545760019050610f35565b60008473ffffffffffffffffffffffffffffffffffffffff1663150b7a02338887876040518563ffffffff1660e01b8152600401610e95949392919061156e565b602060405180830381600087803b158015610eaf57600080fd5b505af1158015610ec3573d6000803e3d6000fd5b505050506040513d601f19601f82011682018060405250810190610ee7919061135a565b905063150b7a0260e01b7bffffffffffffffffffffffffffffffffffffffffffffffffffffffff1916817bffffffffffffffffffffffffffffffffffffffffffffffffffffffff1916149150505b949350505050565b600073ffffffffffffffffffffffffffffffffffffffff166003600083815260200190815260200160002060009054906101000a900473ffffffffffffffffffffffffffffffffffffffff1673ffffffffffffffffffffffffffffffffffffffff1614610ff85760006003600083815260200190815260200160002060006101000a81548173ffffffffffffffffffffffffffffffffffffffff021916908373ffffffffffffffffffffffffffffffffffffffff1602179055505b50565b60008160000154905060008111611047576040517f08c379a000000000000000000000000000000000000000000000000000000000815260040161103e906115fe565b60405180910390fd5b6001810382600001819055505050565b6001816000016000828254019250508190555050565b6000808273ffffffffffffffffffffffffffffffffffffffff163b119050919050565b60006110a361109e8461173e565b611719565b9050828152602081018484840111156110bb57600080fd5b6110c6848285611810565b509392505050565b6000813590506110dd81611ac9565b92915050565b6000813590506110f281611ae0565b92915050565b60008135905061110781611af7565b92915050565b60008151905061111c81611af7565b92915050565b600082601f83011261113357600080fd5b8135611143848260208601611090565b91505092915050565b60008135905061115b81611b0e565b92915050565b60006020828403121561117357600080fd5b6000611181848285016110ce565b91505092915050565b6000806040838503121561119d57600080fd5b60006111ab858286016110ce565b92505060206111bc858286016110ce565b9150509250929050565b6000806000606084860312156111db57600080fd5b60006111e9868287016110ce565b93505060206111fa868287016110ce565b925050604061120b8682870161114c565b9150509250925092565b6000806000806080858703121561122b57600080fd5b6000611239878288016110ce565b945050602061124a878288016110ce565b935050604061125b8782880161114c565b925050606085013567ffffffffffffffff81111561127857600080fd5b61128487828801611122565b91505092959194509250565b600080604083850312156112a357600080fd5b60006112b1858286016110ce565b92505060206112c2858286016110e3565b9150509250929050565b600080604083850312156112df57600080fd5b60006112ed858286016110ce565b92505060206112fe8582860161114c565b9150509250929050565b60006020828403121561131a57600080fd5b6000611328848285016110e3565b91505092915050565b60006020828403121561134357600080fd5b6000611351848285016110f8565b91505092915050565b60006020828403121561136c57600080fd5b600061137a8482850161110d565b91505092915050565b60006020828403121561139557600080fd5b60006113a38482850161114c565b91505092915050565b6113b58161179c565b82525050565b6113c4816117ae565b82525050565b60006113d58261176f565b6113df818561177a565b93506113ef81856020860161181f565b6113f8816118b2565b840191505092915050565b6000611410601b8361178b565b915061141b826118c3565b602082019050919050565b6000611433603c8361178b565b915061143e826118ec565b604082019050919050565b600061145660228361178b565b91506114618261193b565b604082019050919050565b6000611479601a8361178b565b91506114848261198a565b602082019050919050565b600061149c603c8361178b565b91506114a7826119b3565b604082019050919050565b60006114bf601e8361178b565b91506114ca82611a02565b602082019050919050565b60006114e260388361178b565b91506114ed82611a2b565b604082019050919050565b600061150560378361178b565b915061151082611a7a565b604082019050919050565b61152481611806565b82525050565b600060208201905061153f60008301846113ac565b92915050565b600060408201905061155a60008301856113ac565b61156760208301846113ac565b9392505050565b600060808201905061158360008301876113ac565b61159060208301866113ac565b61159d604083018561151b565b81810360608301526115af81846113ca565b905095945050505050565b60006040820190506115cf60008301856113ac565b6115dc60208301846113bb565b9392505050565b60006020820190506115f860008301846113bb565b92915050565b6000602082019050818103600083015261161781611403565b9050919050565b6000602082019050818103600083015261163781611426565b9050919050565b6000602082019050818103600083015261165781611449565b9050919050565b600060208201905081810360008301526116778161146c565b9050919050565b600060208201905081810360008301526116978161148f565b9050919050565b600060208201905081810360008301526116b7816114b2565b9050919050565b600060208201905081810360008301526116d7816114d5565b9050919050565b600060208201905081810360008301526116f7816114f8565b9050919050565b6000602082019050611713600083018461151b565b92915050565b6000611723611734565b905061172f8282611852565b919050565b6000604051905090565b600067ffffffffffffffff82111561175957611758611883565b5b611762826118b2565b9050602081019050919050565b600081519050919050565b600082825260208201905092915050565b600082825260208201905092915050565b60006117a7826117e6565b9050919050565b60008115159050919050565b60007fffffffff0000000000000000000000000000000000000000000000000000000082169050919050565b600073ffffffffffffffffffffffffffffffffffffffff82169050919050565b6000819050919050565b82818337600083830152505050565b60005b8381101561183d578082015181840152602081019050611822565b8381111561184c576000848401525b50505050565b61185b826118b2565b810181811067ffffffffffffffff8211171561187a57611879611883565b5b80604052505050565b7f4e487b7100000000000000000000000000000000000000000000000000000000600052604160045260246000fd5b6000601f19601f8301169050919050565b7f436f756e7465723a2064656372656d656e74206f766572666c6f770000000000600082015250565b7f596f75206d75737420626520746865206f776e6572206f7220617070726f766560008201527f6420627920746865206f776e6572206f66207468697320746f6b656e00000000602082015250565b7f596f75206d75737420626520746865206f776e6572206f662074686520746f6b60008201527f656e000000000000000000000000000000000000000000000000000000000000602082015250565b7f4d75737420626520612076616c696420746f2061646472657373000000000000600082015250565b7f596f75206d75737420626520746865206f776e6572206f662074686520636f6e60008201527f747261637420746f20656e74657220746869732066756e6374696f6e00000000602082015250565b7f796f75206d75737420696e707574206120626f6f6c65616e2076616c75650000600082015250565b7f596f75206d757374206e6f7420626520746865206f776e6572206f662074686560008201527f20746f6b656e20796f752061726520617070726f76696e670000000000000000602082015250565b7f54686520636f6e7472616374207061757365207374617475732069732074686560008201527f2073616d6520617320696e70757420617267756d656e74000000000000000000602082015250565b611ad28161179c565b8114611add57600080fd5b50565b611ae9816117ae565b8114611af457600080fd5b50565b611b00816117ba565b8114611b0b57600080fd5b50565b611b1781611806565b8114611b2257600080fd5b5056fea2646970667358221220ae844148e24b942d512ed4b13c4565a4bfdb57bdb2015a808e5829e62f40868964736f6c63430008040033",
  "linkReferences": {},
  "deployedLinkReferences": {}
}