{
  "_format": "hh-sol-artifact-1",
  "contractName": "ERC721Enumerable",
  "sourceName": "contracts/ERC721Mintable.sol",
  "abi": [
    {
      "inputs": [],
      "stateMutability": "nonpayable",
      "type": "constructor"
    },
    {
      "anonymous": false,
      "inputs": [
        {
          "indexed": true,
          "internalType": "address",
          "name": "owner",
          "type": "address"
        },
        {
          "indexed": true,
          "internalType": "address",
          "name": "approved",
          "type": "address"
        },
        {
          "indexed": true,
          "internalType": "uint256",
          "name": "tokenId",
          "type": "uint256"
        }
      ],
      "name": "Approval",
      "type": "event"
    },
    {
      "anonymous": false,
      "inputs": [
        {
          "indexed": true,
          "internalType": "address",
          "name": "owner",
          "type": "address"
        },
        {
          "indexed": true,
          "internalType": "address",
          "name": "operator",
          "type": "address"
        },
        {
          "indexed": false,
          "internalType": "bool",
          "name": "approved",
          "type": "bool"
        }
      ],
      "name": "ApprovalForAll",
      "type": "event"
    },
    {
      "anonymous": false,
      "inputs": [
        {
          "indexed": false,
          "internalType": "bool",
          "name": "value",
          "type": "bool"
        }
      ],
      "name": "Paused",
      "type": "event"
    },
    {
      "anonymous": false,
      "inputs": [
        {
          "indexed": true,
          "internalType": "address",
          "name": "from",
          "type": "address"
        },
        {
          "indexed": true,
          "internalType": "address",
          "name": "to",
          "type": "address"
        },
        {
          "indexed": true,
          "internalType": "uint256",
          "name": "tokenId",
          "type": "uint256"
        }
      ],
      "name": "Transfer",
      "type": "event"
    },
    {
      "anonymous": false,
      "inputs": [
        {
          "indexed": false,
          "internalType": "bool",
          "name": "value",
          "type": "bool"
        }
      ],
      "name": "UnPaused",
      "type": "event"
    },
    {
      "anonymous": false,
      "inputs": [
        {
          "indexed": false,
          "internalType": "address",
          "name": "newOwner",
          "type": "address"
        },
        {
          "indexed": false,
          "internalType": "address",
          "name": "oldOwner",
          "type": "address"
        }
      ],
      "name": "ownershipTransfered",
      "type": "event"
    },
    {
      "inputs": [
        {
          "internalType": "address",
          "name": "to",
          "type": "address"
        },
        {
          "internalType": "uint256",
          "name": "tokenId",
          "type": "uint256"
        }
      ],
      "name": "approve",
      "outputs": [],
      "stateMutability": "nonpayable",
      "type": "function"
    },
    {
      "inputs": [
        {
          "internalType": "address",
          "name": "owner",
          "type": "address"
        }
      ],
      "name": "balanceOf",
      "outputs": [
        {
          "internalType": "uint256",
          "name": "",
          "type": "uint256"
        }
      ],
      "stateMutability": "view",
      "type": "function"
    },
    {
      "inputs": [
        {
          "internalType": "uint256",
          "name": "tokenId",
          "type": "uint256"
        }
      ],
      "name": "getApproved",
      "outputs": [
        {
          "internalType": "address",
          "name": "",
          "type": "address"
        }
      ],
      "stateMutability": "view",
      "type": "function"
    },
    {
      "inputs": [],
      "name": "getOwner",
      "outputs": [
        {
          "internalType": "address",
          "name": "",
          "type": "address"
        }
      ],
      "stateMutability": "view",
      "type": "function"
    },
    {
      "inputs": [],
      "name": "getPauseStatus",
      "outputs": [
        {
          "internalType": "bool",
          "name": "status",
          "type": "bool"
        }
      ],
      "stateMutability": "view",
      "type": "function"
    },
    {
      "inputs": [
        {
          "internalType": "address",
          "name": "owner",
          "type": "address"
        },
        {
          "internalType": "address",
          "name": "operator",
          "type": "address"
        }
      ],
      "name": "isApprovedForAll",
      "outputs": [
        {
          "internalType": "bool",
          "name": "",
          "type": "bool"
        }
      ],
      "stateMutability": "view",
      "type": "function"
    },
    {
      "inputs": [
        {
          "internalType": "uint256",
          "name": "tokenId",
          "type": "uint256"
        }
      ],
      "name": "ownerOf",
      "outputs": [
        {
          "internalType": "address",
          "name": "",
          "type": "address"
        }
      ],
      "stateMutability": "view",
      "type": "function"
    },
    {
      "inputs": [
        {
          "internalType": "address",
          "name": "from",
          "type": "address"
        },
        {
          "internalType": "address",
          "name": "to",
          "type": "address"
        },
        {
          "internalType": "uint256",
          "name": "tokenId",
          "type": "uint256"
        }
      ],
      "name": "safeTransferFrom",
      "outputs": [],
      "stateMutability": "nonpayable",
      "type": "function"
    },
    {
      "inputs": [
        {
          "internalType": "address",
          "name": "from",
          "type": "address"
        },
        {
          "internalType": "address",
          "name": "to",
          "type": "address"
        },
        {
          "internalType": "uint256",
          "name": "tokenId",
          "type": "uint256"
        },
        {
          "internalType": "bytes",
          "name": "_data",
          "type": "bytes"
        }
      ],
      "name": "safeTransferFrom",
      "outputs": [],
      "stateMutability": "nonpayable",
      "type": "function"
    },
    {
      "inputs": [
        {
          "internalType": "address",
          "name": "to",
          "type": "address"
        },
        {
          "internalType": "bool",
          "name": "approved",
          "type": "bool"
        }
      ],
      "name": "setApprovalForAll",
      "outputs": [],
      "stateMutability": "nonpayable",
      "type": "function"
    },
    {
      "inputs": [
        {
          "internalType": "bool",
          "name": "_value",
          "type": "bool"
        }
      ],
      "name": "setPauseStatus",
      "outputs": [],
      "stateMutability": "nonpayable",
      "type": "function"
    },
    {
      "inputs": [
        {
          "internalType": "bytes4",
          "name": "interfaceId",
          "type": "bytes4"
        }
      ],
      "name": "supportsInterface",
      "outputs": [
        {
          "internalType": "bool",
          "name": "",
          "type": "bool"
        }
      ],
      "stateMutability": "view",
      "type": "function"
    },
    {
      "inputs": [
        {
          "internalType": "uint256",
          "name": "index",
          "type": "uint256"
        }
      ],
      "name": "tokenByIndex",
      "outputs": [
        {
          "internalType": "uint256",
          "name": "",
          "type": "uint256"
        }
      ],
      "stateMutability": "view",
      "type": "function"
    },
    {
      "inputs": [
        {
          "internalType": "address",
          "name": "owner",
          "type": "address"
        },
        {
          "internalType": "uint256",
          "name": "index",
          "type": "uint256"
        }
      ],
      "name": "tokenOfOwnerByIndex",
      "outputs": [
        {
          "internalType": "uint256",
          "name": "",
          "type": "uint256"
        }
      ],
      "stateMutability": "view",
      "type": "function"
    },
    {
      "inputs": [],
      "name": "totalSupply",
      "outputs": [
        {
          "internalType": "uint256",
          "name": "",
          "type": "uint256"
        }
      ],
      "stateMutability": "view",
      "type": "function"
    },
    {
      "inputs": [
        {
          "internalType": "address",
          "name": "from",
          "type": "address"
        },
        {
          "internalType": "address",
          "name": "to",
          "type": "address"
        },
        {
          "internalType": "uint256",
          "name": "tokenId",
          "type": "uint256"
        }
      ],
      "name": "transferFrom",
      "outputs": [],
      "stateMutability": "nonpayable",
      "type": "function"
    },
    {
      "inputs": [
        {
          "internalType": "address",
          "name": "_newOwner",
          "type": "address"
        }
      ],
      "name": "transferOwnership",
      "outputs": [],
      "stateMutability": "nonpayable",
      "type": "function"
    }
  ],
  "bytecode": "0x60806040523480156200001157600080fd5b50336000806101000a81548173ffffffffffffffffffffffffffffffffffffffff021916908373ffffffffffffffffffffffffffffffffffffffff16021790555060008060146101000a81548160ff021916908315150217905550620000846301ffc9a760e01b620000ba60201b60201c565b6200009c6380ac58cd60e01b620000ba60201b60201c565b620000b463780e9d6360e01b620000ba60201b60201c565b6200015a565b63ffffffff60e01b817bffffffffffffffffffffffffffffffffffffffffffffffffffffffff19161415620000ee57600080fd5b6001806000837bffffffffffffffffffffffffffffffffffffffffffffffffffffffff19167bffffffffffffffffffffffffffffffffffffffffffffffffffffffff1916815260200190815260200160002060006101000a81548160ff02191690831515021790555050565b612361806200016a6000396000f3fe608060405234801561001057600080fd5b506004361061010b5760003560e01c80634f6ccce7116100a2578063a22cb46511610071578063a22cb465146102de578063b88d4fde146102fa578063c38bb53714610316578063e985e9c514610332578063f2fde38b146103625761010b565b80634f6ccce7146102305780636352211e1461026057806370a0823114610290578063893d20e8146102c05761010b565b80631d9023cb116100de5780631d9023cb146101aa57806323b872dd146101c85780632f745c59146101e457806342842e0e146102145761010b565b806301ffc9a714610110578063081812fc14610140578063095ea7b31461017057806318160ddd1461018c575b600080fd5b61012a60048036038101906101259190611a6b565b61037e565b6040516101379190611d17565b60405180910390f35b61015a60048036038101906101559190611abd565b6103e6565b6040516101679190611c87565b60405180910390f35b61018a60048036038101906101859190611a06565b610423565b005b610194610615565b6040516101a19190611e52565b60405180910390f35b6101b2610622565b6040516101bf9190611d17565b60405180910390f35b6101e260048036038101906101dd9190611900565b610638565b005b6101fe60048036038101906101f99190611a06565b6106e1565b60405161020b9190611e52565b60405180910390f35b61022e60048036038101906102299190611900565b610781565b005b61024a60048036038101906102459190611abd565b6107f1565b6040516102579190611e52565b60405180910390f35b61027a60048036038101906102759190611abd565b610852565b6040516102879190611c87565b60405180910390f35b6102aa60048036038101906102a5919061189b565b61088f565b6040516102b79190611e52565b60405180910390f35b6102c86108df565b6040516102d59190611c87565b60405180910390f35b6102f860048036038101906102f391906119ca565b610908565b005b610314600480360381019061030f919061194f565b610a8e565b005b610330600480360381019061032b9190611a42565b610b04565b005b61034c600480360381019061034791906118c4565b610cef565b6040516103599190611d17565b60405180910390f35b61037c6004803603810190610377919061189b565b610d83565b005b600060016000837bffffffffffffffffffffffffffffffffffffffffffffffffffffffff19167bffffffffffffffffffffffffffffffffffffffffffffffffffffffff1916815260200190815260200160002060009054906101000a900460ff169050919050565b60006003600083815260200190815260200160002060009054906101000a900473ffffffffffffffffffffffffffffffffffffffff169050919050565b600060149054906101000a900460ff1615610473576040517f08c379a000000000000000000000000000000000000000000000000000000000815260040161046a90611df2565b60405180910390fd5b60006002600083815260200190815260200160002060009054906101000a900473ffffffffffffffffffffffffffffffffffffffff1690508073ffffffffffffffffffffffffffffffffffffffff168373ffffffffffffffffffffffffffffffffffffffff16141561051a576040517f08c379a000000000000000000000000000000000000000000000000000000000815260040161051190611e32565b60405180910390fd5b8073ffffffffffffffffffffffffffffffffffffffff163373ffffffffffffffffffffffffffffffffffffffff16148061055a57506105598333610cef565b5b61056357600080fd5b826003600084815260200190815260200160002060006101000a81548173ffffffffffffffffffffffffffffffffffffffff021916908373ffffffffffffffffffffffffffffffffffffffff160217905550818373ffffffffffffffffffffffffffffffffffffffff168273ffffffffffffffffffffffffffffffffffffffff167f8c5be1e5ebec7d5bd14f71427d1e84f3dd0314c0f7b2291e5b200ac8c7c3b92560405160405180910390a4505050565b6000600880549050905090565b60008060149054906101000a900460ff16905090565b600060149054906101000a900460ff1615610688576040517f08c379a000000000000000000000000000000000000000000000000000000000815260040161067f90611df2565b60405180910390fd5b6106923382610e8d565b6106d1576040517f08c379a00000000000000000000000000000000000000000000000000000000081526004016106c890611d72565b60405180910390fd5b6106dc838383610f22565b505050565b60006106ec8361088f565b82106106f757600080fd5b600660008473ffffffffffffffffffffffffffffffffffffffff1673ffffffffffffffffffffffffffffffffffffffff168152602001908152602001600020828154811061076e577f4e487b7100000000000000000000000000000000000000000000000000000000600052603260045260246000fd5b9060005260206000200154905092915050565b600060149054906101000a900460ff16156107d1576040517f08c379a00000000000000000000000000000000000000000000000000000000081526004016107c890611df2565b60405180910390fd5b6107ec83838360405180602001604052806000815250610a8e565b505050565b60006107fb610615565b821061080657600080fd5b60088281548110610840577f4e487b7100000000000000000000000000000000000000000000000000000000600052603260045260246000fd5b90600052602060002001549050919050565b60006002600083815260200190815260200160002060009054906101000a900473ffffffffffffffffffffffffffffffffffffffff169050919050565b60006108d8600460008473ffffffffffffffffffffffffffffffffffffffff1673ffffffffffffffffffffffffffffffffffffffff168152602001908152602001600020610f96565b9050919050565b60008060009054906101000a900473ffffffffffffffffffffffffffffffffffffffff16905090565b600060149054906101000a900460ff1615610958576040517f08c379a000000000000000000000000000000000000000000000000000000000815260040161094f90611df2565b60405180910390fd5b3373ffffffffffffffffffffffffffffffffffffffff168273ffffffffffffffffffffffffffffffffffffffff16141561099157600080fd5b80600560003373ffffffffffffffffffffffffffffffffffffffff1673ffffffffffffffffffffffffffffffffffffffff16815260200190815260200160002060008473ffffffffffffffffffffffffffffffffffffffff1673ffffffffffffffffffffffffffffffffffffffff16815260200190815260200160002060006101000a81548160ff0219169083151502179055508173ffffffffffffffffffffffffffffffffffffffff163373ffffffffffffffffffffffffffffffffffffffff167f17307eab39ab6107e8899845ad3d59bd9653f200f220920489ca2b5937696c3183604051610a829190611d17565b60405180910390a35050565b600060149054906101000a900460ff1615610ade576040517f08c379a0000000000000000000000000000000000000000000000000000000008152600401610ad590611df2565b60405180910390fd5b610ae9848484610638565b610af584848484610fa4565b610afe57600080fd5b50505050565b60008054906101000a900473ffffffffffffffffffffffffffffffffffffffff1673ffffffffffffffffffffffffffffffffffffffff163373ffffffffffffffffffffffffffffffffffffffff1614610b92576040517f08c379a0000000000000000000000000000000000000000000000000000000008152600401610b8990611dd2565b60405180910390fd5b600115158115151480610ba9575060001515811515145b610be8576040517f08c379a0000000000000000000000000000000000000000000000000000000008152600401610bdf90611e12565b60405180910390fd5b801515600060149054906101000a900460ff1615151415610c3e576040517f08c379a0000000000000000000000000000000000000000000000000000000008152600401610c3590611d32565b60405180910390fd5b8015610c9a5780600060146101000a81548160ff0219169083151502179055507f0e2fb031ee032dc02d8011dc50b816eb450cf856abd8261680dac74f72165bd281604051610c8d9190611d17565b60405180910390a1610cec565b80600060146101000a81548160ff0219169083151502179055507fbef695c228e00c57176296d6577586ca18da1cd098f552037934a1ffd0557c2c81604051610ce39190611d17565b60405180910390a15b50565b6000600560008473ffffffffffffffffffffffffffffffffffffffff1673ffffffffffffffffffffffffffffffffffffffff16815260200190815260200160002060008373ffffffffffffffffffffffffffffffffffffffff1673ffffffffffffffffffffffffffffffffffffffff16815260200190815260200160002060009054906101000a900460ff16905092915050565b60008054906101000a900473ffffffffffffffffffffffffffffffffffffffff1673ffffffffffffffffffffffffffffffffffffffff163373ffffffffffffffffffffffffffffffffffffffff1614610e11576040517f08c379a0000000000000000000000000000000000000000000000000000000008152600401610e0890611dd2565b60405180910390fd5b806000806101000a81548173ffffffffffffffffffffffffffffffffffffffff021916908373ffffffffffffffffffffffffffffffffffffffff1602179055507feb38696426b5aa8881f6ba9f2f3e0ac06ee7ea6ffbe944120578d61191ef61018133604051610e82929190611ca2565b60405180910390a150565b600080610e9983610852565b90508073ffffffffffffffffffffffffffffffffffffffff168473ffffffffffffffffffffffffffffffffffffffff161480610f0857508373ffffffffffffffffffffffffffffffffffffffff16610ef0846103e6565b73ffffffffffffffffffffffffffffffffffffffff16145b80610f195750610f188185610cef565b5b91505092915050565b600060149054906101000a900460ff1615610f72576040517f08c379a0000000000000000000000000000000000000000000000000000000008152600401610f6990611df2565b60405180910390fd5b610f7d8383836110bb565b610f87838261133a565b610f918282611563565b505050565b600081600001549050919050565b6000610fc58473ffffffffffffffffffffffffffffffffffffffff16611627565b610fd257600190506110b3565b60008473ffffffffffffffffffffffffffffffffffffffff1663150b7a02338887876040518563ffffffff1660e01b81526004016110139493929190611ccb565b602060405180830381600087803b15801561102d57600080fd5b505af1158015611041573d6000803e3d6000fd5b505050506040513d601f19601f820116820180604052508101906110659190611a94565b905063150b7a0260e01b7bffffffffffffffffffffffffffffffffffffffffffffffffffffffff1916817bffffffffffffffffffffffffffffffffffffffffffffffffffffffff1916149150505b949350505050565b600060149054906101000a900460ff161561110b576040517f08c379a000000000000000000000000000000000000000000000000000000000815260040161110290611df2565b60405180910390fd5b61111481610852565b73ffffffffffffffffffffffffffffffffffffffff168373ffffffffffffffffffffffffffffffffffffffff1614611181576040517f08c379a000000000000000000000000000000000000000000000000000000000815260040161117890611d92565b60405180910390fd5b600073ffffffffffffffffffffffffffffffffffffffff168273ffffffffffffffffffffffffffffffffffffffff1614156111f1576040517f08c379a00000000000000000000000000000000000000000000000000000000081526004016111e890611db2565b60405180910390fd5b6111fa8161164a565b611241600460008573ffffffffffffffffffffffffffffffffffffffff1673ffffffffffffffffffffffffffffffffffffffff168152602001908152602001600020611758565b611288600460008473ffffffffffffffffffffffffffffffffffffffff1673ffffffffffffffffffffffffffffffffffffffff1681526020019081526020016000206117b4565b816002600083815260200190815260200160002060006101000a81548173ffffffffffffffffffffffffffffffffffffffff021916908373ffffffffffffffffffffffffffffffffffffffff160217905550808273ffffffffffffffffffffffffffffffffffffffff168473ffffffffffffffffffffffffffffffffffffffff167fddf252ad1be2c89b69c2b068fc378daa952ba7f163c4a11628f55a4df523b3ef60405160405180910390a4505050565b60006001600660008573ffffffffffffffffffffffffffffffffffffffff1673ffffffffffffffffffffffffffffffffffffffff1681526020019081526020016000208054905061138b9190611ef0565b90506000600760008481526020019081526020016000205490508181146114d2576000600660008673ffffffffffffffffffffffffffffffffffffffff1673ffffffffffffffffffffffffffffffffffffffff1681526020019081526020016000208381548110611425577f4e487b7100000000000000000000000000000000000000000000000000000000600052603260045260246000fd5b9060005260206000200154905080600660008773ffffffffffffffffffffffffffffffffffffffff1673ffffffffffffffffffffffffffffffffffffffff16815260200190815260200160002083815481106114aa577f4e487b7100000000000000000000000000000000000000000000000000000000600052603260045260246000fd5b9060005260206000200181905550816007600083815260200190815260200160002081905550505b600660008573ffffffffffffffffffffffffffffffffffffffff1673ffffffffffffffffffffffffffffffffffffffff168152602001908152602001600020805480611547577f4e487b7100000000000000000000000000000000000000000000000000000000600052603160045260246000fd5b6001900381819060005260206000200160009055905550505050565b600660008373ffffffffffffffffffffffffffffffffffffffff1673ffffffffffffffffffffffffffffffffffffffff168152602001908152602001600020805490506007600083815260200190815260200160002081905550600660008373ffffffffffffffffffffffffffffffffffffffff1673ffffffffffffffffffffffffffffffffffffffff1681526020019081526020016000208190806001815401808255809150506001900390600052602060002001600090919091909150555050565b6000808273ffffffffffffffffffffffffffffffffffffffff163b119050919050565b600060149054906101000a900460ff161561169a576040517f08c379a000000000000000000000000000000000000000000000000000000000815260040161169190611df2565b60405180910390fd5b600073ffffffffffffffffffffffffffffffffffffffff166003600083815260200190815260200160002060009054906101000a900473ffffffffffffffffffffffffffffffffffffffff1673ffffffffffffffffffffffffffffffffffffffff16146117555760006003600083815260200190815260200160002060006101000a81548173ffffffffffffffffffffffffffffffffffffffff021916908373ffffffffffffffffffffffffffffffffffffffff1602179055505b50565b600081600001549050600081116117a4576040517f08c379a000000000000000000000000000000000000000000000000000000000815260040161179b90611d52565b60405180910390fd5b6001810382600001819055505050565b6001816000016000828254019250508190555050565b60006117dd6117d884611e92565b611e6d565b9050828152602081018484840111156117f557600080fd5b611800848285611f98565b509392505050565b600081359050611817816122cf565b92915050565b60008135905061182c816122e6565b92915050565b600081359050611841816122fd565b92915050565b600081519050611856816122fd565b92915050565b600082601f83011261186d57600080fd5b813561187d8482602086016117ca565b91505092915050565b60008135905061189581612314565b92915050565b6000602082840312156118ad57600080fd5b60006118bb84828501611808565b91505092915050565b600080604083850312156118d757600080fd5b60006118e585828601611808565b92505060206118f685828601611808565b9150509250929050565b60008060006060848603121561191557600080fd5b600061192386828701611808565b935050602061193486828701611808565b925050604061194586828701611886565b9150509250925092565b6000806000806080858703121561196557600080fd5b600061197387828801611808565b945050602061198487828801611808565b935050604061199587828801611886565b925050606085013567ffffffffffffffff8111156119b257600080fd5b6119be8782880161185c565b91505092959194509250565b600080604083850312156119dd57600080fd5b60006119eb85828601611808565b92505060206119fc8582860161181d565b9150509250929050565b60008060408385031215611a1957600080fd5b6000611a2785828601611808565b9250506020611a3885828601611886565b9150509250929050565b600060208284031215611a5457600080fd5b6000611a628482850161181d565b91505092915050565b600060208284031215611a7d57600080fd5b6000611a8b84828501611832565b91505092915050565b600060208284031215611aa657600080fd5b6000611ab484828501611847565b91505092915050565b600060208284031215611acf57600080fd5b6000611add84828501611886565b91505092915050565b611aef81611f24565b82525050565b611afe81611f36565b82525050565b6000611b0f82611ec3565b611b198185611ece565b9350611b29818560208601611fa7565b611b3281612069565b840191505092915050565b6000611b4a602583611edf565b9150611b558261207a565b604082019050919050565b6000611b6d601b83611edf565b9150611b78826120c9565b602082019050919050565b6000611b90603c83611edf565b9150611b9b826120f2565b604082019050919050565b6000611bb3602283611edf565b9150611bbe82612141565b604082019050919050565b6000611bd6601a83611edf565b9150611be182612190565b602082019050919050565b6000611bf9603c83611edf565b9150611c04826121b9565b604082019050919050565b6000611c1c603f83611edf565b9150611c2782612208565b604082019050919050565b6000611c3f601e83611edf565b9150611c4a82612257565b602082019050919050565b6000611c62603883611edf565b9150611c6d82612280565b604082019050919050565b611c8181611f8e565b82525050565b6000602082019050611c9c6000830184611ae6565b92915050565b6000604082019050611cb76000830185611ae6565b611cc46020830184611ae6565b9392505050565b6000608082019050611ce06000830187611ae6565b611ced6020830186611ae6565b611cfa6040830185611c78565b8181036060830152611d0c8184611b04565b905095945050505050565b6000602082019050611d2c6000830184611af5565b92915050565b60006020820190508181036000830152611d4b81611b3d565b9050919050565b60006020820190508181036000830152611d6b81611b60565b9050919050565b60006020820190508181036000830152611d8b81611b83565b9050919050565b60006020820190508181036000830152611dab81611ba6565b9050919050565b60006020820190508181036000830152611dcb81611bc9565b9050919050565b60006020820190508181036000830152611deb81611bec565b9050919050565b60006020820190508181036000830152611e0b81611c0f565b9050919050565b60006020820190508181036000830152611e2b81611c32565b9050919050565b60006020820190508181036000830152611e4b81611c55565b9050919050565b6000602082019050611e676000830184611c78565b92915050565b6000611e77611e88565b9050611e838282611fda565b919050565b6000604051905090565b600067ffffffffffffffff821115611ead57611eac61203a565b5b611eb682612069565b9050602081019050919050565b600081519050919050565b600082825260208201905092915050565b600082825260208201905092915050565b6000611efb82611f8e565b9150611f0683611f8e565b925082821015611f1957611f1861200b565b5b828203905092915050565b6000611f2f82611f6e565b9050919050565b60008115159050919050565b60007fffffffff0000000000000000000000000000000000000000000000000000000082169050919050565b600073ffffffffffffffffffffffffffffffffffffffff82169050919050565b6000819050919050565b82818337600083830152505050565b60005b83811015611fc5578082015181840152602081019050611faa565b83811115611fd4576000848401525b50505050565b611fe382612069565b810181811067ffffffffffffffff821117156120025761200161203a565b5b80604052505050565b7f4e487b7100000000000000000000000000000000000000000000000000000000600052601160045260246000fd5b7f4e487b7100000000000000000000000000000000000000000000000000000000600052604160045260246000fd5b6000601f19601f8301169050919050565b7f596f75206d75737420696e697469616c697365206120646966666572656e742060008201527f76616c7565000000000000000000000000000000000000000000000000000000602082015250565b7f436f756e7465723a2064656372656d656e74206f766572666c6f770000000000600082015250565b7f596f75206d75737420626520746865206f776e6572206f7220617070726f766560008201527f6420627920746865206f776e6572206f66207468697320746f6b656e00000000602082015250565b7f596f75206d75737420626520746865206f776e6572206f662074686520746f6b60008201527f656e000000000000000000000000000000000000000000000000000000000000602082015250565b7f4d75737420626520612076616c696420746f2061646472657373000000000000600082015250565b7f596f75206d75737420626520746865206f776e6572206f662074686520636f6e60008201527f747261637420746f20656e74657220746869732066756e6374696f6e00000000602082015250565b7f54686520636f6e74726163742069732063757272656e746c792070617573656460008201527f2c20746869732066756e6374696f6e206973206e6f742063616c6c61626c6500602082015250565b7f796f75206d75737420696e707574206120626f6f6c65616e2076616c75650000600082015250565b7f596f75206d757374206e6f7420626520746865206f776e6572206f662074686560008201527f20746f6b656e20796f752061726520617070726f76696e670000000000000000602082015250565b6122d881611f24565b81146122e357600080fd5b50565b6122ef81611f36565b81146122fa57600080fd5b50565b61230681611f42565b811461231157600080fd5b50565b61231d81611f8e565b811461232857600080fd5b5056fea2646970667358221220082c251e986a6b6c23f5915e47b750721826d2ccb7d62c5171949755b9a1d81c64736f6c63430008040033",
  "linkReferences": {},
  "deployedLinkReferences": {}
}