{
  "_format": "hh-sol-artifact-1",
  "contractName": "ERC721",
  "sourceName": "contracts/ERC721Mintable.sol",
  "abi": [
    {
      "inputs": [],
      "stateMutability": "nonpayable",
      "type": "constructor"
    },
    {
      "anonymous": false,
      "inputs": [
        {
          "indexed": true,
          "internalType": "address",
          "name": "owner",
          "type": "address"
        },
        {
          "indexed": true,
          "internalType": "address",
          "name": "approved",
          "type": "address"
        },
        {
          "indexed": true,
          "internalType": "uint256",
          "name": "tokenId",
          "type": "uint256"
        }
      ],
      "name": "Approval",
      "type": "event"
    },
    {
      "anonymous": false,
      "inputs": [
        {
          "indexed": true,
          "internalType": "address",
          "name": "owner",
          "type": "address"
        },
        {
          "indexed": true,
          "internalType": "address",
          "name": "operator",
          "type": "address"
        },
        {
          "indexed": false,
          "internalType": "bool",
          "name": "approved",
          "type": "bool"
        }
      ],
      "name": "ApprovalForAll",
      "type": "event"
    },
    {
      "anonymous": false,
      "inputs": [
        {
          "indexed": false,
          "internalType": "bool",
          "name": "value",
          "type": "bool"
        }
      ],
      "name": "Paused",
      "type": "event"
    },
    {
      "anonymous": false,
      "inputs": [
        {
          "indexed": true,
          "internalType": "address",
          "name": "from",
          "type": "address"
        },
        {
          "indexed": true,
          "internalType": "address",
          "name": "to",
          "type": "address"
        },
        {
          "indexed": true,
          "internalType": "uint256",
          "name": "tokenId",
          "type": "uint256"
        }
      ],
      "name": "Transfer",
      "type": "event"
    },
    {
      "anonymous": false,
      "inputs": [
        {
          "indexed": false,
          "internalType": "bool",
          "name": "value",
          "type": "bool"
        }
      ],
      "name": "UnPaused",
      "type": "event"
    },
    {
      "anonymous": false,
      "inputs": [
        {
          "indexed": false,
          "internalType": "address",
          "name": "newOwner",
          "type": "address"
        },
        {
          "indexed": false,
          "internalType": "address",
          "name": "oldOwner",
          "type": "address"
        }
      ],
      "name": "ownershipTransfered",
      "type": "event"
    },
    {
      "inputs": [
        {
          "internalType": "address",
          "name": "to",
          "type": "address"
        },
        {
          "internalType": "uint256",
          "name": "tokenId",
          "type": "uint256"
        }
      ],
      "name": "approve",
      "outputs": [],
      "stateMutability": "nonpayable",
      "type": "function"
    },
    {
      "inputs": [
        {
          "internalType": "address",
          "name": "owner",
          "type": "address"
        }
      ],
      "name": "balanceOf",
      "outputs": [
        {
          "internalType": "uint256",
          "name": "",
          "type": "uint256"
        }
      ],
      "stateMutability": "view",
      "type": "function"
    },
    {
      "inputs": [
        {
          "internalType": "uint256",
          "name": "tokenId",
          "type": "uint256"
        }
      ],
      "name": "getApproved",
      "outputs": [
        {
          "internalType": "address",
          "name": "",
          "type": "address"
        }
      ],
      "stateMutability": "view",
      "type": "function"
    },
    {
      "inputs": [],
      "name": "getOwner",
      "outputs": [
        {
          "internalType": "address",
          "name": "",
          "type": "address"
        }
      ],
      "stateMutability": "view",
      "type": "function"
    },
    {
      "inputs": [],
      "name": "getPauseStatus",
      "outputs": [
        {
          "internalType": "bool",
          "name": "status",
          "type": "bool"
        }
      ],
      "stateMutability": "view",
      "type": "function"
    },
    {
      "inputs": [
        {
          "internalType": "address",
          "name": "owner",
          "type": "address"
        },
        {
          "internalType": "address",
          "name": "operator",
          "type": "address"
        }
      ],
      "name": "isApprovedForAll",
      "outputs": [
        {
          "internalType": "bool",
          "name": "",
          "type": "bool"
        }
      ],
      "stateMutability": "view",
      "type": "function"
    },
    {
      "inputs": [
        {
          "internalType": "uint256",
          "name": "tokenId",
          "type": "uint256"
        }
      ],
      "name": "ownerOf",
      "outputs": [
        {
          "internalType": "address",
          "name": "",
          "type": "address"
        }
      ],
      "stateMutability": "view",
      "type": "function"
    },
    {
      "inputs": [
        {
          "internalType": "address",
          "name": "from",
          "type": "address"
        },
        {
          "internalType": "address",
          "name": "to",
          "type": "address"
        },
        {
          "internalType": "uint256",
          "name": "tokenId",
          "type": "uint256"
        }
      ],
      "name": "safeTransferFrom",
      "outputs": [],
      "stateMutability": "nonpayable",
      "type": "function"
    },
    {
      "inputs": [
        {
          "internalType": "address",
          "name": "from",
          "type": "address"
        },
        {
          "internalType": "address",
          "name": "to",
          "type": "address"
        },
        {
          "internalType": "uint256",
          "name": "tokenId",
          "type": "uint256"
        },
        {
          "internalType": "bytes",
          "name": "_data",
          "type": "bytes"
        }
      ],
      "name": "safeTransferFrom",
      "outputs": [],
      "stateMutability": "nonpayable",
      "type": "function"
    },
    {
      "inputs": [
        {
          "internalType": "address",
          "name": "to",
          "type": "address"
        },
        {
          "internalType": "bool",
          "name": "approved",
          "type": "bool"
        }
      ],
      "name": "setApprovalForAll",
      "outputs": [],
      "stateMutability": "nonpayable",
      "type": "function"
    },
    {
      "inputs": [
        {
          "internalType": "bool",
          "name": "_value",
          "type": "bool"
        }
      ],
      "name": "setPauseStatus",
      "outputs": [],
      "stateMutability": "nonpayable",
      "type": "function"
    },
    {
      "inputs": [
        {
          "internalType": "bytes4",
          "name": "interfaceId",
          "type": "bytes4"
        }
      ],
      "name": "supportsInterface",
      "outputs": [
        {
          "internalType": "bool",
          "name": "",
          "type": "bool"
        }
      ],
      "stateMutability": "view",
      "type": "function"
    },
    {
      "inputs": [
        {
          "internalType": "address",
          "name": "from",
          "type": "address"
        },
        {
          "internalType": "address",
          "name": "to",
          "type": "address"
        },
        {
          "internalType": "uint256",
          "name": "tokenId",
          "type": "uint256"
        }
      ],
      "name": "transferFrom",
      "outputs": [],
      "stateMutability": "nonpayable",
      "type": "function"
    },
    {
      "inputs": [
        {
          "internalType": "address",
          "name": "_newOwner",
          "type": "address"
        }
      ],
      "name": "transferOwnership",
      "outputs": [],
      "stateMutability": "nonpayable",
      "type": "function"
    }
  ],
  "bytecode": "0x608060405234801561001057600080fd5b50336000806101000a81548173ffffffffffffffffffffffffffffffffffffffff021916908373ffffffffffffffffffffffffffffffffffffffff16021790555060008060146101000a81548160ff0219169083151502179055506100816301ffc9a760e01b61009c60201b60201c565b6100976380ac58cd60e01b61009c60201b60201c565b61013b565b63ffffffff60e01b817bffffffffffffffffffffffffffffffffffffffffffffffffffffffff191614156100cf57600080fd5b6001806000837bffffffffffffffffffffffffffffffffffffffffffffffffffffffff19167bffffffffffffffffffffffffffffffffffffffffffffffffffffffff1916815260200190815260200160002060006101000a81548160ff02191690831515021790555050565b611df0806200014b6000396000f3fe608060405234801561001057600080fd5b50600436106100ea5760003560e01c806370a082311161008c578063b88d4fde11610066578063b88d4fde1461025b578063c38bb53714610277578063e985e9c514610293578063f2fde38b146102c3576100ea565b806370a08231146101f1578063893d20e814610221578063a22cb4651461023f576100ea565b80631d9023cb116100c85780631d9023cb1461016b57806323b872dd1461018957806342842e0e146101a55780636352211e146101c1576100ea565b806301ffc9a7146100ef578063081812fc1461011f578063095ea7b31461014f575b600080fd5b6101096004803603810190610104919061155d565b6102df565b6040516101169190611809565b60405180910390f35b610139600480360381019061013491906115af565b610347565b6040516101469190611779565b60405180910390f35b610169600480360381019061016491906114f8565b610384565b005b610173610576565b6040516101809190611809565b60405180910390f35b6101a3600480360381019061019e91906113f2565b61058c565b005b6101bf60048036038101906101ba91906113f2565b610635565b005b6101db60048036038101906101d691906115af565b6106a5565b6040516101e89190611779565b60405180910390f35b61020b6004803603810190610206919061138d565b6106e2565b6040516102189190611944565b60405180910390f35b610229610732565b6040516102369190611779565b60405180910390f35b610259600480360381019061025491906114bc565b61075b565b005b61027560048036038101906102709190611441565b6108e1565b005b610291600480360381019061028c9190611534565b610957565b005b6102ad60048036038101906102a891906113b6565b610b42565b6040516102ba9190611809565b60405180910390f35b6102dd60048036038101906102d8919061138d565b610bd6565b005b600060016000837bffffffffffffffffffffffffffffffffffffffffffffffffffffffff19167bffffffffffffffffffffffffffffffffffffffffffffffffffffffff1916815260200190815260200160002060009054906101000a900460ff169050919050565b60006003600083815260200190815260200160002060009054906101000a900473ffffffffffffffffffffffffffffffffffffffff169050919050565b600060149054906101000a900460ff16156103d4576040517f08c379a00000000000000000000000000000000000000000000000000000000081526004016103cb906118e4565b60405180910390fd5b60006002600083815260200190815260200160002060009054906101000a900473ffffffffffffffffffffffffffffffffffffffff1690508073ffffffffffffffffffffffffffffffffffffffff168373ffffffffffffffffffffffffffffffffffffffff16141561047b576040517f08c379a000000000000000000000000000000000000000000000000000000000815260040161047290611924565b60405180910390fd5b8073ffffffffffffffffffffffffffffffffffffffff163373ffffffffffffffffffffffffffffffffffffffff1614806104bb57506104ba8333610b42565b5b6104c457600080fd5b826003600084815260200190815260200160002060006101000a81548173ffffffffffffffffffffffffffffffffffffffff021916908373ffffffffffffffffffffffffffffffffffffffff160217905550818373ffffffffffffffffffffffffffffffffffffffff168273ffffffffffffffffffffffffffffffffffffffff167f8c5be1e5ebec7d5bd14f71427d1e84f3dd0314c0f7b2291e5b200ac8c7c3b92560405160405180910390a4505050565b60008060149054906101000a900460ff16905090565b600060149054906101000a900460ff16156105dc576040517f08c379a00000000000000000000000000000000000000000000000000000000081526004016105d3906118e4565b60405180910390fd5b6105e63382610ce0565b610625576040517f08c379a000000000000000000000000000000000000000000000000000000000815260040161061c90611864565b60405180910390fd5b610630838383610d75565b505050565b600060149054906101000a900460ff1615610685576040517f08c379a000000000000000000000000000000000000000000000000000000000815260040161067c906118e4565b60405180910390fd5b6106a0838383604051806020016040528060008152506108e1565b505050565b60006002600083815260200190815260200160002060009054906101000a900473ffffffffffffffffffffffffffffffffffffffff169050919050565b600061072b600460008473ffffffffffffffffffffffffffffffffffffffff1673ffffffffffffffffffffffffffffffffffffffff168152602001908152602001600020610ff4565b9050919050565b60008060009054906101000a900473ffffffffffffffffffffffffffffffffffffffff16905090565b600060149054906101000a900460ff16156107ab576040517f08c379a00000000000000000000000000000000000000000000000000000000081526004016107a2906118e4565b60405180910390fd5b3373ffffffffffffffffffffffffffffffffffffffff168273ffffffffffffffffffffffffffffffffffffffff1614156107e457600080fd5b80600560003373ffffffffffffffffffffffffffffffffffffffff1673ffffffffffffffffffffffffffffffffffffffff16815260200190815260200160002060008473ffffffffffffffffffffffffffffffffffffffff1673ffffffffffffffffffffffffffffffffffffffff16815260200190815260200160002060006101000a81548160ff0219169083151502179055508173ffffffffffffffffffffffffffffffffffffffff163373ffffffffffffffffffffffffffffffffffffffff167f17307eab39ab6107e8899845ad3d59bd9653f200f220920489ca2b5937696c31836040516108d59190611809565b60405180910390a35050565b600060149054906101000a900460ff1615610931576040517f08c379a0000000000000000000000000000000000000000000000000000000008152600401610928906118e4565b60405180910390fd5b61093c84848461058c565b61094884848484611002565b61095157600080fd5b50505050565b60008054906101000a900473ffffffffffffffffffffffffffffffffffffffff1673ffffffffffffffffffffffffffffffffffffffff163373ffffffffffffffffffffffffffffffffffffffff16146109e5576040517f08c379a00000000000000000000000000000000000000000000000000000000081526004016109dc906118c4565b60405180910390fd5b6001151581151514806109fc575060001515811515145b610a3b576040517f08c379a0000000000000000000000000000000000000000000000000000000008152600401610a3290611904565b60405180910390fd5b801515600060149054906101000a900460ff1615151415610a91576040517f08c379a0000000000000000000000000000000000000000000000000000000008152600401610a8890611824565b60405180910390fd5b8015610aed5780600060146101000a81548160ff0219169083151502179055507f0e2fb031ee032dc02d8011dc50b816eb450cf856abd8261680dac74f72165bd281604051610ae09190611809565b60405180910390a1610b3f565b80600060146101000a81548160ff0219169083151502179055507fbef695c228e00c57176296d6577586ca18da1cd098f552037934a1ffd0557c2c81604051610b369190611809565b60405180910390a15b50565b6000600560008473ffffffffffffffffffffffffffffffffffffffff1673ffffffffffffffffffffffffffffffffffffffff16815260200190815260200160002060008373ffffffffffffffffffffffffffffffffffffffff1673ffffffffffffffffffffffffffffffffffffffff16815260200190815260200160002060009054906101000a900460ff16905092915050565b60008054906101000a900473ffffffffffffffffffffffffffffffffffffffff1673ffffffffffffffffffffffffffffffffffffffff163373ffffffffffffffffffffffffffffffffffffffff1614610c64576040517f08c379a0000000000000000000000000000000000000000000000000000000008152600401610c5b906118c4565b60405180910390fd5b806000806101000a81548173ffffffffffffffffffffffffffffffffffffffff021916908373ffffffffffffffffffffffffffffffffffffffff1602179055507feb38696426b5aa8881f6ba9f2f3e0ac06ee7ea6ffbe944120578d61191ef61018133604051610cd5929190611794565b60405180910390a150565b600080610cec836106a5565b90508073ffffffffffffffffffffffffffffffffffffffff168473ffffffffffffffffffffffffffffffffffffffff161480610d5b57508373ffffffffffffffffffffffffffffffffffffffff16610d4384610347565b73ffffffffffffffffffffffffffffffffffffffff16145b80610d6c5750610d6b8185610b42565b5b91505092915050565b600060149054906101000a900460ff1615610dc5576040517f08c379a0000000000000000000000000000000000000000000000000000000008152600401610dbc906118e4565b60405180910390fd5b610dce816106a5565b73ffffffffffffffffffffffffffffffffffffffff168373ffffffffffffffffffffffffffffffffffffffff1614610e3b576040517f08c379a0000000000000000000000000000000000000000000000000000000008152600401610e3290611884565b60405180910390fd5b600073ffffffffffffffffffffffffffffffffffffffff168273ffffffffffffffffffffffffffffffffffffffff161415610eab576040517f08c379a0000000000000000000000000000000000000000000000000000000008152600401610ea2906118a4565b60405180910390fd5b610eb481611119565b610efb600460008573ffffffffffffffffffffffffffffffffffffffff1673ffffffffffffffffffffffffffffffffffffffff168152602001908152602001600020611227565b610f42600460008473ffffffffffffffffffffffffffffffffffffffff1673ffffffffffffffffffffffffffffffffffffffff168152602001908152602001600020611283565b816002600083815260200190815260200160002060006101000a81548173ffffffffffffffffffffffffffffffffffffffff021916908373ffffffffffffffffffffffffffffffffffffffff160217905550808273ffffffffffffffffffffffffffffffffffffffff168473ffffffffffffffffffffffffffffffffffffffff167fddf252ad1be2c89b69c2b068fc378daa952ba7f163c4a11628f55a4df523b3ef60405160405180910390a4505050565b600081600001549050919050565b60006110238473ffffffffffffffffffffffffffffffffffffffff16611299565b6110305760019050611111565b60008473ffffffffffffffffffffffffffffffffffffffff1663150b7a02338887876040518563ffffffff1660e01b815260040161107194939291906117bd565b602060405180830381600087803b15801561108b57600080fd5b505af115801561109f573d6000803e3d6000fd5b505050506040513d601f19601f820116820180604052508101906110c39190611586565b905063150b7a0260e01b7bffffffffffffffffffffffffffffffffffffffffffffffffffffffff1916817bffffffffffffffffffffffffffffffffffffffffffffffffffffffff1916149150505b949350505050565b600060149054906101000a900460ff1615611169576040517f08c379a0000000000000000000000000000000000000000000000000000000008152600401611160906118e4565b60405180910390fd5b600073ffffffffffffffffffffffffffffffffffffffff166003600083815260200190815260200160002060009054906101000a900473ffffffffffffffffffffffffffffffffffffffff1673ffffffffffffffffffffffffffffffffffffffff16146112245760006003600083815260200190815260200160002060006101000a81548173ffffffffffffffffffffffffffffffffffffffff021916908373ffffffffffffffffffffffffffffffffffffffff1602179055505b50565b60008160000154905060008111611273576040517f08c379a000000000000000000000000000000000000000000000000000000000815260040161126a90611844565b60405180910390fd5b6001810382600001819055505050565b6001816000016000828254019250508190555050565b6000808273ffffffffffffffffffffffffffffffffffffffff163b119050919050565b60006112cf6112ca84611984565b61195f565b9050828152602081018484840111156112e757600080fd5b6112f2848285611a56565b509392505050565b60008135905061130981611d5e565b92915050565b60008135905061131e81611d75565b92915050565b60008135905061133381611d8c565b92915050565b60008151905061134881611d8c565b92915050565b600082601f83011261135f57600080fd5b813561136f8482602086016112bc565b91505092915050565b60008135905061138781611da3565b92915050565b60006020828403121561139f57600080fd5b60006113ad848285016112fa565b91505092915050565b600080604083850312156113c957600080fd5b60006113d7858286016112fa565b92505060206113e8858286016112fa565b9150509250929050565b60008060006060848603121561140757600080fd5b6000611415868287016112fa565b9350506020611426868287016112fa565b925050604061143786828701611378565b9150509250925092565b6000806000806080858703121561145757600080fd5b6000611465878288016112fa565b9450506020611476878288016112fa565b935050604061148787828801611378565b925050606085013567ffffffffffffffff8111156114a457600080fd5b6114b08782880161134e565b91505092959194509250565b600080604083850312156114cf57600080fd5b60006114dd858286016112fa565b92505060206114ee8582860161130f565b9150509250929050565b6000806040838503121561150b57600080fd5b6000611519858286016112fa565b925050602061152a85828601611378565b9150509250929050565b60006020828403121561154657600080fd5b60006115548482850161130f565b91505092915050565b60006020828403121561156f57600080fd5b600061157d84828501611324565b91505092915050565b60006020828403121561159857600080fd5b60006115a684828501611339565b91505092915050565b6000602082840312156115c157600080fd5b60006115cf84828501611378565b91505092915050565b6115e1816119e2565b82525050565b6115f0816119f4565b82525050565b6000611601826119b5565b61160b81856119c0565b935061161b818560208601611a65565b61162481611af8565b840191505092915050565b600061163c6025836119d1565b915061164782611b09565b604082019050919050565b600061165f601b836119d1565b915061166a82611b58565b602082019050919050565b6000611682603c836119d1565b915061168d82611b81565b604082019050919050565b60006116a56022836119d1565b91506116b082611bd0565b604082019050919050565b60006116c8601a836119d1565b91506116d382611c1f565b602082019050919050565b60006116eb603c836119d1565b91506116f682611c48565b604082019050919050565b600061170e603f836119d1565b915061171982611c97565b604082019050919050565b6000611731601e836119d1565b915061173c82611ce6565b602082019050919050565b60006117546038836119d1565b915061175f82611d0f565b604082019050919050565b61177381611a4c565b82525050565b600060208201905061178e60008301846115d8565b92915050565b60006040820190506117a960008301856115d8565b6117b660208301846115d8565b9392505050565b60006080820190506117d260008301876115d8565b6117df60208301866115d8565b6117ec604083018561176a565b81810360608301526117fe81846115f6565b905095945050505050565b600060208201905061181e60008301846115e7565b92915050565b6000602082019050818103600083015261183d8161162f565b9050919050565b6000602082019050818103600083015261185d81611652565b9050919050565b6000602082019050818103600083015261187d81611675565b9050919050565b6000602082019050818103600083015261189d81611698565b9050919050565b600060208201905081810360008301526118bd816116bb565b9050919050565b600060208201905081810360008301526118dd816116de565b9050919050565b600060208201905081810360008301526118fd81611701565b9050919050565b6000602082019050818103600083015261191d81611724565b9050919050565b6000602082019050818103600083015261193d81611747565b9050919050565b6000602082019050611959600083018461176a565b92915050565b600061196961197a565b90506119758282611a98565b919050565b6000604051905090565b600067ffffffffffffffff82111561199f5761199e611ac9565b5b6119a882611af8565b9050602081019050919050565b600081519050919050565b600082825260208201905092915050565b600082825260208201905092915050565b60006119ed82611a2c565b9050919050565b60008115159050919050565b60007fffffffff0000000000000000000000000000000000000000000000000000000082169050919050565b600073ffffffffffffffffffffffffffffffffffffffff82169050919050565b6000819050919050565b82818337600083830152505050565b60005b83811015611a83578082015181840152602081019050611a68565b83811115611a92576000848401525b50505050565b611aa182611af8565b810181811067ffffffffffffffff82111715611ac057611abf611ac9565b5b80604052505050565b7f4e487b7100000000000000000000000000000000000000000000000000000000600052604160045260246000fd5b6000601f19601f8301169050919050565b7f596f75206d75737420696e697469616c697365206120646966666572656e742060008201527f76616c7565000000000000000000000000000000000000000000000000000000602082015250565b7f436f756e7465723a2064656372656d656e74206f766572666c6f770000000000600082015250565b7f596f75206d75737420626520746865206f776e6572206f7220617070726f766560008201527f6420627920746865206f776e6572206f66207468697320746f6b656e00000000602082015250565b7f596f75206d75737420626520746865206f776e6572206f662074686520746f6b60008201527f656e000000000000000000000000000000000000000000000000000000000000602082015250565b7f4d75737420626520612076616c696420746f2061646472657373000000000000600082015250565b7f596f75206d75737420626520746865206f776e6572206f662074686520636f6e60008201527f747261637420746f20656e74657220746869732066756e6374696f6e00000000602082015250565b7f54686520636f6e74726163742069732063757272656e746c792070617573656460008201527f2c20746869732066756e6374696f6e206973206e6f742063616c6c61626c6500602082015250565b7f796f75206d75737420696e707574206120626f6f6c65616e2076616c75650000600082015250565b7f596f75206d757374206e6f7420626520746865206f776e6572206f662074686560008201527f20746f6b656e20796f752061726520617070726f76696e670000000000000000602082015250565b611d67816119e2565b8114611d7257600080fd5b50565b611d7e816119f4565b8114611d8957600080fd5b50565b611d9581611a00565b8114611da057600080fd5b50565b611dac81611a4c565b8114611db757600080fd5b5056fea2646970667358221220c249119f5475f58aacfb1b4f892e331ec39b87415eca259f8c062527dec5a14964736f6c63430008040033",
  "linkReferences": {},
  "deployedLinkReferences": {}
}