{
  "_format": "hh-sol-artifact-1",
  "contractName": "ERC721Enumerable",
  "sourceName": "contracts/ERC721Mintable.sol",
  "abi": [
    {
      "inputs": [],
      "stateMutability": "nonpayable",
      "type": "constructor"
    },
    {
      "anonymous": false,
      "inputs": [
        {
          "indexed": true,
          "internalType": "address",
          "name": "owner",
          "type": "address"
        },
        {
          "indexed": true,
          "internalType": "address",
          "name": "approved",
          "type": "address"
        },
        {
          "indexed": true,
          "internalType": "uint256",
          "name": "tokenId",
          "type": "uint256"
        }
      ],
      "name": "Approval",
      "type": "event"
    },
    {
      "anonymous": false,
      "inputs": [
        {
          "indexed": true,
          "internalType": "address",
          "name": "owner",
          "type": "address"
        },
        {
          "indexed": true,
          "internalType": "address",
          "name": "operator",
          "type": "address"
        },
        {
          "indexed": false,
          "internalType": "bool",
          "name": "approved",
          "type": "bool"
        }
      ],
      "name": "ApprovalForAll",
      "type": "event"
    },
    {
      "anonymous": false,
      "inputs": [
        {
          "indexed": false,
          "internalType": "address",
          "name": "initiator",
          "type": "address"
        },
        {
          "indexed": false,
          "internalType": "bool",
          "name": "value",
          "type": "bool"
        }
      ],
      "name": "Paused",
      "type": "event"
    },
    {
      "anonymous": false,
      "inputs": [
        {
          "indexed": true,
          "internalType": "address",
          "name": "from",
          "type": "address"
        },
        {
          "indexed": true,
          "internalType": "address",
          "name": "to",
          "type": "address"
        },
        {
          "indexed": true,
          "internalType": "uint256",
          "name": "tokenId",
          "type": "uint256"
        }
      ],
      "name": "Transfer",
      "type": "event"
    },
    {
      "anonymous": false,
      "inputs": [
        {
          "indexed": false,
          "internalType": "address",
          "name": "initiator",
          "type": "address"
        },
        {
          "indexed": false,
          "internalType": "bool",
          "name": "value",
          "type": "bool"
        }
      ],
      "name": "UnPaused",
      "type": "event"
    },
    {
      "anonymous": false,
      "inputs": [
        {
          "indexed": false,
          "internalType": "address",
          "name": "newOwner",
          "type": "address"
        },
        {
          "indexed": false,
          "internalType": "address",
          "name": "oldOwner",
          "type": "address"
        }
      ],
      "name": "ownershipTransfered",
      "type": "event"
    },
    {
      "inputs": [
        {
          "internalType": "address",
          "name": "to",
          "type": "address"
        },
        {
          "internalType": "uint256",
          "name": "tokenId",
          "type": "uint256"
        }
      ],
      "name": "approve",
      "outputs": [],
      "stateMutability": "nonpayable",
      "type": "function"
    },
    {
      "inputs": [
        {
          "internalType": "address",
          "name": "owner",
          "type": "address"
        }
      ],
      "name": "balanceOf",
      "outputs": [
        {
          "internalType": "uint256",
          "name": "",
          "type": "uint256"
        }
      ],
      "stateMutability": "view",
      "type": "function"
    },
    {
      "inputs": [
        {
          "internalType": "uint256",
          "name": "tokenId",
          "type": "uint256"
        }
      ],
      "name": "getApproved",
      "outputs": [
        {
          "internalType": "address",
          "name": "",
          "type": "address"
        }
      ],
      "stateMutability": "view",
      "type": "function"
    },
    {
      "inputs": [],
      "name": "getOwner",
      "outputs": [
        {
          "internalType": "address",
          "name": "",
          "type": "address"
        }
      ],
      "stateMutability": "view",
      "type": "function"
    },
    {
      "inputs": [],
      "name": "getPauseStatus",
      "outputs": [
        {
          "internalType": "bool",
          "name": "status",
          "type": "bool"
        }
      ],
      "stateMutability": "view",
      "type": "function"
    },
    {
      "inputs": [
        {
          "internalType": "address",
          "name": "owner",
          "type": "address"
        },
        {
          "internalType": "address",
          "name": "operator",
          "type": "address"
        }
      ],
      "name": "isApprovedForAll",
      "outputs": [
        {
          "internalType": "bool",
          "name": "",
          "type": "bool"
        }
      ],
      "stateMutability": "view",
      "type": "function"
    },
    {
      "inputs": [
        {
          "internalType": "uint256",
          "name": "tokenId",
          "type": "uint256"
        }
      ],
      "name": "ownerOf",
      "outputs": [
        {
          "internalType": "address",
          "name": "",
          "type": "address"
        }
      ],
      "stateMutability": "view",
      "type": "function"
    },
    {
      "inputs": [
        {
          "internalType": "address",
          "name": "from",
          "type": "address"
        },
        {
          "internalType": "address",
          "name": "to",
          "type": "address"
        },
        {
          "internalType": "uint256",
          "name": "tokenId",
          "type": "uint256"
        }
      ],
      "name": "safeTransferFrom",
      "outputs": [],
      "stateMutability": "nonpayable",
      "type": "function"
    },
    {
      "inputs": [
        {
          "internalType": "address",
          "name": "from",
          "type": "address"
        },
        {
          "internalType": "address",
          "name": "to",
          "type": "address"
        },
        {
          "internalType": "uint256",
          "name": "tokenId",
          "type": "uint256"
        },
        {
          "internalType": "bytes",
          "name": "_data",
          "type": "bytes"
        }
      ],
      "name": "safeTransferFrom",
      "outputs": [],
      "stateMutability": "nonpayable",
      "type": "function"
    },
    {
      "inputs": [
        {
          "internalType": "address",
          "name": "to",
          "type": "address"
        },
        {
          "internalType": "bool",
          "name": "approved",
          "type": "bool"
        }
      ],
      "name": "setApprovalForAll",
      "outputs": [],
      "stateMutability": "nonpayable",
      "type": "function"
    },
    {
      "inputs": [
        {
          "internalType": "bool",
          "name": "_value",
          "type": "bool"
        }
      ],
      "name": "setPauseStatus",
      "outputs": [],
      "stateMutability": "nonpayable",
      "type": "function"
    },
    {
      "inputs": [
        {
          "internalType": "bytes4",
          "name": "interfaceId",
          "type": "bytes4"
        }
      ],
      "name": "supportsInterface",
      "outputs": [
        {
          "internalType": "bool",
          "name": "",
          "type": "bool"
        }
      ],
      "stateMutability": "view",
      "type": "function"
    },
    {
      "inputs": [
        {
          "internalType": "uint256",
          "name": "index",
          "type": "uint256"
        }
      ],
      "name": "tokenByIndex",
      "outputs": [
        {
          "internalType": "uint256",
          "name": "",
          "type": "uint256"
        }
      ],
      "stateMutability": "view",
      "type": "function"
    },
    {
      "inputs": [
        {
          "internalType": "address",
          "name": "owner",
          "type": "address"
        },
        {
          "internalType": "uint256",
          "name": "index",
          "type": "uint256"
        }
      ],
      "name": "tokenOfOwnerByIndex",
      "outputs": [
        {
          "internalType": "uint256",
          "name": "",
          "type": "uint256"
        }
      ],
      "stateMutability": "view",
      "type": "function"
    },
    {
      "inputs": [],
      "name": "totalSupply",
      "outputs": [
        {
          "internalType": "uint256",
          "name": "",
          "type": "uint256"
        }
      ],
      "stateMutability": "view",
      "type": "function"
    },
    {
      "inputs": [
        {
          "internalType": "address",
          "name": "from",
          "type": "address"
        },
        {
          "internalType": "address",
          "name": "to",
          "type": "address"
        },
        {
          "internalType": "uint256",
          "name": "tokenId",
          "type": "uint256"
        }
      ],
      "name": "transferFrom",
      "outputs": [],
      "stateMutability": "nonpayable",
      "type": "function"
    },
    {
      "inputs": [
        {
          "internalType": "address",
          "name": "_newOwner",
          "type": "address"
        }
      ],
      "name": "transferOwnership",
      "outputs": [],
      "stateMutability": "nonpayable",
      "type": "function"
    }
  ],
  "bytecode": "0x60806040523480156200001157600080fd5b50336000806101000a81548173ffffffffffffffffffffffffffffffffffffffff021916908373ffffffffffffffffffffffffffffffffffffffff16021790555060008060146101000a81548160ff021916908315150217905550620000846301ffc9a760e01b620000ba60201b60201c565b6200009c6380ac58cd60e01b620000ba60201b60201c565b620000b463780e9d6360e01b620000ba60201b60201c565b6200015a565b63ffffffff60e01b817bffffffffffffffffffffffffffffffffffffffffffffffffffffffff19161415620000ee57600080fd5b6001806000837bffffffffffffffffffffffffffffffffffffffffffffffffffffffff19167bffffffffffffffffffffffffffffffffffffffffffffffffffffffff1916815260200190815260200160002060006101000a81548160ff02191690831515021790555050565b61207c806200016a6000396000f3fe608060405234801561001057600080fd5b506004361061010b5760003560e01c80634f6ccce7116100a2578063a22cb46511610071578063a22cb465146102de578063b88d4fde146102fa578063c38bb53714610316578063e985e9c514610332578063f2fde38b146103625761010b565b80634f6ccce7146102305780636352211e1461026057806370a0823114610290578063893d20e8146102c05761010b565b80631d9023cb116100de5780631d9023cb146101aa57806323b872dd146101c85780632f745c59146101e457806342842e0e146102145761010b565b806301ffc9a714610110578063081812fc14610140578063095ea7b31461017057806318160ddd1461018c575b600080fd5b61012a600480360381019061012591906117ef565b61037e565b6040516101379190611aa1565b60405180910390f35b61015a60048036038101906101559190611841565b6103e6565b60405161016791906119e8565b60405180910390f35b61018a6004803603810190610185919061178a565b610423565b005b6101946105c5565b6040516101a19190611bbc565b60405180910390f35b6101b26105d2565b6040516101bf9190611aa1565b60405180910390f35b6101e260048036038101906101dd9190611684565b6105e8565b005b6101fe60048036038101906101f9919061178a565b610641565b60405161020b9190611bbc565b60405180910390f35b61022e60048036038101906102299190611684565b6106e1565b005b61024a60048036038101906102459190611841565b610701565b6040516102579190611bbc565b60405180910390f35b61027a60048036038101906102759190611841565b610762565b60405161028791906119e8565b60405180910390f35b6102aa60048036038101906102a5919061161f565b61079f565b6040516102b79190611bbc565b60405180910390f35b6102c86107ef565b6040516102d591906119e8565b60405180910390f35b6102f860048036038101906102f3919061174e565b610818565b005b610314600480360381019061030f91906116d3565b61094e565b005b610330600480360381019061032b91906117c6565b610974565b005b61034c60048036038101906103479190611648565b610b63565b6040516103599190611aa1565b60405180910390f35b61037c6004803603810190610377919061161f565b610bf7565b005b600060016000837bffffffffffffffffffffffffffffffffffffffffffffffffffffffff19167bffffffffffffffffffffffffffffffffffffffffffffffffffffffff1916815260200190815260200160002060009054906101000a900460ff169050919050565b60006003600083815260200190815260200160002060009054906101000a900473ffffffffffffffffffffffffffffffffffffffff169050919050565b60006002600083815260200190815260200160002060009054906101000a900473ffffffffffffffffffffffffffffffffffffffff1690508073ffffffffffffffffffffffffffffffffffffffff168373ffffffffffffffffffffffffffffffffffffffff1614156104ca576040517f08c379a00000000000000000000000000000000000000000000000000000000081526004016104c190611b7c565b60405180910390fd5b8073ffffffffffffffffffffffffffffffffffffffff163373ffffffffffffffffffffffffffffffffffffffff16148061050a57506105098333610b63565b5b61051357600080fd5b826003600084815260200190815260200160002060006101000a81548173ffffffffffffffffffffffffffffffffffffffff021916908373ffffffffffffffffffffffffffffffffffffffff160217905550818373ffffffffffffffffffffffffffffffffffffffff168273ffffffffffffffffffffffffffffffffffffffff167f8c5be1e5ebec7d5bd14f71427d1e84f3dd0314c0f7b2291e5b200ac8c7c3b92560405160405180910390a4505050565b6000600880549050905090565b60008060149054906101000a900460ff16905090565b6105f23382610d01565b610631576040517f08c379a000000000000000000000000000000000000000000000000000000000815260040161062890611adc565b60405180910390fd5b61063c838383610d96565b505050565b600061064c8361079f565b821061065757600080fd5b600660008473ffffffffffffffffffffffffffffffffffffffff1673ffffffffffffffffffffffffffffffffffffffff16815260200190815260200160002082815481106106ce577f4e487b7100000000000000000000000000000000000000000000000000000000600052603260045260246000fd5b9060005260206000200154905092915050565b6106fc8383836040518060200160405280600081525061094e565b505050565b600061070b6105c5565b821061071657600080fd5b60088281548110610750577f4e487b7100000000000000000000000000000000000000000000000000000000600052603260045260246000fd5b90600052602060002001549050919050565b60006002600083815260200190815260200160002060009054906101000a900473ffffffffffffffffffffffffffffffffffffffff169050919050565b60006107e8600460008473ffffffffffffffffffffffffffffffffffffffff1673ffffffffffffffffffffffffffffffffffffffff168152602001908152602001600020610dba565b9050919050565b60008060009054906101000a900473ffffffffffffffffffffffffffffffffffffffff16905090565b3373ffffffffffffffffffffffffffffffffffffffff168273ffffffffffffffffffffffffffffffffffffffff16141561085157600080fd5b80600560003373ffffffffffffffffffffffffffffffffffffffff1673ffffffffffffffffffffffffffffffffffffffff16815260200190815260200160002060008473ffffffffffffffffffffffffffffffffffffffff1673ffffffffffffffffffffffffffffffffffffffff16815260200190815260200160002060006101000a81548160ff0219169083151502179055508173ffffffffffffffffffffffffffffffffffffffff163373ffffffffffffffffffffffffffffffffffffffff167f17307eab39ab6107e8899845ad3d59bd9653f200f220920489ca2b5937696c31836040516109429190611aa1565b60405180910390a35050565b6109598484846105e8565b61096584848484610dc8565b61096e57600080fd5b50505050565b60008054906101000a900473ffffffffffffffffffffffffffffffffffffffff1673ffffffffffffffffffffffffffffffffffffffff163373ffffffffffffffffffffffffffffffffffffffff1614610a02576040517f08c379a00000000000000000000000000000000000000000000000000000000081526004016109f990611b3c565b60405180910390fd5b600115158115151480610a19575060001515811515145b610a58576040517f08c379a0000000000000000000000000000000000000000000000000000000008152600401610a4f90611b5c565b60405180910390fd5b801515600060149054906101000a900460ff1615151415610aae576040517f08c379a0000000000000000000000000000000000000000000000000000000008152600401610aa590611b9c565b60405180910390fd5b8015610b0c5780600060146101000a81548160ff0219169083151502179055507fe8699cf681560fd07de85543bd994263f4557bdc5179dd702f256d15fd083e1d3382604051610aff929190611a78565b60405180910390a1610b60565b80600060146101000a81548160ff0219169083151502179055507f7e33492b866dc3a8907fa6d980cd33332afb0d044cf12c0005fabd6b0aa77bff3382604051610b57929190611a78565b60405180910390a15b50565b6000600560008473ffffffffffffffffffffffffffffffffffffffff1673ffffffffffffffffffffffffffffffffffffffff16815260200190815260200160002060008373ffffffffffffffffffffffffffffffffffffffff1673ffffffffffffffffffffffffffffffffffffffff16815260200190815260200160002060009054906101000a900460ff16905092915050565b60008054906101000a900473ffffffffffffffffffffffffffffffffffffffff1673ffffffffffffffffffffffffffffffffffffffff163373ffffffffffffffffffffffffffffffffffffffff1614610c85576040517f08c379a0000000000000000000000000000000000000000000000000000000008152600401610c7c90611b3c565b60405180910390fd5b806000806101000a81548173ffffffffffffffffffffffffffffffffffffffff021916908373ffffffffffffffffffffffffffffffffffffffff1602179055507feb38696426b5aa8881f6ba9f2f3e0ac06ee7ea6ffbe944120578d61191ef61018133604051610cf6929190611a03565b60405180910390a150565b600080610d0d83610762565b90508073ffffffffffffffffffffffffffffffffffffffff168473ffffffffffffffffffffffffffffffffffffffff161480610d7c57508373ffffffffffffffffffffffffffffffffffffffff16610d64846103e6565b73ffffffffffffffffffffffffffffffffffffffff16145b80610d8d5750610d8c8185610b63565b5b91505092915050565b610da1838383610edf565b610dab838261110e565b610db58282611337565b505050565b600081600001549050919050565b6000610de98473ffffffffffffffffffffffffffffffffffffffff166113fb565b610df65760019050610ed7565b60008473ffffffffffffffffffffffffffffffffffffffff1663150b7a02338887876040518563ffffffff1660e01b8152600401610e379493929190611a2c565b602060405180830381600087803b158015610e5157600080fd5b505af1158015610e65573d6000803e3d6000fd5b505050506040513d601f19601f82011682018060405250810190610e899190611818565b905063150b7a0260e01b7bffffffffffffffffffffffffffffffffffffffffffffffffffffffff1916817bffffffffffffffffffffffffffffffffffffffffffffffffffffffff1916149150505b949350505050565b610ee881610762565b73ffffffffffffffffffffffffffffffffffffffff168373ffffffffffffffffffffffffffffffffffffffff1614610f55576040517f08c379a0000000000000000000000000000000000000000000000000000000008152600401610f4c90611afc565b60405180910390fd5b600073ffffffffffffffffffffffffffffffffffffffff168273ffffffffffffffffffffffffffffffffffffffff161415610fc5576040517f08c379a0000000000000000000000000000000000000000000000000000000008152600401610fbc90611b1c565b60405180910390fd5b610fce8161141e565b611015600460008573ffffffffffffffffffffffffffffffffffffffff1673ffffffffffffffffffffffffffffffffffffffff1681526020019081526020016000206114dc565b61105c600460008473ffffffffffffffffffffffffffffffffffffffff1673ffffffffffffffffffffffffffffffffffffffff168152602001908152602001600020611538565b816002600083815260200190815260200160002060006101000a81548173ffffffffffffffffffffffffffffffffffffffff021916908373ffffffffffffffffffffffffffffffffffffffff160217905550808273ffffffffffffffffffffffffffffffffffffffff168473ffffffffffffffffffffffffffffffffffffffff167fddf252ad1be2c89b69c2b068fc378daa952ba7f163c4a11628f55a4df523b3ef60405160405180910390a4505050565b60006001600660008573ffffffffffffffffffffffffffffffffffffffff1673ffffffffffffffffffffffffffffffffffffffff1681526020019081526020016000208054905061115f9190611c5a565b90506000600760008481526020019081526020016000205490508181146112a6576000600660008673ffffffffffffffffffffffffffffffffffffffff1673ffffffffffffffffffffffffffffffffffffffff16815260200190815260200160002083815481106111f9577f4e487b7100000000000000000000000000000000000000000000000000000000600052603260045260246000fd5b9060005260206000200154905080600660008773ffffffffffffffffffffffffffffffffffffffff1673ffffffffffffffffffffffffffffffffffffffff168152602001908152602001600020838154811061127e577f4e487b7100000000000000000000000000000000000000000000000000000000600052603260045260246000fd5b9060005260206000200181905550816007600083815260200190815260200160002081905550505b600660008573ffffffffffffffffffffffffffffffffffffffff1673ffffffffffffffffffffffffffffffffffffffff16815260200190815260200160002080548061131b577f4e487b7100000000000000000000000000000000000000000000000000000000600052603160045260246000fd5b6001900381819060005260206000200160009055905550505050565b600660008373ffffffffffffffffffffffffffffffffffffffff1673ffffffffffffffffffffffffffffffffffffffff168152602001908152602001600020805490506007600083815260200190815260200160002081905550600660008373ffffffffffffffffffffffffffffffffffffffff1673ffffffffffffffffffffffffffffffffffffffff1681526020019081526020016000208190806001815401808255809150506001900390600052602060002001600090919091909150555050565b6000808273ffffffffffffffffffffffffffffffffffffffff163b119050919050565b600073ffffffffffffffffffffffffffffffffffffffff166003600083815260200190815260200160002060009054906101000a900473ffffffffffffffffffffffffffffffffffffffff1673ffffffffffffffffffffffffffffffffffffffff16146114d95760006003600083815260200190815260200160002060006101000a81548173ffffffffffffffffffffffffffffffffffffffff021916908373ffffffffffffffffffffffffffffffffffffffff1602179055505b50565b60008160000154905060008111611528576040517f08c379a000000000000000000000000000000000000000000000000000000000815260040161151f90611abc565b60405180910390fd5b6001810382600001819055505050565b6001816000016000828254019250508190555050565b600061156161155c84611bfc565b611bd7565b90508281526020810184848401111561157957600080fd5b611584848285611d02565b509392505050565b60008135905061159b81611fea565b92915050565b6000813590506115b081612001565b92915050565b6000813590506115c581612018565b92915050565b6000815190506115da81612018565b92915050565b600082601f8301126115f157600080fd5b813561160184826020860161154e565b91505092915050565b6000813590506116198161202f565b92915050565b60006020828403121561163157600080fd5b600061163f8482850161158c565b91505092915050565b6000806040838503121561165b57600080fd5b60006116698582860161158c565b925050602061167a8582860161158c565b9150509250929050565b60008060006060848603121561169957600080fd5b60006116a78682870161158c565b93505060206116b88682870161158c565b92505060406116c98682870161160a565b9150509250925092565b600080600080608085870312156116e957600080fd5b60006116f78782880161158c565b94505060206117088782880161158c565b93505060406117198782880161160a565b925050606085013567ffffffffffffffff81111561173657600080fd5b611742878288016115e0565b91505092959194509250565b6000806040838503121561176157600080fd5b600061176f8582860161158c565b9250506020611780858286016115a1565b9150509250929050565b6000806040838503121561179d57600080fd5b60006117ab8582860161158c565b92505060206117bc8582860161160a565b9150509250929050565b6000602082840312156117d857600080fd5b60006117e6848285016115a1565b91505092915050565b60006020828403121561180157600080fd5b600061180f848285016115b6565b91505092915050565b60006020828403121561182a57600080fd5b6000611838848285016115cb565b91505092915050565b60006020828403121561185357600080fd5b60006118618482850161160a565b91505092915050565b61187381611c8e565b82525050565b61188281611ca0565b82525050565b600061189382611c2d565b61189d8185611c38565b93506118ad818560208601611d11565b6118b681611dd3565b840191505092915050565b60006118ce601b83611c49565b91506118d982611de4565b602082019050919050565b60006118f1603c83611c49565b91506118fc82611e0d565b604082019050919050565b6000611914602283611c49565b915061191f82611e5c565b604082019050919050565b6000611937601a83611c49565b915061194282611eab565b602082019050919050565b600061195a603c83611c49565b915061196582611ed4565b604082019050919050565b600061197d601e83611c49565b915061198882611f23565b602082019050919050565b60006119a0603883611c49565b91506119ab82611f4c565b604082019050919050565b60006119c3603783611c49565b91506119ce82611f9b565b604082019050919050565b6119e281611cf8565b82525050565b60006020820190506119fd600083018461186a565b92915050565b6000604082019050611a18600083018561186a565b611a25602083018461186a565b9392505050565b6000608082019050611a41600083018761186a565b611a4e602083018661186a565b611a5b60408301856119d9565b8181036060830152611a6d8184611888565b905095945050505050565b6000604082019050611a8d600083018561186a565b611a9a6020830184611879565b9392505050565b6000602082019050611ab66000830184611879565b92915050565b60006020820190508181036000830152611ad5816118c1565b9050919050565b60006020820190508181036000830152611af5816118e4565b9050919050565b60006020820190508181036000830152611b1581611907565b9050919050565b60006020820190508181036000830152611b358161192a565b9050919050565b60006020820190508181036000830152611b558161194d565b9050919050565b60006020820190508181036000830152611b7581611970565b9050919050565b60006020820190508181036000830152611b9581611993565b9050919050565b60006020820190508181036000830152611bb5816119b6565b9050919050565b6000602082019050611bd160008301846119d9565b92915050565b6000611be1611bf2565b9050611bed8282611d44565b919050565b6000604051905090565b600067ffffffffffffffff821115611c1757611c16611da4565b5b611c2082611dd3565b9050602081019050919050565b600081519050919050565b600082825260208201905092915050565b600082825260208201905092915050565b6000611c6582611cf8565b9150611c7083611cf8565b925082821015611c8357611c82611d75565b5b828203905092915050565b6000611c9982611cd8565b9050919050565b60008115159050919050565b60007fffffffff0000000000000000000000000000000000000000000000000000000082169050919050565b600073ffffffffffffffffffffffffffffffffffffffff82169050919050565b6000819050919050565b82818337600083830152505050565b60005b83811015611d2f578082015181840152602081019050611d14565b83811115611d3e576000848401525b50505050565b611d4d82611dd3565b810181811067ffffffffffffffff82111715611d6c57611d6b611da4565b5b80604052505050565b7f4e487b7100000000000000000000000000000000000000000000000000000000600052601160045260246000fd5b7f4e487b7100000000000000000000000000000000000000000000000000000000600052604160045260246000fd5b6000601f19601f8301169050919050565b7f436f756e7465723a2064656372656d656e74206f766572666c6f770000000000600082015250565b7f596f75206d75737420626520746865206f776e6572206f7220617070726f766560008201527f6420627920746865206f776e6572206f66207468697320746f6b656e00000000602082015250565b7f596f75206d75737420626520746865206f776e6572206f662074686520746f6b60008201527f656e000000000000000000000000000000000000000000000000000000000000602082015250565b7f4d75737420626520612076616c696420746f2061646472657373000000000000600082015250565b7f596f75206d75737420626520746865206f776e6572206f662074686520636f6e60008201527f747261637420746f20656e74657220746869732066756e6374696f6e00000000602082015250565b7f796f75206d75737420696e707574206120626f6f6c65616e2076616c75650000600082015250565b7f596f75206d757374206e6f7420626520746865206f776e6572206f662074686560008201527f20746f6b656e20796f752061726520617070726f76696e670000000000000000602082015250565b7f54686520636f6e7472616374207061757365207374617475732069732074686560008201527f2073616d6520617320696e70757420617267756d656e74000000000000000000602082015250565b611ff381611c8e565b8114611ffe57600080fd5b50565b61200a81611ca0565b811461201557600080fd5b50565b61202181611cac565b811461202c57600080fd5b50565b61203881611cf8565b811461204357600080fd5b5056fea2646970667358221220b91baca2b21b6df64ef01144a2a1fb36ff997b74e2d2e98f637a7c5447a3783a64736f6c63430008040033",
  "linkReferences": {},
  "deployedLinkReferences": {}
}