{
  "_format": "hh-sol-artifact-1",
  "contractName": "ERC721Mintable",
  "sourceName": "contracts/ERC721Mintable.sol",
  "abi": [
    {
      "inputs": [
        {
          "internalType": "string",
          "name": "name",
          "type": "string"
        },
        {
          "internalType": "string",
          "name": "symbol",
          "type": "string"
        },
        {
          "internalType": "string",
          "name": "baseTokenURI",
          "type": "string"
        }
      ],
      "stateMutability": "nonpayable",
      "type": "constructor"
    },
    {
      "anonymous": false,
      "inputs": [
        {
          "indexed": true,
          "internalType": "address",
          "name": "owner",
          "type": "address"
        },
        {
          "indexed": true,
          "internalType": "address",
          "name": "approved",
          "type": "address"
        },
        {
          "indexed": true,
          "internalType": "uint256",
          "name": "tokenId",
          "type": "uint256"
        }
      ],
      "name": "Approval",
      "type": "event"
    },
    {
      "anonymous": false,
      "inputs": [
        {
          "indexed": true,
          "internalType": "address",
          "name": "owner",
          "type": "address"
        },
        {
          "indexed": true,
          "internalType": "address",
          "name": "operator",
          "type": "address"
        },
        {
          "indexed": false,
          "internalType": "bool",
          "name": "approved",
          "type": "bool"
        }
      ],
      "name": "ApprovalForAll",
      "type": "event"
    },
    {
      "anonymous": false,
      "inputs": [
        {
          "indexed": false,
          "internalType": "address",
          "name": "initiator",
          "type": "address"
        },
        {
          "indexed": false,
          "internalType": "bool",
          "name": "value",
          "type": "bool"
        }
      ],
      "name": "Paused",
      "type": "event"
    },
    {
      "anonymous": false,
      "inputs": [
        {
          "indexed": true,
          "internalType": "address",
          "name": "from",
          "type": "address"
        },
        {
          "indexed": true,
          "internalType": "address",
          "name": "to",
          "type": "address"
        },
        {
          "indexed": true,
          "internalType": "uint256",
          "name": "tokenId",
          "type": "uint256"
        }
      ],
      "name": "Transfer",
      "type": "event"
    },
    {
      "anonymous": false,
      "inputs": [
        {
          "indexed": false,
          "internalType": "address",
          "name": "initiator",
          "type": "address"
        },
        {
          "indexed": false,
          "internalType": "bool",
          "name": "value",
          "type": "bool"
        }
      ],
      "name": "UnPaused",
      "type": "event"
    },
    {
      "anonymous": false,
      "inputs": [
        {
          "indexed": false,
          "internalType": "address",
          "name": "newOwner",
          "type": "address"
        },
        {
          "indexed": false,
          "internalType": "address",
          "name": "oldOwner",
          "type": "address"
        }
      ],
      "name": "ownershipTransfered",
      "type": "event"
    },
    {
      "inputs": [
        {
          "internalType": "bytes32",
          "name": "_myid",
          "type": "bytes32"
        },
        {
          "internalType": "string",
          "name": "_result",
          "type": "string"
        }
      ],
      "name": "__callback",
      "outputs": [],
      "stateMutability": "nonpayable",
      "type": "function"
    },
    {
      "inputs": [
        {
          "internalType": "bytes32",
          "name": "_myid",
          "type": "bytes32"
        },
        {
          "internalType": "string",
          "name": "_result",
          "type": "string"
        },
        {
          "internalType": "bytes",
          "name": "_proof",
          "type": "bytes"
        }
      ],
      "name": "__callback",
      "outputs": [],
      "stateMutability": "nonpayable",
      "type": "function"
    },
    {
      "inputs": [
        {
          "internalType": "address",
          "name": "to",
          "type": "address"
        },
        {
          "internalType": "uint256",
          "name": "tokenId",
          "type": "uint256"
        }
      ],
      "name": "approve",
      "outputs": [],
      "stateMutability": "nonpayable",
      "type": "function"
    },
    {
      "inputs": [
        {
          "internalType": "address",
          "name": "owner",
          "type": "address"
        }
      ],
      "name": "balanceOf",
      "outputs": [
        {
          "internalType": "uint256",
          "name": "",
          "type": "uint256"
        }
      ],
      "stateMutability": "view",
      "type": "function"
    },
    {
      "inputs": [
        {
          "internalType": "uint256",
          "name": "tokenId",
          "type": "uint256"
        }
      ],
      "name": "getApproved",
      "outputs": [
        {
          "internalType": "address",
          "name": "",
          "type": "address"
        }
      ],
      "stateMutability": "view",
      "type": "function"
    },
    {
      "inputs": [],
      "name": "getBaseTokenURI",
      "outputs": [
        {
          "internalType": "string",
          "name": "",
          "type": "string"
        }
      ],
      "stateMutability": "view",
      "type": "function"
    },
    {
      "inputs": [],
      "name": "getName",
      "outputs": [
        {
          "internalType": "string",
          "name": "",
          "type": "string"
        }
      ],
      "stateMutability": "view",
      "type": "function"
    },
    {
      "inputs": [],
      "name": "getOwner",
      "outputs": [
        {
          "internalType": "address",
          "name": "",
          "type": "address"
        }
      ],
      "stateMutability": "view",
      "type": "function"
    },
    {
      "inputs": [],
      "name": "getPauseStatus",
      "outputs": [
        {
          "internalType": "bool",
          "name": "status",
          "type": "bool"
        }
      ],
      "stateMutability": "view",
      "type": "function"
    },
    {
      "inputs": [],
      "name": "getSymbol",
      "outputs": [
        {
          "internalType": "string",
          "name": "",
          "type": "string"
        }
      ],
      "stateMutability": "view",
      "type": "function"
    },
    {
      "inputs": [
        {
          "internalType": "address",
          "name": "owner",
          "type": "address"
        },
        {
          "internalType": "address",
          "name": "operator",
          "type": "address"
        }
      ],
      "name": "isApprovedForAll",
      "outputs": [
        {
          "internalType": "bool",
          "name": "",
          "type": "bool"
        }
      ],
      "stateMutability": "view",
      "type": "function"
    },
    {
      "inputs": [
        {
          "internalType": "address",
          "name": "to",
          "type": "address"
        },
        {
          "internalType": "uint256",
          "name": "tokenId",
          "type": "uint256"
        }
      ],
      "name": "mint",
      "outputs": [
        {
          "internalType": "bool",
          "name": "",
          "type": "bool"
        }
      ],
      "stateMutability": "nonpayable",
      "type": "function"
    },
    {
      "inputs": [
        {
          "internalType": "uint256",
          "name": "tokenId",
          "type": "uint256"
        }
      ],
      "name": "ownerOf",
      "outputs": [
        {
          "internalType": "address",
          "name": "",
          "type": "address"
        }
      ],
      "stateMutability": "view",
      "type": "function"
    },
    {
      "inputs": [
        {
          "internalType": "address",
          "name": "from",
          "type": "address"
        },
        {
          "internalType": "address",
          "name": "to",
          "type": "address"
        },
        {
          "internalType": "uint256",
          "name": "tokenId",
          "type": "uint256"
        }
      ],
      "name": "safeTransferFrom",
      "outputs": [],
      "stateMutability": "nonpayable",
      "type": "function"
    },
    {
      "inputs": [
        {
          "internalType": "address",
          "name": "from",
          "type": "address"
        },
        {
          "internalType": "address",
          "name": "to",
          "type": "address"
        },
        {
          "internalType": "uint256",
          "name": "tokenId",
          "type": "uint256"
        },
        {
          "internalType": "bytes",
          "name": "_data",
          "type": "bytes"
        }
      ],
      "name": "safeTransferFrom",
      "outputs": [],
      "stateMutability": "nonpayable",
      "type": "function"
    },
    {
      "inputs": [
        {
          "internalType": "address",
          "name": "to",
          "type": "address"
        },
        {
          "internalType": "bool",
          "name": "approved",
          "type": "bool"
        }
      ],
      "name": "setApprovalForAll",
      "outputs": [],
      "stateMutability": "nonpayable",
      "type": "function"
    },
    {
      "inputs": [
        {
          "internalType": "bool",
          "name": "_value",
          "type": "bool"
        }
      ],
      "name": "setPauseStatus",
      "outputs": [],
      "stateMutability": "nonpayable",
      "type": "function"
    },
    {
      "inputs": [
        {
          "internalType": "bytes4",
          "name": "interfaceId",
          "type": "bytes4"
        }
      ],
      "name": "supportsInterface",
      "outputs": [
        {
          "internalType": "bool",
          "name": "",
          "type": "bool"
        }
      ],
      "stateMutability": "view",
      "type": "function"
    },
    {
      "inputs": [
        {
          "internalType": "uint256",
          "name": "index",
          "type": "uint256"
        }
      ],
      "name": "tokenByIndex",
      "outputs": [
        {
          "internalType": "uint256",
          "name": "",
          "type": "uint256"
        }
      ],
      "stateMutability": "view",
      "type": "function"
    },
    {
      "inputs": [
        {
          "internalType": "address",
          "name": "owner",
          "type": "address"
        },
        {
          "internalType": "uint256",
          "name": "index",
          "type": "uint256"
        }
      ],
      "name": "tokenOfOwnerByIndex",
      "outputs": [
        {
          "internalType": "uint256",
          "name": "",
          "type": "uint256"
        }
      ],
      "stateMutability": "view",
      "type": "function"
    },
    {
      "inputs": [
        {
          "internalType": "uint256",
          "name": "tokenId",
          "type": "uint256"
        }
      ],
      "name": "tokenURI",
      "outputs": [
        {
          "internalType": "string",
          "name": "",
          "type": "string"
        }
      ],
      "stateMutability": "view",
      "type": "function"
    },
    {
      "inputs": [],
      "name": "totalSupply",
      "outputs": [
        {
          "internalType": "uint256",
          "name": "",
          "type": "uint256"
        }
      ],
      "stateMutability": "view",
      "type": "function"
    },
    {
      "inputs": [
        {
          "internalType": "address",
          "name": "from",
          "type": "address"
        },
        {
          "internalType": "address",
          "name": "to",
          "type": "address"
        },
        {
          "internalType": "uint256",
          "name": "tokenId",
          "type": "uint256"
        }
      ],
      "name": "transferFrom",
      "outputs": [],
      "stateMutability": "nonpayable",
      "type": "function"
    },
    {
      "inputs": [
        {
          "internalType": "address",
          "name": "_newOwner",
          "type": "address"
        }
      ],
      "name": "transferOwnership",
      "outputs": [],
      "stateMutability": "nonpayable",
      "type": "function"
    }
  ],
  "bytecode": "0x60806040523480156200001157600080fd5b5060405162003b0538038062003b0583398181016040528101906200003791906200030d565b828282336000806101000a81548173ffffffffffffffffffffffffffffffffffffffff021916908373ffffffffffffffffffffffffffffffffffffffff16021790555060008060146101000a81548160ff021916908315150217905550620000ac6301ffc9a760e01b6200014b60201b60201c565b620000c46380ac58cd60e01b6200014b60201b60201c565b620000dc63780e9d6360e01b6200014b60201b60201c565b82600f9080519060200190620000f4929190620001eb565b5081601090805190602001906200010d929190620001eb565b50806011908051906020019062000126929190620001eb565b506200013f635b5e139f60e01b6200014b60201b60201c565b5050505050506200051e565b63ffffffff60e01b817bffffffffffffffffffffffffffffffffffffffffffffffffffffffff191614156200017f57600080fd5b6001806000837bffffffffffffffffffffffffffffffffffffffffffffffffffffffff19167bffffffffffffffffffffffffffffffffffffffffffffffffffffffff1916815260200190815260200160002060006101000a81548160ff02191690831515021790555050565b828054620001f99062000443565b90600052602060002090601f0160209004810192826200021d576000855562000269565b82601f106200023857805160ff191683800117855562000269565b8280016001018555821562000269579182015b82811115620002685782518255916020019190600101906200024b565b5b5090506200027891906200027c565b5090565b5b80821115620002975760008160009055506001016200027d565b5090565b6000620002b2620002ac84620003d7565b620003ae565b905082815260208101848484011115620002cb57600080fd5b620002d88482856200040d565b509392505050565b600082601f830112620002f257600080fd5b8151620003048482602086016200029b565b91505092915050565b6000806000606084860312156200032357600080fd5b600084015167ffffffffffffffff8111156200033e57600080fd5b6200034c86828701620002e0565b935050602084015167ffffffffffffffff8111156200036a57600080fd5b6200037886828701620002e0565b925050604084015167ffffffffffffffff8111156200039657600080fd5b620003a486828701620002e0565b9150509250925092565b6000620003ba620003cd565b9050620003c8828262000479565b919050565b6000604051905090565b600067ffffffffffffffff821115620003f557620003f4620004de565b5b62000400826200050d565b9050602081019050919050565b60005b838110156200042d57808201518184015260208101905062000410565b838111156200043d576000848401525b50505050565b600060028204905060018216806200045c57607f821691505b60208210811415620004735762000472620004af565b5b50919050565b62000484826200050d565b810181811067ffffffffffffffff82111715620004a657620004a5620004de565b5b80604052505050565b7f4e487b7100000000000000000000000000000000000000000000000000000000600052602260045260246000fd5b7f4e487b7100000000000000000000000000000000000000000000000000000000600052604160045260246000fd5b6000601f19601f8301169050919050565b6135d7806200052e6000396000f3fe608060405234801561001057600080fd5b50600436106101585760003560e01c806342842e0e116100c3578063b88d4fde1161007c578063b88d4fde146103eb578063bdc32be014610407578063c38bb53714610425578063c87b56dd14610441578063e985e9c514610471578063f2fde38b146104a157610158565b806342842e0e146103055780634f6ccce7146103215780636352211e1461035157806370a0823114610381578063893d20e8146103b1578063a22cb465146103cf57610158565b80631d9023cb116101155780631d9023cb1461023357806323b872dd1461025157806327dc297e1461026d5780632f745c591461028957806338bbfa50146102b957806340c10f19146102d557610158565b806301ffc9a71461015d578063081812fc1461018d578063095ea7b3146101bd57806315070401146101d957806317d7de7c146101f757806318160ddd14610215575b600080fd5b610177600480360381019061017291906129ee565b6104bd565b6040516101849190612d42565b60405180910390f35b6101a760048036038101906101a29190612a40565b610525565b6040516101b49190612c89565b60405180910390f35b6101d760048036038101906101d291906128b6565b610562565b005b6101e1610704565b6040516101ee9190612d5d565b60405180910390f35b6101ff610796565b60405161020c9190612d5d565b60405180910390f35b61021d610828565b60405161022a9190612edf565b60405180910390f35b61023b610835565b6040516102489190612d42565b60405180910390f35b61026b600480360381019061026691906127b0565b61084b565b005b6102876004803603810190610282919061291b565b6108a4565b005b6102a3600480360381019061029e91906128b6565b610926565b6040516102b09190612edf565b60405180910390f35b6102d360048036038101906102ce919061296f565b6109c6565b005b6102ef60048036038101906102ea91906128b6565b6109e9565b6040516102fc9190612d42565b60405180910390f35b61031f600480360381019061031a91906127b0565b610a97565b005b61033b60048036038101906103369190612a40565b610ab7565b6040516103489190612edf565b60405180910390f35b61036b60048036038101906103669190612a40565b610b18565b6040516103789190612c89565b60405180910390f35b61039b6004803603810190610396919061274b565b610b55565b6040516103a89190612edf565b60405180910390f35b6103b9610ba5565b6040516103c69190612c89565b60405180910390f35b6103e960048036038101906103e4919061287a565b610bce565b005b610405600480360381019061040091906127ff565b610d04565b005b61040f610d2a565b60405161041c9190612d5d565b60405180910390f35b61043f600480360381019061043a91906128f2565b610dbc565b005b61045b60048036038101906104569190612a40565b610fab565b6040516104689190612d5d565b60405180910390f35b61048b60048036038101906104869190612774565b611062565b6040516104989190612d42565b60405180910390f35b6104bb60048036038101906104b6919061274b565b6110f6565b005b600060016000837bffffffffffffffffffffffffffffffffffffffffffffffffffffffff19167bffffffffffffffffffffffffffffffffffffffffffffffffffffffff1916815260200190815260200160002060009054906101000a900460ff169050919050565b60006003600083815260200190815260200160002060009054906101000a900473ffffffffffffffffffffffffffffffffffffffff169050919050565b60006002600083815260200190815260200160002060009054906101000a900473ffffffffffffffffffffffffffffffffffffffff1690508073ffffffffffffffffffffffffffffffffffffffff168373ffffffffffffffffffffffffffffffffffffffff161415610609576040517f08c379a000000000000000000000000000000000000000000000000000000000815260040161060090612e9f565b60405180910390fd5b8073ffffffffffffffffffffffffffffffffffffffff163373ffffffffffffffffffffffffffffffffffffffff16148061064957506106488333611062565b5b61065257600080fd5b826003600084815260200190815260200160002060006101000a81548173ffffffffffffffffffffffffffffffffffffffff021916908373ffffffffffffffffffffffffffffffffffffffff160217905550818373ffffffffffffffffffffffffffffffffffffffff168273ffffffffffffffffffffffffffffffffffffffff167f8c5be1e5ebec7d5bd14f71427d1e84f3dd0314c0f7b2291e5b200ac8c7c3b92560405160405180910390a4505050565b60606010805461071390613134565b80601f016020809104026020016040519081016040528092919081815260200182805461073f90613134565b801561078c5780601f106107615761010080835404028352916020019161078c565b820191906000526020600020905b81548152906001019060200180831161076f57829003601f168201915b5050505050905090565b6060600f80546107a590613134565b80601f01602080910402602001604051908101604052809291908181526020018280546107d190613134565b801561081e5780601f106107f35761010080835404028352916020019161081e565b820191906000526020600020905b81548152906001019060200180831161080157829003601f168201915b5050505050905090565b6000600880549050905090565b60008060149054906101000a900460ff16905090565b6108553382611200565b610894576040517f08c379a000000000000000000000000000000000000000000000000000000000815260040161088b90612dbf565b60405180910390fd5b61089f838383611295565b505050565b6109228282600067ffffffffffffffff8111156108ea577f4e487b7100000000000000000000000000000000000000000000000000000000600052604160045260246000fd5b6040519080825280601f01601f19166020018201604052801561091c5781602001600182028036833780820191505090505b506109c6565b5050565b600061093183610b55565b821061093c57600080fd5b600660008473ffffffffffffffffffffffffffffffffffffffff1673ffffffffffffffffffffffffffffffffffffffff16815260200190815260200160002082815481106109b3577f4e487b7100000000000000000000000000000000000000000000000000000000600052603260045260246000fd5b9060005260206000200154905092915050565b6000801b600d60008060001b815260200190815260200160002081905550505050565b60008060009054906101000a900473ffffffffffffffffffffffffffffffffffffffff1673ffffffffffffffffffffffffffffffffffffffff163373ffffffffffffffffffffffffffffffffffffffff1614610a7a576040517f08c379a0000000000000000000000000000000000000000000000000000000008152600401610a7190612e3f565b60405180910390fd5b610a8483836112b9565b610a8d826112da565b6001905092915050565b610ab283838360405180602001604052806000815250610d04565b505050565b6000610ac1610828565b8210610acc57600080fd5b60088281548110610b06577f4e487b7100000000000000000000000000000000000000000000000000000000600052603260045260246000fd5b90600052602060002001549050919050565b60006002600083815260200190815260200160002060009054906101000a900473ffffffffffffffffffffffffffffffffffffffff169050919050565b6000610b9e600460008473ffffffffffffffffffffffffffffffffffffffff1673ffffffffffffffffffffffffffffffffffffffff1681526020019081526020016000206113ee565b9050919050565b60008060009054906101000a900473ffffffffffffffffffffffffffffffffffffffff16905090565b3373ffffffffffffffffffffffffffffffffffffffff168273ffffffffffffffffffffffffffffffffffffffff161415610c0757600080fd5b80600560003373ffffffffffffffffffffffffffffffffffffffff1673ffffffffffffffffffffffffffffffffffffffff16815260200190815260200160002060008473ffffffffffffffffffffffffffffffffffffffff1673ffffffffffffffffffffffffffffffffffffffff16815260200190815260200160002060006101000a81548160ff0219169083151502179055508173ffffffffffffffffffffffffffffffffffffffff163373ffffffffffffffffffffffffffffffffffffffff167f17307eab39ab6107e8899845ad3d59bd9653f200f220920489ca2b5937696c3183604051610cf89190612d42565b60405180910390a35050565b610d0f84848461084b565b610d1b848484846113fc565b610d2457600080fd5b50505050565b606060118054610d3990613134565b80601f0160208091040260200160405190810160405280929190818152602001828054610d6590613134565b8015610db25780601f10610d8757610100808354040283529160200191610db2565b820191906000526020600020905b815481529060010190602001808311610d9557829003601f168201915b5050505050905090565b60008054906101000a900473ffffffffffffffffffffffffffffffffffffffff1673ffffffffffffffffffffffffffffffffffffffff163373ffffffffffffffffffffffffffffffffffffffff1614610e4a576040517f08c379a0000000000000000000000000000000000000000000000000000000008152600401610e4190612e3f565b60405180910390fd5b600115158115151480610e61575060001515811515145b610ea0576040517f08c379a0000000000000000000000000000000000000000000000000000000008152600401610e9790612e5f565b60405180910390fd5b801515600060149054906101000a900460ff1615151415610ef6576040517f08c379a0000000000000000000000000000000000000000000000000000000008152600401610eed90612ebf565b60405180910390fd5b8015610f545780600060146101000a81548160ff0219169083151502179055507fe8699cf681560fd07de85543bd994263f4557bdc5179dd702f256d15fd083e1d3382604051610f47929190612d19565b60405180910390a1610fa8565b80600060146101000a81548160ff0219169083151502179055507f7e33492b866dc3a8907fa6d980cd33332afb0d044cf12c0005fabd6b0aa77bff3382604051610f9f929190612d19565b60405180910390a15b50565b6060610fb682611513565b610fbf57600080fd5b601260008381526020019081526020016000208054610fdd90613134565b80601f016020809104026020016040519081016040528092919081815260200182805461100990613134565b80156110565780601f1061102b57610100808354040283529160200191611056565b820191906000526020600020905b81548152906001019060200180831161103957829003601f168201915b50505050509050919050565b6000600560008473ffffffffffffffffffffffffffffffffffffffff1673ffffffffffffffffffffffffffffffffffffffff16815260200190815260200160002060008373ffffffffffffffffffffffffffffffffffffffff1673ffffffffffffffffffffffffffffffffffffffff16815260200190815260200160002060009054906101000a900460ff16905092915050565b60008054906101000a900473ffffffffffffffffffffffffffffffffffffffff1673ffffffffffffffffffffffffffffffffffffffff163373ffffffffffffffffffffffffffffffffffffffff1614611184576040517f08c379a000000000000000000000000000000000000000000000000000000000815260040161117b90612e3f565b60405180910390fd5b806000806101000a81548173ffffffffffffffffffffffffffffffffffffffff021916908373ffffffffffffffffffffffffffffffffffffffff1602179055507feb38696426b5aa8881f6ba9f2f3e0ac06ee7ea6ffbe944120578d61191ef610181336040516111f5929190612ca4565b60405180910390a150565b60008061120c83610b18565b90508073ffffffffffffffffffffffffffffffffffffffff168473ffffffffffffffffffffffffffffffffffffffff16148061127b57508373ffffffffffffffffffffffffffffffffffffffff1661126384610525565b73ffffffffffffffffffffffffffffffffffffffff16145b8061128c575061128b8185611062565b5b91505092915050565b6112a0838383611585565b6112aa83826117b4565b6112b482826119dd565b505050565b6112c38282611aa1565b6112cd82826119dd565b6112d681611c59565b5050565b6112e381611513565b611322576040517f08c379a000000000000000000000000000000000000000000000000000000000815260040161131990612e1f565b60405180910390fd5b60006113c06011805461133490613134565b80601f016020809104026020016040519081016040528092919081815260200182805461136090613134565b80156113ad5780601f10611382576101008083540402835291602001916113ad565b820191906000526020600020905b81548152906001019060200180831161139057829003601f168201915b50505050506113bb84611ca2565b611ea6565b9050806012600084815260200190815260200160002090805190602001906113e992919061255a565b505050565b600081600001549050919050565b600061141d8473ffffffffffffffffffffffffffffffffffffffff16611eea565b61142a576001905061150b565b60008473ffffffffffffffffffffffffffffffffffffffff1663150b7a02338887876040518563ffffffff1660e01b815260040161146b9493929190612ccd565b602060405180830381600087803b15801561148557600080fd5b505af1158015611499573d6000803e3d6000fd5b505050506040513d601f19601f820116820180604052508101906114bd9190612a17565b905063150b7a0260e01b7bffffffffffffffffffffffffffffffffffffffffffffffffffffffff1916817bffffffffffffffffffffffffffffffffffffffffffffffffffffffff1916149150505b949350505050565b6000806002600084815260200190815260200160002060009054906101000a900473ffffffffffffffffffffffffffffffffffffffff169050600073ffffffffffffffffffffffffffffffffffffffff168173ffffffffffffffffffffffffffffffffffffffff161415915050919050565b61158e81610b18565b73ffffffffffffffffffffffffffffffffffffffff168373ffffffffffffffffffffffffffffffffffffffff16146115fb576040517f08c379a00000000000000000000000000000000000000000000000000000000081526004016115f290612ddf565b60405180910390fd5b600073ffffffffffffffffffffffffffffffffffffffff168273ffffffffffffffffffffffffffffffffffffffff16141561166b576040517f08c379a000000000000000000000000000000000000000000000000000000000815260040161166290612dff565b60405180910390fd5b61167481611f0d565b6116bb600460008573ffffffffffffffffffffffffffffffffffffffff1673ffffffffffffffffffffffffffffffffffffffff168152602001908152602001600020611fcb565b611702600460008473ffffffffffffffffffffffffffffffffffffffff1673ffffffffffffffffffffffffffffffffffffffff168152602001908152602001600020612027565b816002600083815260200190815260200160002060006101000a81548173ffffffffffffffffffffffffffffffffffffffff021916908373ffffffffffffffffffffffffffffffffffffffff160217905550808273ffffffffffffffffffffffffffffffffffffffff168473ffffffffffffffffffffffffffffffffffffffff167fddf252ad1be2c89b69c2b068fc378daa952ba7f163c4a11628f55a4df523b3ef60405160405180910390a4505050565b60006001600660008573ffffffffffffffffffffffffffffffffffffffff1673ffffffffffffffffffffffffffffffffffffffff168152602001908152602001600020805490506118059190613040565b905060006007600084815260200190815260200160002054905081811461194c576000600660008673ffffffffffffffffffffffffffffffffffffffff1673ffffffffffffffffffffffffffffffffffffffff168152602001908152602001600020838154811061189f577f4e487b7100000000000000000000000000000000000000000000000000000000600052603260045260246000fd5b9060005260206000200154905080600660008773ffffffffffffffffffffffffffffffffffffffff1673ffffffffffffffffffffffffffffffffffffffff1681526020019081526020016000208381548110611924577f4e487b7100000000000000000000000000000000000000000000000000000000600052603260045260246000fd5b9060005260206000200181905550816007600083815260200190815260200160002081905550505b600660008573ffffffffffffffffffffffffffffffffffffffff1673ffffffffffffffffffffffffffffffffffffffff1681526020019081526020016000208054806119c1577f4e487b7100000000000000000000000000000000000000000000000000000000600052603160045260246000fd5b6001900381819060005260206000200160009055905550505050565b600660008373ffffffffffffffffffffffffffffffffffffffff1673ffffffffffffffffffffffffffffffffffffffff168152602001908152602001600020805490506007600083815260200190815260200160002081905550600660008373ffffffffffffffffffffffffffffffffffffffff1673ffffffffffffffffffffffffffffffffffffffff1681526020019081526020016000208190806001815401808255809150506001900390600052602060002001600090919091909150555050565b60001515611aae82611513565b151514611af0576040517f08c379a0000000000000000000000000000000000000000000000000000000008152600401611ae790612d7f565b60405180910390fd5b600073ffffffffffffffffffffffffffffffffffffffff168273ffffffffffffffffffffffffffffffffffffffff161415611b60576040517f08c379a0000000000000000000000000000000000000000000000000000000008152600401611b5790612e7f565b60405180910390fd5b816002600083815260200190815260200160002060006101000a81548173ffffffffffffffffffffffffffffffffffffffff021916908373ffffffffffffffffffffffffffffffffffffffff160217905550611bf9600460008473ffffffffffffffffffffffffffffffffffffffff1673ffffffffffffffffffffffffffffffffffffffff168152602001908152602001600020612027565b808273ffffffffffffffffffffffffffffffffffffffff16600073ffffffffffffffffffffffffffffffffffffffff167fddf252ad1be2c89b69c2b068fc378daa952ba7f163c4a11628f55a4df523b3ef60405160405180910390a45050565b6008805490506009600083815260200190815260200160002081905550600881908060018154018082558091505060019003906000526020600020016000909190919091505550565b60606000821415611cea576040518060400160405280600181526020017f30000000000000000000000000000000000000000000000000000000000000008152509050611ea1565b600082905060005b60008214611d1c578080611d0590613197565b915050600a82611d15919061300f565b9150611cf2565b60008167ffffffffffffffff811115611d5e577f4e487b7100000000000000000000000000000000000000000000000000000000600052604160045260246000fd5b6040519080825280601f01601f191660200182016040528015611d905781602001600182028036833780820191505090505b5090506000600183611da29190613040565b90505b60008614611e9957600a8681611de4577f4e487b7100000000000000000000000000000000000000000000000000000000600052601260045260246000fd5b0660300160f81b82828060019003935081518110611e2b577f4e487b7100000000000000000000000000000000000000000000000000000000600052603260045260246000fd5b60200101907effffffffffffffffffffffffffffffffffffffffffffffffffffffffffffff1916908160001a905350600a8681611e91577f4e487b7100000000000000000000000000000000000000000000000000000000600052601260045260246000fd5b049550611da5565b819450505050505b919050565b6060611ee2838360405180602001604052806000815250604051806020016040528060008152506040518060200160405280600081525061203d565b905092915050565b6000808273ffffffffffffffffffffffffffffffffffffffff163b119050919050565b600073ffffffffffffffffffffffffffffffffffffffff166003600083815260200190815260200160002060009054906101000a900473ffffffffffffffffffffffffffffffffffffffff1673ffffffffffffffffffffffffffffffffffffffff1614611fc85760006003600083815260200190815260200160002060006101000a81548173ffffffffffffffffffffffffffffffffffffffff021916908373ffffffffffffffffffffffffffffffffffffffff1602179055505b50565b60008160000154905060008111612017576040517f08c379a000000000000000000000000000000000000000000000000000000000815260040161200e90612d9f565b60405180910390fd5b6001810382600001819055505050565b6001816000016000828254019250508190555050565b60606000869050600086905060008690506000869050600086905060008151835185518751895161206e9190612fb9565b6120789190612fb9565b6120829190612fb9565b61208c9190612fb9565b67ffffffffffffffff8111156120cb577f4e487b7100000000000000000000000000000000000000000000000000000000600052604160045260246000fd5b6040519080825280601f01601f1916602001820160405280156120fd5781602001600182028036833780820191505090505b5090506000819050600080600090505b88518110156121e15788818151811061214f577f4e487b7100000000000000000000000000000000000000000000000000000000600052603260045260246000fd5b602001015160f81c60f81b83838061216690613197565b94508151811061219f577f4e487b7100000000000000000000000000000000000000000000000000000000600052603260045260246000fd5b60200101907effffffffffffffffffffffffffffffffffffffffffffffffffffffffffffff1916908160001a90535080806121d990613197565b91505061210d565b600090505b87518110156122ba57878181518110612228577f4e487b7100000000000000000000000000000000000000000000000000000000600052603260045260246000fd5b602001015160f81c60f81b83838061223f90613197565b945081518110612278577f4e487b7100000000000000000000000000000000000000000000000000000000600052603260045260246000fd5b60200101907effffffffffffffffffffffffffffffffffffffffffffffffffffffffffffff1916908160001a90535080806122b290613197565b9150506121e6565b600090505b865181101561239357868181518110612301577f4e487b7100000000000000000000000000000000000000000000000000000000600052603260045260246000fd5b602001015160f81c60f81b83838061231890613197565b945081518110612351577f4e487b7100000000000000000000000000000000000000000000000000000000600052603260045260246000fd5b60200101907effffffffffffffffffffffffffffffffffffffffffffffffffffffffffffff1916908160001a905350808061238b90613197565b9150506122bf565b600090505b855181101561246c578581815181106123da577f4e487b7100000000000000000000000000000000000000000000000000000000600052603260045260246000fd5b602001015160f81c60f81b8383806123f190613197565b94508151811061242a577f4e487b7100000000000000000000000000000000000000000000000000000000600052603260045260246000fd5b60200101907effffffffffffffffffffffffffffffffffffffffffffffffffffffffffffff1916908160001a905350808061246490613197565b915050612398565b600090505b8451811015612545578481815181106124b3577f4e487b7100000000000000000000000000000000000000000000000000000000600052603260045260246000fd5b602001015160f81c60f81b8383806124ca90613197565b945081518110612503577f4e487b7100000000000000000000000000000000000000000000000000000000600052603260045260246000fd5b60200101907effffffffffffffffffffffffffffffffffffffffffffffffffffffffffffff1916908160001a905350808061253d90613197565b915050612471565b82995050505050505050505095945050505050565b82805461256690613134565b90600052602060002090601f01602090048101928261258857600085556125cf565b82601f106125a157805160ff19168380011785556125cf565b828001600101855582156125cf579182015b828111156125ce5782518255916020019190600101906125b3565b5b5090506125dc91906125e0565b5090565b5b808211156125f95760008160009055506001016125e1565b5090565b600061261061260b84612f1f565b612efa565b90508281526020810184848401111561262857600080fd5b6126338482856130f2565b509392505050565b600061264e61264984612f50565b612efa565b90508281526020810184848401111561266657600080fd5b6126718482856130f2565b509392505050565b6000813590506126888161352e565b92915050565b60008135905061269d81613545565b92915050565b6000813590506126b28161355c565b92915050565b6000813590506126c781613573565b92915050565b6000815190506126dc81613573565b92915050565b600082601f8301126126f357600080fd5b81356127038482602086016125fd565b91505092915050565b600082601f83011261271d57600080fd5b813561272d84826020860161263b565b91505092915050565b6000813590506127458161358a565b92915050565b60006020828403121561275d57600080fd5b600061276b84828501612679565b91505092915050565b6000806040838503121561278757600080fd5b600061279585828601612679565b92505060206127a685828601612679565b9150509250929050565b6000806000606084860312156127c557600080fd5b60006127d386828701612679565b93505060206127e486828701612679565b92505060406127f586828701612736565b9150509250925092565b6000806000806080858703121561281557600080fd5b600061282387828801612679565b945050602061283487828801612679565b935050604061284587828801612736565b925050606085013567ffffffffffffffff81111561286257600080fd5b61286e878288016126e2565b91505092959194509250565b6000806040838503121561288d57600080fd5b600061289b85828601612679565b92505060206128ac8582860161268e565b9150509250929050565b600080604083850312156128c957600080fd5b60006128d785828601612679565b92505060206128e885828601612736565b9150509250929050565b60006020828403121561290457600080fd5b60006129128482850161268e565b91505092915050565b6000806040838503121561292e57600080fd5b600061293c858286016126a3565b925050602083013567ffffffffffffffff81111561295957600080fd5b6129658582860161270c565b9150509250929050565b60008060006060848603121561298457600080fd5b6000612992868287016126a3565b935050602084013567ffffffffffffffff8111156129af57600080fd5b6129bb8682870161270c565b925050604084013567ffffffffffffffff8111156129d857600080fd5b6129e4868287016126e2565b9150509250925092565b600060208284031215612a0057600080fd5b6000612a0e848285016126b8565b91505092915050565b600060208284031215612a2957600080fd5b6000612a37848285016126cd565b91505092915050565b600060208284031215612a5257600080fd5b6000612a6084828501612736565b91505092915050565b612a7281613074565b82525050565b612a8181613086565b82525050565b6000612a9282612f81565b612a9c8185612f97565b9350612aac818560208601613101565b612ab58161329c565b840191505092915050565b6000612acb82612f8c565b612ad58185612fa8565b9350612ae5818560208601613101565b612aee8161329c565b840191505092915050565b6000612b06601983612fa8565b9150612b11826132ad565b602082019050919050565b6000612b29601b83612fa8565b9150612b34826132d6565b602082019050919050565b6000612b4c603c83612fa8565b9150612b57826132ff565b604082019050919050565b6000612b6f602283612fa8565b9150612b7a8261334e565b604082019050919050565b6000612b92601a83612fa8565b9150612b9d8261339d565b602082019050919050565b6000612bb5601483612fa8565b9150612bc0826133c6565b602082019050919050565b6000612bd8603c83612fa8565b9150612be3826133ef565b604082019050919050565b6000612bfb601e83612fa8565b9150612c068261343e565b602082019050919050565b6000612c1e601a83612fa8565b9150612c2982613467565b602082019050919050565b6000612c41603883612fa8565b9150612c4c82613490565b604082019050919050565b6000612c64603783612fa8565b9150612c6f826134df565b604082019050919050565b612c83816130e8565b82525050565b6000602082019050612c9e6000830184612a69565b92915050565b6000604082019050612cb96000830185612a69565b612cc66020830184612a69565b9392505050565b6000608082019050612ce26000830187612a69565b612cef6020830186612a69565b612cfc6040830185612c7a565b8181036060830152612d0e8184612a87565b905095945050505050565b6000604082019050612d2e6000830185612a69565b612d3b6020830184612a78565b9392505050565b6000602082019050612d576000830184612a78565b92915050565b60006020820190508181036000830152612d778184612ac0565b905092915050565b60006020820190508181036000830152612d9881612af9565b9050919050565b60006020820190508181036000830152612db881612b1c565b9050919050565b60006020820190508181036000830152612dd881612b3f565b9050919050565b60006020820190508181036000830152612df881612b62565b9050919050565b60006020820190508181036000830152612e1881612b85565b9050919050565b60006020820190508181036000830152612e3881612ba8565b9050919050565b60006020820190508181036000830152612e5881612bcb565b9050919050565b60006020820190508181036000830152612e7881612bee565b9050919050565b60006020820190508181036000830152612e9881612c11565b9050919050565b60006020820190508181036000830152612eb881612c34565b9050919050565b60006020820190508181036000830152612ed881612c57565b9050919050565b6000602082019050612ef46000830184612c7a565b92915050565b6000612f04612f15565b9050612f108282613166565b919050565b6000604051905090565b600067ffffffffffffffff821115612f3a57612f3961326d565b5b612f438261329c565b9050602081019050919050565b600067ffffffffffffffff821115612f6b57612f6a61326d565b5b612f748261329c565b9050602081019050919050565b600081519050919050565b600081519050919050565b600082825260208201905092915050565b600082825260208201905092915050565b6000612fc4826130e8565b9150612fcf836130e8565b9250827fffffffffffffffffffffffffffffffffffffffffffffffffffffffffffffffff03821115613004576130036131e0565b5b828201905092915050565b600061301a826130e8565b9150613025836130e8565b9250826130355761303461320f565b5b828204905092915050565b600061304b826130e8565b9150613056836130e8565b925082821015613069576130686131e0565b5b828203905092915050565b600061307f826130c8565b9050919050565b60008115159050919050565b6000819050919050565b60007fffffffff0000000000000000000000000000000000000000000000000000000082169050919050565b600073ffffffffffffffffffffffffffffffffffffffff82169050919050565b6000819050919050565b82818337600083830152505050565b60005b8381101561311f578082015181840152602081019050613104565b8381111561312e576000848401525b50505050565b6000600282049050600182168061314c57607f821691505b602082108114156131605761315f61323e565b5b50919050565b61316f8261329c565b810181811067ffffffffffffffff8211171561318e5761318d61326d565b5b80604052505050565b60006131a2826130e8565b91507fffffffffffffffffffffffffffffffffffffffffffffffffffffffffffffffff8214156131d5576131d46131e0565b5b600182019050919050565b7f4e487b7100000000000000000000000000000000000000000000000000000000600052601160045260246000fd5b7f4e487b7100000000000000000000000000000000000000000000000000000000600052601260045260246000fd5b7f4e487b7100000000000000000000000000000000000000000000000000000000600052602260045260246000fd5b7f4e487b7100000000000000000000000000000000000000000000000000000000600052604160045260246000fd5b6000601f19601f8301169050919050565b7f5468697320746f6b656e20616c72656164792065786973747300000000000000600082015250565b7f436f756e7465723a2064656372656d656e74206f766572666c6f770000000000600082015250565b7f596f75206d75737420626520746865206f776e6572206f7220617070726f766560008201527f6420627920746865206f776e6572206f66207468697320746f6b656e00000000602082015250565b7f596f75206d75737420626520746865206f776e6572206f662074686520746f6b60008201527f656e000000000000000000000000000000000000000000000000000000000000602082015250565b7f4d75737420626520612076616c696420746f2061646472657373000000000000600082015250565b7f546f6b656e20646f6573206e6f74206578697374000000000000000000000000600082015250565b7f596f75206d75737420626520746865206f776e6572206f662074686520636f6e60008201527f747261637420746f20656e74657220746869732066756e6374696f6e00000000602082015250565b7f796f75206d75737420696e707574206120626f6f6c65616e2076616c75650000600082015250565b7f4d75737420656e74657220612076616c69642061646472657373000000000000600082015250565b7f596f75206d757374206e6f7420626520746865206f776e6572206f662074686560008201527f20746f6b656e20796f752061726520617070726f76696e670000000000000000602082015250565b7f54686520636f6e7472616374207061757365207374617475732069732074686560008201527f2073616d6520617320696e70757420617267756d656e74000000000000000000602082015250565b61353781613074565b811461354257600080fd5b50565b61354e81613086565b811461355957600080fd5b50565b61356581613092565b811461357057600080fd5b50565b61357c8161309c565b811461358757600080fd5b50565b613593816130e8565b811461359e57600080fd5b5056fea2646970667358221220a84d04ec6adfb7c4126c4559803ad538ffbc50f7f1e4ba64ed08c32e8fa945a964736f6c63430008040033",
  "linkReferences": {},
  "deployedLinkReferences": {}
}