{
  "_format": "hh-sol-artifact-1",
  "contractName": "ERC721Mintable",
  "sourceName": "contracts/ERC721Mintable.sol",
  "abi": [
    {
      "inputs": [
        {
          "internalType": "string",
          "name": "name",
          "type": "string"
        },
        {
          "internalType": "string",
          "name": "symbol",
          "type": "string"
        },
        {
          "internalType": "string",
          "name": "baseTokenURI",
          "type": "string"
        }
      ],
      "stateMutability": "nonpayable",
      "type": "constructor"
    },
    {
      "anonymous": false,
      "inputs": [
        {
          "indexed": true,
          "internalType": "address",
          "name": "owner",
          "type": "address"
        },
        {
          "indexed": true,
          "internalType": "address",
          "name": "approved",
          "type": "address"
        },
        {
          "indexed": true,
          "internalType": "uint256",
          "name": "tokenId",
          "type": "uint256"
        }
      ],
      "name": "Approval",
      "type": "event"
    },
    {
      "anonymous": false,
      "inputs": [
        {
          "indexed": true,
          "internalType": "address",
          "name": "owner",
          "type": "address"
        },
        {
          "indexed": true,
          "internalType": "address",
          "name": "operator",
          "type": "address"
        },
        {
          "indexed": false,
          "internalType": "bool",
          "name": "approved",
          "type": "bool"
        }
      ],
      "name": "ApprovalForAll",
      "type": "event"
    },
    {
      "anonymous": false,
      "inputs": [
        {
          "indexed": false,
          "internalType": "bool",
          "name": "value",
          "type": "bool"
        }
      ],
      "name": "Paused",
      "type": "event"
    },
    {
      "anonymous": false,
      "inputs": [
        {
          "indexed": true,
          "internalType": "address",
          "name": "from",
          "type": "address"
        },
        {
          "indexed": true,
          "internalType": "address",
          "name": "to",
          "type": "address"
        },
        {
          "indexed": true,
          "internalType": "uint256",
          "name": "tokenId",
          "type": "uint256"
        }
      ],
      "name": "Transfer",
      "type": "event"
    },
    {
      "anonymous": false,
      "inputs": [
        {
          "indexed": false,
          "internalType": "bool",
          "name": "value",
          "type": "bool"
        }
      ],
      "name": "UnPaused",
      "type": "event"
    },
    {
      "anonymous": false,
      "inputs": [
        {
          "indexed": false,
          "internalType": "address",
          "name": "newOwner",
          "type": "address"
        },
        {
          "indexed": false,
          "internalType": "address",
          "name": "oldOwner",
          "type": "address"
        }
      ],
      "name": "ownershipTransfered",
      "type": "event"
    },
    {
      "inputs": [
        {
          "internalType": "bytes32",
          "name": "_myid",
          "type": "bytes32"
        },
        {
          "internalType": "string",
          "name": "_result",
          "type": "string"
        }
      ],
      "name": "__callback",
      "outputs": [],
      "stateMutability": "nonpayable",
      "type": "function"
    },
    {
      "inputs": [
        {
          "internalType": "bytes32",
          "name": "_myid",
          "type": "bytes32"
        },
        {
          "internalType": "string",
          "name": "_result",
          "type": "string"
        },
        {
          "internalType": "bytes",
          "name": "_proof",
          "type": "bytes"
        }
      ],
      "name": "__callback",
      "outputs": [],
      "stateMutability": "nonpayable",
      "type": "function"
    },
    {
      "inputs": [
        {
          "internalType": "address",
          "name": "to",
          "type": "address"
        },
        {
          "internalType": "uint256",
          "name": "tokenId",
          "type": "uint256"
        }
      ],
      "name": "approve",
      "outputs": [],
      "stateMutability": "nonpayable",
      "type": "function"
    },
    {
      "inputs": [
        {
          "internalType": "address",
          "name": "owner",
          "type": "address"
        }
      ],
      "name": "balanceOf",
      "outputs": [
        {
          "internalType": "uint256",
          "name": "",
          "type": "uint256"
        }
      ],
      "stateMutability": "view",
      "type": "function"
    },
    {
      "inputs": [
        {
          "internalType": "uint256",
          "name": "tokenId",
          "type": "uint256"
        }
      ],
      "name": "getApproved",
      "outputs": [
        {
          "internalType": "address",
          "name": "",
          "type": "address"
        }
      ],
      "stateMutability": "view",
      "type": "function"
    },
    {
      "inputs": [],
      "name": "getBaseTokenURI",
      "outputs": [
        {
          "internalType": "string",
          "name": "",
          "type": "string"
        }
      ],
      "stateMutability": "view",
      "type": "function"
    },
    {
      "inputs": [],
      "name": "getName",
      "outputs": [
        {
          "internalType": "string",
          "name": "",
          "type": "string"
        }
      ],
      "stateMutability": "view",
      "type": "function"
    },
    {
      "inputs": [],
      "name": "getOwner",
      "outputs": [
        {
          "internalType": "address",
          "name": "",
          "type": "address"
        }
      ],
      "stateMutability": "view",
      "type": "function"
    },
    {
      "inputs": [],
      "name": "getPauseStatus",
      "outputs": [
        {
          "internalType": "bool",
          "name": "status",
          "type": "bool"
        }
      ],
      "stateMutability": "view",
      "type": "function"
    },
    {
      "inputs": [],
      "name": "getSymbol",
      "outputs": [
        {
          "internalType": "string",
          "name": "",
          "type": "string"
        }
      ],
      "stateMutability": "view",
      "type": "function"
    },
    {
      "inputs": [
        {
          "internalType": "address",
          "name": "owner",
          "type": "address"
        },
        {
          "internalType": "address",
          "name": "operator",
          "type": "address"
        }
      ],
      "name": "isApprovedForAll",
      "outputs": [
        {
          "internalType": "bool",
          "name": "",
          "type": "bool"
        }
      ],
      "stateMutability": "view",
      "type": "function"
    },
    {
      "inputs": [
        {
          "internalType": "address",
          "name": "to",
          "type": "address"
        },
        {
          "internalType": "uint256",
          "name": "tokenId",
          "type": "uint256"
        }
      ],
      "name": "mint",
      "outputs": [
        {
          "internalType": "bool",
          "name": "",
          "type": "bool"
        }
      ],
      "stateMutability": "nonpayable",
      "type": "function"
    },
    {
      "inputs": [
        {
          "internalType": "uint256",
          "name": "tokenId",
          "type": "uint256"
        }
      ],
      "name": "ownerOf",
      "outputs": [
        {
          "internalType": "address",
          "name": "",
          "type": "address"
        }
      ],
      "stateMutability": "view",
      "type": "function"
    },
    {
      "inputs": [
        {
          "internalType": "address",
          "name": "from",
          "type": "address"
        },
        {
          "internalType": "address",
          "name": "to",
          "type": "address"
        },
        {
          "internalType": "uint256",
          "name": "tokenId",
          "type": "uint256"
        }
      ],
      "name": "safeTransferFrom",
      "outputs": [],
      "stateMutability": "nonpayable",
      "type": "function"
    },
    {
      "inputs": [
        {
          "internalType": "address",
          "name": "from",
          "type": "address"
        },
        {
          "internalType": "address",
          "name": "to",
          "type": "address"
        },
        {
          "internalType": "uint256",
          "name": "tokenId",
          "type": "uint256"
        },
        {
          "internalType": "bytes",
          "name": "_data",
          "type": "bytes"
        }
      ],
      "name": "safeTransferFrom",
      "outputs": [],
      "stateMutability": "nonpayable",
      "type": "function"
    },
    {
      "inputs": [
        {
          "internalType": "address",
          "name": "to",
          "type": "address"
        },
        {
          "internalType": "bool",
          "name": "approved",
          "type": "bool"
        }
      ],
      "name": "setApprovalForAll",
      "outputs": [],
      "stateMutability": "nonpayable",
      "type": "function"
    },
    {
      "inputs": [
        {
          "internalType": "bool",
          "name": "_value",
          "type": "bool"
        }
      ],
      "name": "setPauseStatus",
      "outputs": [],
      "stateMutability": "nonpayable",
      "type": "function"
    },
    {
      "inputs": [
        {
          "internalType": "bytes4",
          "name": "interfaceId",
          "type": "bytes4"
        }
      ],
      "name": "supportsInterface",
      "outputs": [
        {
          "internalType": "bool",
          "name": "",
          "type": "bool"
        }
      ],
      "stateMutability": "view",
      "type": "function"
    },
    {
      "inputs": [
        {
          "internalType": "uint256",
          "name": "index",
          "type": "uint256"
        }
      ],
      "name": "tokenByIndex",
      "outputs": [
        {
          "internalType": "uint256",
          "name": "",
          "type": "uint256"
        }
      ],
      "stateMutability": "view",
      "type": "function"
    },
    {
      "inputs": [
        {
          "internalType": "address",
          "name": "owner",
          "type": "address"
        },
        {
          "internalType": "uint256",
          "name": "index",
          "type": "uint256"
        }
      ],
      "name": "tokenOfOwnerByIndex",
      "outputs": [
        {
          "internalType": "uint256",
          "name": "",
          "type": "uint256"
        }
      ],
      "stateMutability": "view",
      "type": "function"
    },
    {
      "inputs": [
        {
          "internalType": "uint256",
          "name": "tokenId",
          "type": "uint256"
        }
      ],
      "name": "tokenURI",
      "outputs": [
        {
          "internalType": "string",
          "name": "",
          "type": "string"
        }
      ],
      "stateMutability": "view",
      "type": "function"
    },
    {
      "inputs": [],
      "name": "totalSupply",
      "outputs": [
        {
          "internalType": "uint256",
          "name": "",
          "type": "uint256"
        }
      ],
      "stateMutability": "view",
      "type": "function"
    },
    {
      "inputs": [
        {
          "internalType": "address",
          "name": "from",
          "type": "address"
        },
        {
          "internalType": "address",
          "name": "to",
          "type": "address"
        },
        {
          "internalType": "uint256",
          "name": "tokenId",
          "type": "uint256"
        }
      ],
      "name": "transferFrom",
      "outputs": [],
      "stateMutability": "nonpayable",
      "type": "function"
    },
    {
      "inputs": [
        {
          "internalType": "address",
          "name": "_newOwner",
          "type": "address"
        }
      ],
      "name": "transferOwnership",
      "outputs": [],
      "stateMutability": "nonpayable",
      "type": "function"
    }
  ],
  "bytecode": "0x60806040523480156200001157600080fd5b5060405162003f8f38038062003f8f83398181016040528101906200003791906200030d565b828282336000806101000a81548173ffffffffffffffffffffffffffffffffffffffff021916908373ffffffffffffffffffffffffffffffffffffffff16021790555060008060146101000a81548160ff021916908315150217905550620000ac6301ffc9a760e01b6200014b60201b60201c565b620000c46380ac58cd60e01b6200014b60201b60201c565b620000dc63780e9d6360e01b6200014b60201b60201c565b82600f9080519060200190620000f4929190620001eb565b5081601090805190602001906200010d929190620001eb565b50806011908051906020019062000126929190620001eb565b506200013f635b5e139f60e01b6200014b60201b60201c565b5050505050506200051e565b63ffffffff60e01b817bffffffffffffffffffffffffffffffffffffffffffffffffffffffff191614156200017f57600080fd5b6001806000837bffffffffffffffffffffffffffffffffffffffffffffffffffffffff19167bffffffffffffffffffffffffffffffffffffffffffffffffffffffff1916815260200190815260200160002060006101000a81548160ff02191690831515021790555050565b828054620001f99062000443565b90600052602060002090601f0160209004810192826200021d576000855562000269565b82601f106200023857805160ff191683800117855562000269565b8280016001018555821562000269579182015b82811115620002685782518255916020019190600101906200024b565b5b5090506200027891906200027c565b5090565b5b80821115620002975760008160009055506001016200027d565b5090565b6000620002b2620002ac84620003d7565b620003ae565b905082815260208101848484011115620002cb57600080fd5b620002d88482856200040d565b509392505050565b600082601f830112620002f257600080fd5b8151620003048482602086016200029b565b91505092915050565b6000806000606084860312156200032357600080fd5b600084015167ffffffffffffffff8111156200033e57600080fd5b6200034c86828701620002e0565b935050602084015167ffffffffffffffff8111156200036a57600080fd5b6200037886828701620002e0565b925050604084015167ffffffffffffffff8111156200039657600080fd5b620003a486828701620002e0565b9150509250925092565b6000620003ba620003cd565b9050620003c8828262000479565b919050565b6000604051905090565b600067ffffffffffffffff821115620003f557620003f4620004de565b5b62000400826200050d565b9050602081019050919050565b60005b838110156200042d57808201518184015260208101905062000410565b838111156200043d576000848401525b50505050565b600060028204905060018216806200045c57607f821691505b60208210811415620004735762000472620004af565b5b50919050565b62000484826200050d565b810181811067ffffffffffffffff82111715620004a657620004a5620004de565b5b80604052505050565b7f4e487b7100000000000000000000000000000000000000000000000000000000600052602260045260246000fd5b7f4e487b7100000000000000000000000000000000000000000000000000000000600052604160045260246000fd5b6000601f19601f8301169050919050565b613a61806200052e6000396000f3fe608060405234801561001057600080fd5b50600436106101585760003560e01c806342842e0e116100c3578063b88d4fde1161007c578063b88d4fde146103eb578063bdc32be014610407578063c38bb53714610425578063c87b56dd14610441578063e985e9c514610471578063f2fde38b146104a157610158565b806342842e0e146103055780634f6ccce7146103215780636352211e1461035157806370a0823114610381578063893d20e8146103b1578063a22cb465146103cf57610158565b80631d9023cb116101155780631d9023cb1461023357806323b872dd1461025157806327dc297e1461026d5780632f745c591461028957806338bbfa50146102b957806340c10f19146102d557610158565b806301ffc9a71461015d578063081812fc1461018d578063095ea7b3146101bd57806315070401146101d957806317d7de7c146101f757806318160ddd14610215575b600080fd5b61017760048036038101906101729190612da3565b6104bd565b6040516101849190613114565b60405180910390f35b6101a760048036038101906101a29190612df5565b610525565b6040516101b49190613084565b60405180910390f35b6101d760048036038101906101d29190612c6b565b610562565b005b6101e1610754565b6040516101ee919061312f565b60405180910390f35b6101ff6107e6565b60405161020c919061312f565b60405180910390f35b61021d610878565b60405161022a91906132f1565b60405180910390f35b61023b610885565b6040516102489190613114565b60405180910390f35b61026b60048036038101906102669190612b65565b61089b565b005b61028760048036038101906102829190612cd0565b610944565b005b6102a3600480360381019061029e9190612c6b565b6109c6565b6040516102b091906132f1565b60405180910390f35b6102d360048036038101906102ce9190612d24565b610a66565b005b6102ef60048036038101906102ea9190612c6b565b610a89565b6040516102fc9190613114565b60405180910390f35b61031f600480360381019061031a9190612b65565b610b87565b005b61033b60048036038101906103369190612df5565b610bf7565b60405161034891906132f1565b60405180910390f35b61036b60048036038101906103669190612df5565b610c58565b6040516103789190613084565b60405180910390f35b61039b60048036038101906103969190612b00565b610c95565b6040516103a891906132f1565b60405180910390f35b6103b9610ce5565b6040516103c69190613084565b60405180910390f35b6103e960048036038101906103e49190612c2f565b610d0e565b005b61040560048036038101906104009190612bb4565b610e94565b005b61040f610f0a565b60405161041c919061312f565b60405180910390f35b61043f600480360381019061043a9190612ca7565b610f9c565b005b61045b60048036038101906104569190612df5565b611187565b604051610468919061312f565b60405180910390f35b61048b60048036038101906104869190612b29565b61123e565b6040516104989190613114565b60405180910390f35b6104bb60048036038101906104b69190612b00565b6112d2565b005b600060016000837bffffffffffffffffffffffffffffffffffffffffffffffffffffffff19167bffffffffffffffffffffffffffffffffffffffffffffffffffffffff1916815260200190815260200160002060009054906101000a900460ff169050919050565b60006003600083815260200190815260200160002060009054906101000a900473ffffffffffffffffffffffffffffffffffffffff169050919050565b600060149054906101000a900460ff16156105b2576040517f08c379a00000000000000000000000000000000000000000000000000000000081526004016105a990613271565b60405180910390fd5b60006002600083815260200190815260200160002060009054906101000a900473ffffffffffffffffffffffffffffffffffffffff1690508073ffffffffffffffffffffffffffffffffffffffff168373ffffffffffffffffffffffffffffffffffffffff161415610659576040517f08c379a0000000000000000000000000000000000000000000000000000000008152600401610650906132d1565b60405180910390fd5b8073ffffffffffffffffffffffffffffffffffffffff163373ffffffffffffffffffffffffffffffffffffffff1614806106995750610698833361123e565b5b6106a257600080fd5b826003600084815260200190815260200160002060006101000a81548173ffffffffffffffffffffffffffffffffffffffff021916908373ffffffffffffffffffffffffffffffffffffffff160217905550818373ffffffffffffffffffffffffffffffffffffffff168273ffffffffffffffffffffffffffffffffffffffff167f8c5be1e5ebec7d5bd14f71427d1e84f3dd0314c0f7b2291e5b200ac8c7c3b92560405160405180910390a4505050565b60606010805461076390613546565b80601f016020809104026020016040519081016040528092919081815260200182805461078f90613546565b80156107dc5780601f106107b1576101008083540402835291602001916107dc565b820191906000526020600020905b8154815290600101906020018083116107bf57829003601f168201915b5050505050905090565b6060600f80546107f590613546565b80601f016020809104026020016040519081016040528092919081815260200182805461082190613546565b801561086e5780601f106108435761010080835404028352916020019161086e565b820191906000526020600020905b81548152906001019060200180831161085157829003601f168201915b5050505050905090565b6000600880549050905090565b60008060149054906101000a900460ff16905090565b600060149054906101000a900460ff16156108eb576040517f08c379a00000000000000000000000000000000000000000000000000000000081526004016108e290613271565b60405180910390fd5b6108f533826113dc565b610934576040517f08c379a000000000000000000000000000000000000000000000000000000000815260040161092b906131d1565b60405180910390fd5b61093f838383611471565b505050565b6109c28282600067ffffffffffffffff81111561098a577f4e487b7100000000000000000000000000000000000000000000000000000000600052604160045260246000fd5b6040519080825280601f01601f1916602001820160405280156109bc5781602001600182028036833780820191505090505b50610a66565b5050565b60006109d183610c95565b82106109dc57600080fd5b600660008473ffffffffffffffffffffffffffffffffffffffff1673ffffffffffffffffffffffffffffffffffffffff1681526020019081526020016000208281548110610a53577f4e487b7100000000000000000000000000000000000000000000000000000000600052603260045260246000fd5b9060005260206000200154905092915050565b6000801b600d60008060001b815260200190815260200160002081905550505050565b60008060009054906101000a900473ffffffffffffffffffffffffffffffffffffffff1673ffffffffffffffffffffffffffffffffffffffff163373ffffffffffffffffffffffffffffffffffffffff1614610b1a576040517f08c379a0000000000000000000000000000000000000000000000000000000008152600401610b1190613251565b60405180910390fd5b600060149054906101000a900460ff1615610b6a576040517f08c379a0000000000000000000000000000000000000000000000000000000008152600401610b6190613271565b60405180910390fd5b610b7483836114e5565b610b7d8261159f565b6001905092915050565b600060149054906101000a900460ff1615610bd7576040517f08c379a0000000000000000000000000000000000000000000000000000000008152600401610bce90613271565b60405180910390fd5b610bf283838360405180602001604052806000815250610e94565b505050565b6000610c01610878565b8210610c0c57600080fd5b60088281548110610c46577f4e487b7100000000000000000000000000000000000000000000000000000000600052603260045260246000fd5b90600052602060002001549050919050565b60006002600083815260200190815260200160002060009054906101000a900473ffffffffffffffffffffffffffffffffffffffff169050919050565b6000610cde600460008473ffffffffffffffffffffffffffffffffffffffff1673ffffffffffffffffffffffffffffffffffffffff1681526020019081526020016000206116b3565b9050919050565b60008060009054906101000a900473ffffffffffffffffffffffffffffffffffffffff16905090565b600060149054906101000a900460ff1615610d5e576040517f08c379a0000000000000000000000000000000000000000000000000000000008152600401610d5590613271565b60405180910390fd5b3373ffffffffffffffffffffffffffffffffffffffff168273ffffffffffffffffffffffffffffffffffffffff161415610d9757600080fd5b80600560003373ffffffffffffffffffffffffffffffffffffffff1673ffffffffffffffffffffffffffffffffffffffff16815260200190815260200160002060008473ffffffffffffffffffffffffffffffffffffffff1673ffffffffffffffffffffffffffffffffffffffff16815260200190815260200160002060006101000a81548160ff0219169083151502179055508173ffffffffffffffffffffffffffffffffffffffff163373ffffffffffffffffffffffffffffffffffffffff167f17307eab39ab6107e8899845ad3d59bd9653f200f220920489ca2b5937696c3183604051610e889190613114565b60405180910390a35050565b600060149054906101000a900460ff1615610ee4576040517f08c379a0000000000000000000000000000000000000000000000000000000008152600401610edb90613271565b60405180910390fd5b610eef84848461089b565b610efb848484846116c1565b610f0457600080fd5b50505050565b606060118054610f1990613546565b80601f0160208091040260200160405190810160405280929190818152602001828054610f4590613546565b8015610f925780601f10610f6757610100808354040283529160200191610f92565b820191906000526020600020905b815481529060010190602001808311610f7557829003601f168201915b5050505050905090565b60008054906101000a900473ffffffffffffffffffffffffffffffffffffffff1673ffffffffffffffffffffffffffffffffffffffff163373ffffffffffffffffffffffffffffffffffffffff161461102a576040517f08c379a000000000000000000000000000000000000000000000000000000000815260040161102190613251565b60405180910390fd5b600115158115151480611041575060001515811515145b611080576040517f08c379a000000000000000000000000000000000000000000000000000000000815260040161107790613291565b60405180910390fd5b801515600060149054906101000a900460ff16151514156110d6576040517f08c379a00000000000000000000000000000000000000000000000000000000081526004016110cd90613151565b60405180910390fd5b80156111325780600060146101000a81548160ff0219169083151502179055507f0e2fb031ee032dc02d8011dc50b816eb450cf856abd8261680dac74f72165bd2816040516111259190613114565b60405180910390a1611184565b80600060146101000a81548160ff0219169083151502179055507fbef695c228e00c57176296d6577586ca18da1cd098f552037934a1ffd0557c2c8160405161117b9190613114565b60405180910390a15b50565b6060611192826117d8565b61119b57600080fd5b6012600083815260200190815260200160002080546111b990613546565b80601f01602080910402602001604051908101604052809291908181526020018280546111e590613546565b80156112325780601f1061120757610100808354040283529160200191611232565b820191906000526020600020905b81548152906001019060200180831161121557829003601f168201915b50505050509050919050565b6000600560008473ffffffffffffffffffffffffffffffffffffffff1673ffffffffffffffffffffffffffffffffffffffff16815260200190815260200160002060008373ffffffffffffffffffffffffffffffffffffffff1673ffffffffffffffffffffffffffffffffffffffff16815260200190815260200160002060009054906101000a900460ff16905092915050565b60008054906101000a900473ffffffffffffffffffffffffffffffffffffffff1673ffffffffffffffffffffffffffffffffffffffff163373ffffffffffffffffffffffffffffffffffffffff1614611360576040517f08c379a000000000000000000000000000000000000000000000000000000000815260040161135790613251565b60405180910390fd5b806000806101000a81548173ffffffffffffffffffffffffffffffffffffffff021916908373ffffffffffffffffffffffffffffffffffffffff1602179055507feb38696426b5aa8881f6ba9f2f3e0ac06ee7ea6ffbe944120578d61191ef610181336040516113d192919061309f565b60405180910390a150565b6000806113e883610c58565b90508073ffffffffffffffffffffffffffffffffffffffff168473ffffffffffffffffffffffffffffffffffffffff16148061145757508373ffffffffffffffffffffffffffffffffffffffff1661143f84610525565b73ffffffffffffffffffffffffffffffffffffffff16145b806114685750611467818561123e565b5b91505092915050565b600060149054906101000a900460ff16156114c1576040517f08c379a00000000000000000000000000000000000000000000000000000000081526004016114b890613271565b60405180910390fd5b6114cc83838361184a565b6114d68382611ac9565b6114e08282611cf2565b505050565b600060149054906101000a900460ff1615611535576040517f08c379a000000000000000000000000000000000000000000000000000000000815260040161152c90613271565b60405180910390fd5b61153e816117d8565b1561157e576040517f08c379a0000000000000000000000000000000000000000000000000000000008152600401611575906131b1565b60405180910390fd5b6115888282611db6565b6115928282611cf2565b61159b81611fbe565b5050565b6115a8816117d8565b6115e7576040517f08c379a00000000000000000000000000000000000000000000000000000000081526004016115de90613231565b60405180910390fd5b6000611685601180546115f990613546565b80601f016020809104026020016040519081016040528092919081815260200182805461162590613546565b80156116725780601f1061164757610100808354040283529160200191611672565b820191906000526020600020905b81548152906001019060200180831161165557829003601f168201915b505050505061168084612007565b61220b565b9050806012600084815260200190815260200160002090805190602001906116ae92919061290f565b505050565b600081600001549050919050565b60006116e28473ffffffffffffffffffffffffffffffffffffffff1661224f565b6116ef57600190506117d0565b60008473ffffffffffffffffffffffffffffffffffffffff1663150b7a02338887876040518563ffffffff1660e01b815260040161173094939291906130c8565b602060405180830381600087803b15801561174a57600080fd5b505af115801561175e573d6000803e3d6000fd5b505050506040513d601f19601f820116820180604052508101906117829190612dcc565b905063150b7a0260e01b7bffffffffffffffffffffffffffffffffffffffffffffffffffffffff1916817bffffffffffffffffffffffffffffffffffffffffffffffffffffffff1916149150505b949350505050565b6000806002600084815260200190815260200160002060009054906101000a900473ffffffffffffffffffffffffffffffffffffffff169050600073ffffffffffffffffffffffffffffffffffffffff168173ffffffffffffffffffffffffffffffffffffffff161415915050919050565b600060149054906101000a900460ff161561189a576040517f08c379a000000000000000000000000000000000000000000000000000000000815260040161189190613271565b60405180910390fd5b6118a381610c58565b73ffffffffffffffffffffffffffffffffffffffff168373ffffffffffffffffffffffffffffffffffffffff1614611910576040517f08c379a0000000000000000000000000000000000000000000000000000000008152600401611907906131f1565b60405180910390fd5b600073ffffffffffffffffffffffffffffffffffffffff168273ffffffffffffffffffffffffffffffffffffffff161415611980576040517f08c379a000000000000000000000000000000000000000000000000000000000815260040161197790613211565b60405180910390fd5b61198981612272565b6119d0600460008573ffffffffffffffffffffffffffffffffffffffff1673ffffffffffffffffffffffffffffffffffffffff168152602001908152602001600020612380565b611a17600460008473ffffffffffffffffffffffffffffffffffffffff1673ffffffffffffffffffffffffffffffffffffffff1681526020019081526020016000206123dc565b816002600083815260200190815260200160002060006101000a81548173ffffffffffffffffffffffffffffffffffffffff021916908373ffffffffffffffffffffffffffffffffffffffff160217905550808273ffffffffffffffffffffffffffffffffffffffff168473ffffffffffffffffffffffffffffffffffffffff167fddf252ad1be2c89b69c2b068fc378daa952ba7f163c4a11628f55a4df523b3ef60405160405180910390a4505050565b60006001600660008573ffffffffffffffffffffffffffffffffffffffff1673ffffffffffffffffffffffffffffffffffffffff16815260200190815260200160002080549050611b1a9190613452565b9050600060076000848152602001908152602001600020549050818114611c61576000600660008673ffffffffffffffffffffffffffffffffffffffff1673ffffffffffffffffffffffffffffffffffffffff1681526020019081526020016000208381548110611bb4577f4e487b7100000000000000000000000000000000000000000000000000000000600052603260045260246000fd5b9060005260206000200154905080600660008773ffffffffffffffffffffffffffffffffffffffff1673ffffffffffffffffffffffffffffffffffffffff1681526020019081526020016000208381548110611c39577f4e487b7100000000000000000000000000000000000000000000000000000000600052603260045260246000fd5b9060005260206000200181905550816007600083815260200190815260200160002081905550505b600660008573ffffffffffffffffffffffffffffffffffffffff1673ffffffffffffffffffffffffffffffffffffffff168152602001908152602001600020805480611cd6577f4e487b7100000000000000000000000000000000000000000000000000000000600052603160045260246000fd5b6001900381819060005260206000200160009055905550505050565b600660008373ffffffffffffffffffffffffffffffffffffffff1673ffffffffffffffffffffffffffffffffffffffff168152602001908152602001600020805490506007600083815260200190815260200160002081905550600660008373ffffffffffffffffffffffffffffffffffffffff1673ffffffffffffffffffffffffffffffffffffffff1681526020019081526020016000208190806001815401808255809150506001900390600052602060002001600090919091909150555050565b600060149054906101000a900460ff1615611e06576040517f08c379a0000000000000000000000000000000000000000000000000000000008152600401611dfd90613271565b60405180910390fd5b60001515611e13826117d8565b151514611e55576040517f08c379a0000000000000000000000000000000000000000000000000000000008152600401611e4c90613171565b60405180910390fd5b600073ffffffffffffffffffffffffffffffffffffffff168273ffffffffffffffffffffffffffffffffffffffff161415611ec5576040517f08c379a0000000000000000000000000000000000000000000000000000000008152600401611ebc906132b1565b60405180910390fd5b816002600083815260200190815260200160002060006101000a81548173ffffffffffffffffffffffffffffffffffffffff021916908373ffffffffffffffffffffffffffffffffffffffff160217905550611f5e600460008473ffffffffffffffffffffffffffffffffffffffff1673ffffffffffffffffffffffffffffffffffffffff1681526020019081526020016000206123dc565b808273ffffffffffffffffffffffffffffffffffffffff16600073ffffffffffffffffffffffffffffffffffffffff167fddf252ad1be2c89b69c2b068fc378daa952ba7f163c4a11628f55a4df523b3ef60405160405180910390a45050565b6008805490506009600083815260200190815260200160002081905550600881908060018154018082558091505060019003906000526020600020016000909190919091505550565b6060600082141561204f576040518060400160405280600181526020017f30000000000000000000000000000000000000000000000000000000000000008152509050612206565b600082905060005b6000821461208157808061206a906135a9565b915050600a8261207a9190613421565b9150612057565b60008167ffffffffffffffff8111156120c3577f4e487b7100000000000000000000000000000000000000000000000000000000600052604160045260246000fd5b6040519080825280601f01601f1916602001820160405280156120f55781602001600182028036833780820191505090505b50905060006001836121079190613452565b90505b600086146121fe57600a8681612149577f4e487b7100000000000000000000000000000000000000000000000000000000600052601260045260246000fd5b0660300160f81b82828060019003935081518110612190577f4e487b7100000000000000000000000000000000000000000000000000000000600052603260045260246000fd5b60200101907effffffffffffffffffffffffffffffffffffffffffffffffffffffffffffff1916908160001a905350600a86816121f6577f4e487b7100000000000000000000000000000000000000000000000000000000600052601260045260246000fd5b04955061210a565b819450505050505b919050565b606061224783836040518060200160405280600081525060405180602001604052806000815250604051806020016040528060008152506123f2565b905092915050565b6000808273ffffffffffffffffffffffffffffffffffffffff163b119050919050565b600060149054906101000a900460ff16156122c2576040517f08c379a00000000000000000000000000000000000000000000000000000000081526004016122b990613271565b60405180910390fd5b600073ffffffffffffffffffffffffffffffffffffffff166003600083815260200190815260200160002060009054906101000a900473ffffffffffffffffffffffffffffffffffffffff1673ffffffffffffffffffffffffffffffffffffffff161461237d5760006003600083815260200190815260200160002060006101000a81548173ffffffffffffffffffffffffffffffffffffffff021916908373ffffffffffffffffffffffffffffffffffffffff1602179055505b50565b600081600001549050600081116123cc576040517f08c379a00000000000000000000000000000000000000000000000000000000081526004016123c390613191565b60405180910390fd5b6001810382600001819055505050565b6001816000016000828254019250508190555050565b60606000869050600086905060008690506000869050600086905060008151835185518751895161242391906133cb565b61242d91906133cb565b61243791906133cb565b61244191906133cb565b67ffffffffffffffff811115612480577f4e487b7100000000000000000000000000000000000000000000000000000000600052604160045260246000fd5b6040519080825280601f01601f1916602001820160405280156124b25781602001600182028036833780820191505090505b5090506000819050600080600090505b885181101561259657888181518110612504577f4e487b7100000000000000000000000000000000000000000000000000000000600052603260045260246000fd5b602001015160f81c60f81b83838061251b906135a9565b945081518110612554577f4e487b7100000000000000000000000000000000000000000000000000000000600052603260045260246000fd5b60200101907effffffffffffffffffffffffffffffffffffffffffffffffffffffffffffff1916908160001a905350808061258e906135a9565b9150506124c2565b600090505b875181101561266f578781815181106125dd577f4e487b7100000000000000000000000000000000000000000000000000000000600052603260045260246000fd5b602001015160f81c60f81b8383806125f4906135a9565b94508151811061262d577f4e487b7100000000000000000000000000000000000000000000000000000000600052603260045260246000fd5b60200101907effffffffffffffffffffffffffffffffffffffffffffffffffffffffffffff1916908160001a9053508080612667906135a9565b91505061259b565b600090505b8651811015612748578681815181106126b6577f4e487b7100000000000000000000000000000000000000000000000000000000600052603260045260246000fd5b602001015160f81c60f81b8383806126cd906135a9565b945081518110612706577f4e487b7100000000000000000000000000000000000000000000000000000000600052603260045260246000fd5b60200101907effffffffffffffffffffffffffffffffffffffffffffffffffffffffffffff1916908160001a9053508080612740906135a9565b915050612674565b600090505b85518110156128215785818151811061278f577f4e487b7100000000000000000000000000000000000000000000000000000000600052603260045260246000fd5b602001015160f81c60f81b8383806127a6906135a9565b9450815181106127df577f4e487b7100000000000000000000000000000000000000000000000000000000600052603260045260246000fd5b60200101907effffffffffffffffffffffffffffffffffffffffffffffffffffffffffffff1916908160001a9053508080612819906135a9565b91505061274d565b600090505b84518110156128fa57848181518110612868577f4e487b7100000000000000000000000000000000000000000000000000000000600052603260045260246000fd5b602001015160f81c60f81b83838061287f906135a9565b9450815181106128b8577f4e487b7100000000000000000000000000000000000000000000000000000000600052603260045260246000fd5b60200101907effffffffffffffffffffffffffffffffffffffffffffffffffffffffffffff1916908160001a90535080806128f2906135a9565b915050612826565b82995050505050505050505095945050505050565b82805461291b90613546565b90600052602060002090601f01602090048101928261293d5760008555612984565b82601f1061295657805160ff1916838001178555612984565b82800160010185558215612984579182015b82811115612983578251825591602001919060010190612968565b5b5090506129919190612995565b5090565b5b808211156129ae576000816000905550600101612996565b5090565b60006129c56129c084613331565b61330c565b9050828152602081018484840111156129dd57600080fd5b6129e8848285613504565b509392505050565b6000612a036129fe84613362565b61330c565b905082815260208101848484011115612a1b57600080fd5b612a26848285613504565b509392505050565b600081359050612a3d816139b8565b92915050565b600081359050612a52816139cf565b92915050565b600081359050612a67816139e6565b92915050565b600081359050612a7c816139fd565b92915050565b600081519050612a91816139fd565b92915050565b600082601f830112612aa857600080fd5b8135612ab88482602086016129b2565b91505092915050565b600082601f830112612ad257600080fd5b8135612ae28482602086016129f0565b91505092915050565b600081359050612afa81613a14565b92915050565b600060208284031215612b1257600080fd5b6000612b2084828501612a2e565b91505092915050565b60008060408385031215612b3c57600080fd5b6000612b4a85828601612a2e565b9250506020612b5b85828601612a2e565b9150509250929050565b600080600060608486031215612b7a57600080fd5b6000612b8886828701612a2e565b9350506020612b9986828701612a2e565b9250506040612baa86828701612aeb565b9150509250925092565b60008060008060808587031215612bca57600080fd5b6000612bd887828801612a2e565b9450506020612be987828801612a2e565b9350506040612bfa87828801612aeb565b925050606085013567ffffffffffffffff811115612c1757600080fd5b612c2387828801612a97565b91505092959194509250565b60008060408385031215612c4257600080fd5b6000612c5085828601612a2e565b9250506020612c6185828601612a43565b9150509250929050565b60008060408385031215612c7e57600080fd5b6000612c8c85828601612a2e565b9250506020612c9d85828601612aeb565b9150509250929050565b600060208284031215612cb957600080fd5b6000612cc784828501612a43565b91505092915050565b60008060408385031215612ce357600080fd5b6000612cf185828601612a58565b925050602083013567ffffffffffffffff811115612d0e57600080fd5b612d1a85828601612ac1565b9150509250929050565b600080600060608486031215612d3957600080fd5b6000612d4786828701612a58565b935050602084013567ffffffffffffffff811115612d6457600080fd5b612d7086828701612ac1565b925050604084013567ffffffffffffffff811115612d8d57600080fd5b612d9986828701612a97565b9150509250925092565b600060208284031215612db557600080fd5b6000612dc384828501612a6d565b91505092915050565b600060208284031215612dde57600080fd5b6000612dec84828501612a82565b91505092915050565b600060208284031215612e0757600080fd5b6000612e1584828501612aeb565b91505092915050565b612e2781613486565b82525050565b612e3681613498565b82525050565b6000612e4782613393565b612e5181856133a9565b9350612e61818560208601613513565b612e6a816136ae565b840191505092915050565b6000612e808261339e565b612e8a81856133ba565b9350612e9a818560208601613513565b612ea3816136ae565b840191505092915050565b6000612ebb6025836133ba565b9150612ec6826136bf565b604082019050919050565b6000612ede6019836133ba565b9150612ee98261370e565b602082019050919050565b6000612f01601b836133ba565b9150612f0c82613737565b602082019050919050565b6000612f246016836133ba565b9150612f2f82613760565b602082019050919050565b6000612f47603c836133ba565b9150612f5282613789565b604082019050919050565b6000612f6a6022836133ba565b9150612f75826137d8565b604082019050919050565b6000612f8d601a836133ba565b9150612f9882613827565b602082019050919050565b6000612fb06014836133ba565b9150612fbb82613850565b602082019050919050565b6000612fd3603c836133ba565b9150612fde82613879565b604082019050919050565b6000612ff6603f836133ba565b9150613001826138c8565b604082019050919050565b6000613019601e836133ba565b915061302482613917565b602082019050919050565b600061303c601a836133ba565b915061304782613940565b602082019050919050565b600061305f6038836133ba565b915061306a82613969565b604082019050919050565b61307e816134fa565b82525050565b60006020820190506130996000830184612e1e565b92915050565b60006040820190506130b46000830185612e1e565b6130c16020830184612e1e565b9392505050565b60006080820190506130dd6000830187612e1e565b6130ea6020830186612e1e565b6130f76040830185613075565b81810360608301526131098184612e3c565b905095945050505050565b60006020820190506131296000830184612e2d565b92915050565b600060208201905081810360008301526131498184612e75565b905092915050565b6000602082019050818103600083015261316a81612eae565b9050919050565b6000602082019050818103600083015261318a81612ed1565b9050919050565b600060208201905081810360008301526131aa81612ef4565b9050919050565b600060208201905081810360008301526131ca81612f17565b9050919050565b600060208201905081810360008301526131ea81612f3a565b9050919050565b6000602082019050818103600083015261320a81612f5d565b9050919050565b6000602082019050818103600083015261322a81612f80565b9050919050565b6000602082019050818103600083015261324a81612fa3565b9050919050565b6000602082019050818103600083015261326a81612fc6565b9050919050565b6000602082019050818103600083015261328a81612fe9565b9050919050565b600060208201905081810360008301526132aa8161300c565b9050919050565b600060208201905081810360008301526132ca8161302f565b9050919050565b600060208201905081810360008301526132ea81613052565b9050919050565b60006020820190506133066000830184613075565b92915050565b6000613316613327565b90506133228282613578565b919050565b6000604051905090565b600067ffffffffffffffff82111561334c5761334b61367f565b5b613355826136ae565b9050602081019050919050565b600067ffffffffffffffff82111561337d5761337c61367f565b5b613386826136ae565b9050602081019050919050565b600081519050919050565b600081519050919050565b600082825260208201905092915050565b600082825260208201905092915050565b60006133d6826134fa565b91506133e1836134fa565b9250827fffffffffffffffffffffffffffffffffffffffffffffffffffffffffffffffff03821115613416576134156135f2565b5b828201905092915050565b600061342c826134fa565b9150613437836134fa565b92508261344757613446613621565b5b828204905092915050565b600061345d826134fa565b9150613468836134fa565b92508282101561347b5761347a6135f2565b5b828203905092915050565b6000613491826134da565b9050919050565b60008115159050919050565b6000819050919050565b60007fffffffff0000000000000000000000000000000000000000000000000000000082169050919050565b600073ffffffffffffffffffffffffffffffffffffffff82169050919050565b6000819050919050565b82818337600083830152505050565b60005b83811015613531578082015181840152602081019050613516565b83811115613540576000848401525b50505050565b6000600282049050600182168061355e57607f821691505b6020821081141561357257613571613650565b5b50919050565b613581826136ae565b810181811067ffffffffffffffff821117156135a05761359f61367f565b5b80604052505050565b60006135b4826134fa565b91507fffffffffffffffffffffffffffffffffffffffffffffffffffffffffffffffff8214156135e7576135e66135f2565b5b600182019050919050565b7f4e487b7100000000000000000000000000000000000000000000000000000000600052601160045260246000fd5b7f4e487b7100000000000000000000000000000000000000000000000000000000600052601260045260246000fd5b7f4e487b7100000000000000000000000000000000000000000000000000000000600052602260045260246000fd5b7f4e487b7100000000000000000000000000000000000000000000000000000000600052604160045260246000fd5b6000601f19601f8301169050919050565b7f596f75206d75737420696e697469616c697365206120646966666572656e742060008201527f76616c7565000000000000000000000000000000000000000000000000000000602082015250565b7f5468697320746f6b656e20616c72656164792065786973747300000000000000600082015250565b7f436f756e7465723a2064656372656d656e74206f766572666c6f770000000000600082015250565b7f546f6b656e494420616c72656164792065786973747300000000000000000000600082015250565b7f596f75206d75737420626520746865206f776e6572206f7220617070726f766560008201527f6420627920746865206f776e6572206f66207468697320746f6b656e00000000602082015250565b7f596f75206d75737420626520746865206f776e6572206f662074686520746f6b60008201527f656e000000000000000000000000000000000000000000000000000000000000602082015250565b7f4d75737420626520612076616c696420746f2061646472657373000000000000600082015250565b7f546f6b656e20646f6573206e6f74206578697374000000000000000000000000600082015250565b7f596f75206d75737420626520746865206f776e6572206f662074686520636f6e60008201527f747261637420746f20656e74657220746869732066756e6374696f6e00000000602082015250565b7f54686520636f6e74726163742069732063757272656e746c792070617573656460008201527f2c20746869732066756e6374696f6e206973206e6f742063616c6c61626c6500602082015250565b7f796f75206d75737420696e707574206120626f6f6c65616e2076616c75650000600082015250565b7f4d75737420656e74657220612076616c69642061646472657373000000000000600082015250565b7f596f75206d757374206e6f7420626520746865206f776e6572206f662074686560008201527f20746f6b656e20796f752061726520617070726f76696e670000000000000000602082015250565b6139c181613486565b81146139cc57600080fd5b50565b6139d881613498565b81146139e357600080fd5b50565b6139ef816134a4565b81146139fa57600080fd5b50565b613a06816134ae565b8114613a1157600080fd5b50565b613a1d816134fa565b8114613a2857600080fd5b5056fea2646970667358221220e2c6398af44f10a791338c098c9e45516235589ba783f107d1dd774dd6c47bba64736f6c63430008040033",
  "linkReferences": {},
  "deployedLinkReferences": {}
}