{
  "_format": "hh-sol-artifact-1",
  "contractName": "Ownable",
  "sourceName": "contracts/ERC721Mintable.sol",
  "abi": [
    {
      "inputs": [],
      "stateMutability": "nonpayable",
      "type": "constructor"
    },
    {
      "anonymous": false,
      "inputs": [
        {
          "indexed": false,
          "internalType": "address",
          "name": "newOwner",
          "type": "address"
        },
        {
          "indexed": false,
          "internalType": "address",
          "name": "oldOwner",
          "type": "address"
        }
      ],
      "name": "ownershipTransfered",
      "type": "event"
    },
    {
      "inputs": [],
      "name": "getOwner",
      "outputs": [
        {
          "internalType": "address",
          "name": "",
          "type": "address"
        }
      ],
      "stateMutability": "view",
      "type": "function"
    },
    {
      "inputs": [
        {
          "internalType": "address",
          "name": "_newOwner",
          "type": "address"
        }
      ],
      "name": "transferOwnership",
      "outputs": [],
      "stateMutability": "nonpayable",
      "type": "function"
    }
  ],
  "bytecode": "0x608060405234801561001057600080fd5b50336000806101000a81548173ffffffffffffffffffffffffffffffffffffffff021916908373ffffffffffffffffffffffffffffffffffffffff16021790555061035b806100606000396000f3fe608060405234801561001057600080fd5b50600436106100365760003560e01c8063893d20e81461003b578063f2fde38b14610059575b600080fd5b610043610075565b6040516100509190610218565b60405180910390f35b610073600480360381019061006e91906101bd565b61009e565b005b60008060009054906101000a900473ffffffffffffffffffffffffffffffffffffffff16905090565b60008054906101000a900473ffffffffffffffffffffffffffffffffffffffff1673ffffffffffffffffffffffffffffffffffffffff163373ffffffffffffffffffffffffffffffffffffffff161461012c576040517f08c379a00000000000000000000000000000000000000000000000000000000081526004016101239061025c565b60405180910390fd5b806000806101000a81548173ffffffffffffffffffffffffffffffffffffffff021916908373ffffffffffffffffffffffffffffffffffffffff1602179055507feb38696426b5aa8881f6ba9f2f3e0ac06ee7ea6ffbe944120578d61191ef6101813360405161019d929190610233565b60405180910390a150565b6000813590506101b78161030e565b92915050565b6000602082840312156101cf57600080fd5b60006101dd848285016101a8565b91505092915050565b6101ef8161028d565b82525050565b6000610202603c8361027c565b915061020d826102bf565b604082019050919050565b600060208201905061022d60008301846101e6565b92915050565b600060408201905061024860008301856101e6565b61025560208301846101e6565b9392505050565b60006020820190508181036000830152610275816101f5565b9050919050565b600082825260208201905092915050565b60006102988261029f565b9050919050565b600073ffffffffffffffffffffffffffffffffffffffff82169050919050565b7f596f75206d75737420626520746865206f776e6572206f662074686520636f6e60008201527f747261637420746f20656e74657220746869732066756e6374696f6e00000000602082015250565b6103178161028d565b811461032257600080fd5b5056fea26469706673582212206b9b5aa17c056eb4340ce0f75445559b92c00831655f62bbaad2f01020f558e764736f6c63430008040033",
  "linkReferences": {},
  "deployedLinkReferences": {}
}