{
  "_format": "hh-sol-artifact-1",
  "contractName": "Pausable",
  "sourceName": "contracts/ERC721Mintable.sol",
  "abi": [
    {
      "inputs": [],
      "stateMutability": "nonpayable",
      "type": "constructor"
    },
    {
      "anonymous": false,
      "inputs": [
        {
          "indexed": false,
          "internalType": "bool",
          "name": "value",
          "type": "bool"
        }
      ],
      "name": "Paused",
      "type": "event"
    },
    {
      "anonymous": false,
      "inputs": [
        {
          "indexed": false,
          "internalType": "bool",
          "name": "value",
          "type": "bool"
        }
      ],
      "name": "UnPaused",
      "type": "event"
    },
    {
      "anonymous": false,
      "inputs": [
        {
          "indexed": false,
          "internalType": "address",
          "name": "newOwner",
          "type": "address"
        },
        {
          "indexed": false,
          "internalType": "address",
          "name": "oldOwner",
          "type": "address"
        }
      ],
      "name": "ownershipTransfered",
      "type": "event"
    },
    {
      "inputs": [],
      "name": "getOwner",
      "outputs": [
        {
          "internalType": "address",
          "name": "",
          "type": "address"
        }
      ],
      "stateMutability": "view",
      "type": "function"
    },
    {
      "inputs": [],
      "name": "getPauseStatus",
      "outputs": [
        {
          "internalType": "bool",
          "name": "status",
          "type": "bool"
        }
      ],
      "stateMutability": "view",
      "type": "function"
    },
    {
      "inputs": [
        {
          "internalType": "bool",
          "name": "_value",
          "type": "bool"
        }
      ],
      "name": "setPauseStatus",
      "outputs": [],
      "stateMutability": "nonpayable",
      "type": "function"
    },
    {
      "inputs": [
        {
          "internalType": "address",
          "name": "_newOwner",
          "type": "address"
        }
      ],
      "name": "transferOwnership",
      "outputs": [],
      "stateMutability": "nonpayable",
      "type": "function"
    }
  ],
  "bytecode": "0x608060405234801561001057600080fd5b50336000806101000a81548173ffffffffffffffffffffffffffffffffffffffff021916908373ffffffffffffffffffffffffffffffffffffffff16021790555060008060146101000a81548160ff0219169083151502179055506107358061007a6000396000f3fe608060405234801561001057600080fd5b506004361061004c5760003560e01c80631d9023cb14610051578063893d20e81461006f578063c38bb5371461008d578063f2fde38b146100a9575b600080fd5b6100596100c5565b6040516100669190610540565b60405180910390f35b6100776100db565b60405161008491906104fc565b60405180910390f35b6100a760048036038101906100a2919061044c565b610104565b005b6100c360048036038101906100be9190610423565b6102ef565b005b60008060149054906101000a900460ff16905090565b60008060009054906101000a900473ffffffffffffffffffffffffffffffffffffffff16905090565b60008054906101000a900473ffffffffffffffffffffffffffffffffffffffff1673ffffffffffffffffffffffffffffffffffffffff163373ffffffffffffffffffffffffffffffffffffffff1614610192576040517f08c379a00000000000000000000000000000000000000000000000000000000081526004016101899061057b565b60405180910390fd5b6001151581151514806101a9575060001515811515145b6101e8576040517f08c379a00000000000000000000000000000000000000000000000000000000081526004016101df9061059b565b60405180910390fd5b801515600060149054906101000a900460ff161515141561023e576040517f08c379a00000000000000000000000000000000000000000000000000000000081526004016102359061055b565b60405180910390fd5b801561029a5780600060146101000a81548160ff0219169083151502179055507f0e2fb031ee032dc02d8011dc50b816eb450cf856abd8261680dac74f72165bd28160405161028d9190610540565b60405180910390a16102ec565b80600060146101000a81548160ff0219169083151502179055507fbef695c228e00c57176296d6577586ca18da1cd098f552037934a1ffd0557c2c816040516102e39190610540565b60405180910390a15b50565b60008054906101000a900473ffffffffffffffffffffffffffffffffffffffff1673ffffffffffffffffffffffffffffffffffffffff163373ffffffffffffffffffffffffffffffffffffffff161461037d576040517f08c379a00000000000000000000000000000000000000000000000000000000081526004016103749061057b565b60405180910390fd5b806000806101000a81548173ffffffffffffffffffffffffffffffffffffffff021916908373ffffffffffffffffffffffffffffffffffffffff1602179055507feb38696426b5aa8881f6ba9f2f3e0ac06ee7ea6ffbe944120578d61191ef610181336040516103ee929190610517565b60405180910390a150565b600081359050610408816106d1565b92915050565b60008135905061041d816106e8565b92915050565b60006020828403121561043557600080fd5b6000610443848285016103f9565b91505092915050565b60006020828403121561045e57600080fd5b600061046c8482850161040e565b91505092915050565b61047e816105cc565b82525050565b61048d816105de565b82525050565b60006104a06025836105bb565b91506104ab8261060a565b604082019050919050565b60006104c3603c836105bb565b91506104ce82610659565b604082019050919050565b60006104e6601e836105bb565b91506104f1826106a8565b602082019050919050565b60006020820190506105116000830184610475565b92915050565b600060408201905061052c6000830185610475565b6105396020830184610475565b9392505050565b60006020820190506105556000830184610484565b92915050565b6000602082019050818103600083015261057481610493565b9050919050565b60006020820190508181036000830152610594816104b6565b9050919050565b600060208201905081810360008301526105b4816104d9565b9050919050565b600082825260208201905092915050565b60006105d7826105ea565b9050919050565b60008115159050919050565b600073ffffffffffffffffffffffffffffffffffffffff82169050919050565b7f596f75206d75737420696e697469616c697365206120646966666572656e742060008201527f76616c7565000000000000000000000000000000000000000000000000000000602082015250565b7f596f75206d75737420626520746865206f776e6572206f662074686520636f6e60008201527f747261637420746f20656e74657220746869732066756e6374696f6e00000000602082015250565b7f796f75206d75737420696e707574206120626f6f6c65616e2076616c75650000600082015250565b6106da816105cc565b81146106e557600080fd5b50565b6106f1816105de565b81146106fc57600080fd5b5056fea26469706673582212209bf1c37e9afe47b76cd97fa0578fbeb5c469fc8dbf8fe95f968c027a50ab627664736f6c63430008040033",
  "linkReferences": {},
  "deployedLinkReferences": {}
}