{
  "_format": "hh-sol-artifact-1",
  "contractName": "Pausable",
  "sourceName": "contracts/ERC721Mintable.sol",
  "abi": [
    {
      "inputs": [],
      "stateMutability": "nonpayable",
      "type": "constructor"
    },
    {
      "anonymous": false,
      "inputs": [
        {
          "indexed": false,
          "internalType": "address",
          "name": "initiator",
          "type": "address"
        },
        {
          "indexed": false,
          "internalType": "bool",
          "name": "value",
          "type": "bool"
        }
      ],
      "name": "Paused",
      "type": "event"
    },
    {
      "anonymous": false,
      "inputs": [
        {
          "indexed": false,
          "internalType": "address",
          "name": "initiator",
          "type": "address"
        },
        {
          "indexed": false,
          "internalType": "bool",
          "name": "value",
          "type": "bool"
        }
      ],
      "name": "UnPaused",
      "type": "event"
    },
    {
      "anonymous": false,
      "inputs": [
        {
          "indexed": false,
          "internalType": "address",
          "name": "newOwner",
          "type": "address"
        },
        {
          "indexed": false,
          "internalType": "address",
          "name": "oldOwner",
          "type": "address"
        }
      ],
      "name": "ownershipTransfered",
      "type": "event"
    },
    {
      "inputs": [],
      "name": "getOwner",
      "outputs": [
        {
          "internalType": "address",
          "name": "",
          "type": "address"
        }
      ],
      "stateMutability": "view",
      "type": "function"
    },
    {
      "inputs": [],
      "name": "getPauseStatus",
      "outputs": [
        {
          "internalType": "bool",
          "name": "status",
          "type": "bool"
        }
      ],
      "stateMutability": "view",
      "type": "function"
    },
    {
      "inputs": [
        {
          "internalType": "bool",
          "name": "_value",
          "type": "bool"
        }
      ],
      "name": "setPauseStatus",
      "outputs": [],
      "stateMutability": "nonpayable",
      "type": "function"
    },
    {
      "inputs": [
        {
          "internalType": "address",
          "name": "_newOwner",
          "type": "address"
        }
      ],
      "name": "transferOwnership",
      "outputs": [],
      "stateMutability": "nonpayable",
      "type": "function"
    }
  ],
  "bytecode": "0x608060405234801561001057600080fd5b50336000806101000a81548173ffffffffffffffffffffffffffffffffffffffff021916908373ffffffffffffffffffffffffffffffffffffffff16021790555060008060146101000a81548160ff0219169083151502179055506107628061007a6000396000f3fe608060405234801561001057600080fd5b506004361061004c5760003560e01c80631d9023cb14610051578063893d20e81461006f578063c38bb5371461008d578063f2fde38b146100a9575b600080fd5b6100596100c5565b604051610066919061056d565b60405180910390f35b6100776100db565b6040516100849190610500565b60405180910390f35b6100a760048036038101906100a29190610450565b610104565b005b6100c360048036038101906100be9190610427565b6102f3565b005b60008060149054906101000a900460ff16905090565b60008060009054906101000a900473ffffffffffffffffffffffffffffffffffffffff16905090565b60008054906101000a900473ffffffffffffffffffffffffffffffffffffffff1673ffffffffffffffffffffffffffffffffffffffff163373ffffffffffffffffffffffffffffffffffffffff1614610192576040517f08c379a000000000000000000000000000000000000000000000000000000000815260040161018990610588565b60405180910390fd5b6001151581151514806101a9575060001515811515145b6101e8576040517f08c379a00000000000000000000000000000000000000000000000000000000081526004016101df906105a8565b60405180910390fd5b801515600060149054906101000a900460ff161515141561023e576040517f08c379a0000000000000000000000000000000000000000000000000000000008152600401610235906105c8565b60405180910390fd5b801561029c5780600060146101000a81548160ff0219169083151502179055507fe8699cf681560fd07de85543bd994263f4557bdc5179dd702f256d15fd083e1d338260405161028f929190610544565b60405180910390a16102f0565b80600060146101000a81548160ff0219169083151502179055507f7e33492b866dc3a8907fa6d980cd33332afb0d044cf12c0005fabd6b0aa77bff33826040516102e7929190610544565b60405180910390a15b50565b60008054906101000a900473ffffffffffffffffffffffffffffffffffffffff1673ffffffffffffffffffffffffffffffffffffffff163373ffffffffffffffffffffffffffffffffffffffff1614610381576040517f08c379a000000000000000000000000000000000000000000000000000000000815260040161037890610588565b60405180910390fd5b806000806101000a81548173ffffffffffffffffffffffffffffffffffffffff021916908373ffffffffffffffffffffffffffffffffffffffff1602179055507feb38696426b5aa8881f6ba9f2f3e0ac06ee7ea6ffbe944120578d61191ef610181336040516103f292919061051b565b60405180910390a150565b60008135905061040c816106fe565b92915050565b60008135905061042181610715565b92915050565b60006020828403121561043957600080fd5b6000610447848285016103fd565b91505092915050565b60006020828403121561046257600080fd5b600061047084828501610412565b91505092915050565b610482816105f9565b82525050565b6104918161060b565b82525050565b60006104a4603c836105e8565b91506104af82610637565b604082019050919050565b60006104c7601e836105e8565b91506104d282610686565b602082019050919050565b60006104ea6037836105e8565b91506104f5826106af565b604082019050919050565b60006020820190506105156000830184610479565b92915050565b60006040820190506105306000830185610479565b61053d6020830184610479565b9392505050565b60006040820190506105596000830185610479565b6105666020830184610488565b9392505050565b60006020820190506105826000830184610488565b92915050565b600060208201905081810360008301526105a181610497565b9050919050565b600060208201905081810360008301526105c1816104ba565b9050919050565b600060208201905081810360008301526105e1816104dd565b9050919050565b600082825260208201905092915050565b600061060482610617565b9050919050565b60008115159050919050565b600073ffffffffffffffffffffffffffffffffffffffff82169050919050565b7f596f75206d75737420626520746865206f776e6572206f662074686520636f6e60008201527f747261637420746f20656e74657220746869732066756e6374696f6e00000000602082015250565b7f796f75206d75737420696e707574206120626f6f6c65616e2076616c75650000600082015250565b7f54686520636f6e7472616374207061757365207374617475732069732074686560008201527f2073616d6520617320696e70757420617267756d656e74000000000000000000602082015250565b610707816105f9565b811461071257600080fd5b50565b61071e8161060b565b811461072957600080fd5b5056fea2646970667358221220036e1b093029589b6c851834b7d9bbb7a0055cebf5bb599505e27df8078b859d64736f6c63430008040033",
  "linkReferences": {},
  "deployedLinkReferences": {}
}