{
  "_format": "hh-sol-artifact-1",
  "contractName": "SolnSquareVerifier",
  "sourceName": "contracts/SolnSquareVerifier.sol",
  "abi": [
    {
      "inputs": [
        {
          "internalType": "address",
          "name": "verifierContractAdd",
          "type": "address"
        },
        {
          "internalType": "string",
          "name": "name",
          "type": "string"
        },
        {
          "internalType": "string",
          "name": "symbol",
          "type": "string"
        },
        {
          "internalType": "string",
          "name": "baseURI",
          "type": "string"
        }
      ],
      "stateMutability": "nonpayable",
      "type": "constructor"
    },
    {
      "anonymous": false,
      "inputs": [
        {
          "indexed": true,
          "internalType": "address",
          "name": "owner",
          "type": "address"
        },
        {
          "indexed": true,
          "internalType": "address",
          "name": "approved",
          "type": "address"
        },
        {
          "indexed": true,
          "internalType": "uint256",
          "name": "tokenId",
          "type": "uint256"
        }
      ],
      "name": "Approval",
      "type": "event"
    },
    {
      "anonymous": false,
      "inputs": [
        {
          "indexed": true,
          "internalType": "address",
          "name": "owner",
          "type": "address"
        },
        {
          "indexed": true,
          "internalType": "address",
          "name": "operator",
          "type": "address"
        },
        {
          "indexed": false,
          "internalType": "bool",
          "name": "approved",
          "type": "bool"
        }
      ],
      "name": "ApprovalForAll",
      "type": "event"
    },
    {
      "anonymous": false,
      "inputs": [
        {
          "indexed": false,
          "internalType": "uint256",
          "name": "index",
          "type": "uint256"
        },
        {
          "indexed": false,
          "internalType": "address",
          "name": "from",
          "type": "address"
        }
      ],
      "name": "MintedSolution",
      "type": "event"
    },
    {
      "anonymous": false,
      "inputs": [
        {
          "indexed": false,
          "internalType": "bool",
          "name": "value",
          "type": "bool"
        }
      ],
      "name": "Paused",
      "type": "event"
    },
    {
      "anonymous": false,
      "inputs": [
        {
          "indexed": false,
          "internalType": "uint256",
          "name": "index",
          "type": "uint256"
        },
        {
          "indexed": false,
          "internalType": "address",
          "name": "from",
          "type": "address"
        }
      ],
      "name": "SolutionAdded",
      "type": "event"
    },
    {
      "anonymous": false,
      "inputs": [
        {
          "indexed": true,
          "internalType": "address",
          "name": "from",
          "type": "address"
        },
        {
          "indexed": true,
          "internalType": "address",
          "name": "to",
          "type": "address"
        },
        {
          "indexed": true,
          "internalType": "uint256",
          "name": "tokenId",
          "type": "uint256"
        }
      ],
      "name": "Transfer",
      "type": "event"
    },
    {
      "anonymous": false,
      "inputs": [
        {
          "indexed": false,
          "internalType": "bool",
          "name": "value",
          "type": "bool"
        }
      ],
      "name": "UnPaused",
      "type": "event"
    },
    {
      "anonymous": false,
      "inputs": [
        {
          "indexed": false,
          "internalType": "address",
          "name": "newOwner",
          "type": "address"
        },
        {
          "indexed": false,
          "internalType": "address",
          "name": "oldOwner",
          "type": "address"
        }
      ],
      "name": "ownershipTransfered",
      "type": "event"
    },
    {
      "inputs": [
        {
          "internalType": "bytes32",
          "name": "_myid",
          "type": "bytes32"
        },
        {
          "internalType": "string",
          "name": "_result",
          "type": "string"
        }
      ],
      "name": "__callback",
      "outputs": [],
      "stateMutability": "nonpayable",
      "type": "function"
    },
    {
      "inputs": [
        {
          "internalType": "bytes32",
          "name": "_myid",
          "type": "bytes32"
        },
        {
          "internalType": "string",
          "name": "_result",
          "type": "string"
        },
        {
          "internalType": "bytes",
          "name": "_proof",
          "type": "bytes"
        }
      ],
      "name": "__callback",
      "outputs": [],
      "stateMutability": "nonpayable",
      "type": "function"
    },
    {
      "inputs": [
        {
          "internalType": "uint256[2]",
          "name": "a",
          "type": "uint256[2]"
        },
        {
          "internalType": "uint256[2][2]",
          "name": "b",
          "type": "uint256[2][2]"
        },
        {
          "internalType": "uint256[2]",
          "name": "c",
          "type": "uint256[2]"
        },
        {
          "internalType": "uint256[2]",
          "name": "input",
          "type": "uint256[2]"
        }
      ],
      "name": "addSolution",
      "outputs": [],
      "stateMutability": "nonpayable",
      "type": "function"
    },
    {
      "inputs": [
        {
          "internalType": "address",
          "name": "to",
          "type": "address"
        },
        {
          "internalType": "uint256",
          "name": "tokenId",
          "type": "uint256"
        }
      ],
      "name": "approve",
      "outputs": [],
      "stateMutability": "nonpayable",
      "type": "function"
    },
    {
      "inputs": [
        {
          "internalType": "address",
          "name": "owner",
          "type": "address"
        }
      ],
      "name": "balanceOf",
      "outputs": [
        {
          "internalType": "uint256",
          "name": "",
          "type": "uint256"
        }
      ],
      "stateMutability": "view",
      "type": "function"
    },
    {
      "inputs": [
        {
          "internalType": "uint256",
          "name": "tokenId",
          "type": "uint256"
        }
      ],
      "name": "getApproved",
      "outputs": [
        {
          "internalType": "address",
          "name": "",
          "type": "address"
        }
      ],
      "stateMutability": "view",
      "type": "function"
    },
    {
      "inputs": [],
      "name": "getBaseTokenURI",
      "outputs": [
        {
          "internalType": "string",
          "name": "",
          "type": "string"
        }
      ],
      "stateMutability": "view",
      "type": "function"
    },
    {
      "inputs": [],
      "name": "getName",
      "outputs": [
        {
          "internalType": "string",
          "name": "",
          "type": "string"
        }
      ],
      "stateMutability": "view",
      "type": "function"
    },
    {
      "inputs": [],
      "name": "getOwner",
      "outputs": [
        {
          "internalType": "address",
          "name": "",
          "type": "address"
        }
      ],
      "stateMutability": "view",
      "type": "function"
    },
    {
      "inputs": [],
      "name": "getPauseStatus",
      "outputs": [
        {
          "internalType": "bool",
          "name": "status",
          "type": "bool"
        }
      ],
      "stateMutability": "view",
      "type": "function"
    },
    {
      "inputs": [],
      "name": "getSymbol",
      "outputs": [
        {
          "internalType": "string",
          "name": "",
          "type": "string"
        }
      ],
      "stateMutability": "view",
      "type": "function"
    },
    {
      "inputs": [
        {
          "internalType": "address",
          "name": "owner",
          "type": "address"
        },
        {
          "internalType": "address",
          "name": "operator",
          "type": "address"
        }
      ],
      "name": "isApprovedForAll",
      "outputs": [
        {
          "internalType": "bool",
          "name": "",
          "type": "bool"
        }
      ],
      "stateMutability": "view",
      "type": "function"
    },
    {
      "inputs": [
        {
          "internalType": "address",
          "name": "to",
          "type": "address"
        },
        {
          "internalType": "uint256",
          "name": "tokenId",
          "type": "uint256"
        }
      ],
      "name": "mint",
      "outputs": [
        {
          "internalType": "bool",
          "name": "",
          "type": "bool"
        }
      ],
      "stateMutability": "nonpayable",
      "type": "function"
    },
    {
      "inputs": [
        {
          "internalType": "uint256[2]",
          "name": "inputs",
          "type": "uint256[2]"
        },
        {
          "internalType": "address",
          "name": "to",
          "type": "address"
        }
      ],
      "name": "mintNewNFT",
      "outputs": [],
      "stateMutability": "nonpayable",
      "type": "function"
    },
    {
      "inputs": [
        {
          "internalType": "uint256",
          "name": "tokenId",
          "type": "uint256"
        }
      ],
      "name": "ownerOf",
      "outputs": [
        {
          "internalType": "address",
          "name": "",
          "type": "address"
        }
      ],
      "stateMutability": "view",
      "type": "function"
    },
    {
      "inputs": [
        {
          "internalType": "address",
          "name": "from",
          "type": "address"
        },
        {
          "internalType": "address",
          "name": "to",
          "type": "address"
        },
        {
          "internalType": "uint256",
          "name": "tokenId",
          "type": "uint256"
        }
      ],
      "name": "safeTransferFrom",
      "outputs": [],
      "stateMutability": "nonpayable",
      "type": "function"
    },
    {
      "inputs": [
        {
          "internalType": "address",
          "name": "from",
          "type": "address"
        },
        {
          "internalType": "address",
          "name": "to",
          "type": "address"
        },
        {
          "internalType": "uint256",
          "name": "tokenId",
          "type": "uint256"
        },
        {
          "internalType": "bytes",
          "name": "_data",
          "type": "bytes"
        }
      ],
      "name": "safeTransferFrom",
      "outputs": [],
      "stateMutability": "nonpayable",
      "type": "function"
    },
    {
      "inputs": [
        {
          "internalType": "address",
          "name": "to",
          "type": "address"
        },
        {
          "internalType": "bool",
          "name": "approved",
          "type": "bool"
        }
      ],
      "name": "setApprovalForAll",
      "outputs": [],
      "stateMutability": "nonpayable",
      "type": "function"
    },
    {
      "inputs": [
        {
          "internalType": "bool",
          "name": "_value",
          "type": "bool"
        }
      ],
      "name": "setPauseStatus",
      "outputs": [],
      "stateMutability": "nonpayable",
      "type": "function"
    },
    {
      "inputs": [
        {
          "internalType": "bytes4",
          "name": "interfaceId",
          "type": "bytes4"
        }
      ],
      "name": "supportsInterface",
      "outputs": [
        {
          "internalType": "bool",
          "name": "",
          "type": "bool"
        }
      ],
      "stateMutability": "view",
      "type": "function"
    },
    {
      "inputs": [
        {
          "internalType": "uint256",
          "name": "index",
          "type": "uint256"
        }
      ],
      "name": "tokenByIndex",
      "outputs": [
        {
          "internalType": "uint256",
          "name": "",
          "type": "uint256"
        }
      ],
      "stateMutability": "view",
      "type": "function"
    },
    {
      "inputs": [
        {
          "internalType": "address",
          "name": "owner",
          "type": "address"
        },
        {
          "internalType": "uint256",
          "name": "index",
          "type": "uint256"
        }
      ],
      "name": "tokenOfOwnerByIndex",
      "outputs": [
        {
          "internalType": "uint256",
          "name": "",
          "type": "uint256"
        }
      ],
      "stateMutability": "view",
      "type": "function"
    },
    {
      "inputs": [
        {
          "internalType": "uint256",
          "name": "tokenId",
          "type": "uint256"
        }
      ],
      "name": "tokenURI",
      "outputs": [
        {
          "internalType": "string",
          "name": "",
          "type": "string"
        }
      ],
      "stateMutability": "view",
      "type": "function"
    },
    {
      "inputs": [],
      "name": "totalSupply",
      "outputs": [
        {
          "internalType": "uint256",
          "name": "",
          "type": "uint256"
        }
      ],
      "stateMutability": "view",
      "type": "function"
    },
    {
      "inputs": [
        {
          "internalType": "address",
          "name": "from",
          "type": "address"
        },
        {
          "internalType": "address",
          "name": "to",
          "type": "address"
        },
        {
          "internalType": "uint256",
          "name": "tokenId",
          "type": "uint256"
        }
      ],
      "name": "transferFrom",
      "outputs": [],
      "stateMutability": "nonpayable",
      "type": "function"
    },
    {
      "inputs": [
        {
          "internalType": "address",
          "name": "_newOwner",
          "type": "address"
        }
      ],
      "name": "transferOwnership",
      "outputs": [],
      "stateMutability": "nonpayable",
      "type": "function"
    }
  ],
  "bytecode": "0x60806040523480156200001157600080fd5b50604051620051313803806200513183398181016040528101906200003791906200036c565b828282828282336000806101000a81548173ffffffffffffffffffffffffffffffffffffffff021916908373ffffffffffffffffffffffffffffffffffffffff16021790555060008060146101000a81548160ff021916908315150217905550620000af6301ffc9a760e01b6200019360201b60201c565b620000c76380ac58cd60e01b6200019360201b60201c565b620000df63780e9d6360e01b6200019360201b60201c565b82600f9080519060200190620000f792919062000233565b5081601090805190602001906200011092919062000233565b5080601190805190602001906200012992919062000233565b5062000142635b5e139f60e01b6200019360201b60201c565b50505050505083601360006101000a81548173ffffffffffffffffffffffffffffffffffffffff021916908373ffffffffffffffffffffffffffffffffffffffff16021790555050505050620005e1565b63ffffffff60e01b817bffffffffffffffffffffffffffffffffffffffffffffffffffffffff19161415620001c757600080fd5b6001806000837bffffffffffffffffffffffffffffffffffffffffffffffffffffffff19167bffffffffffffffffffffffffffffffffffffffffffffffffffffffff1916815260200190815260200160002060006101000a81548160ff02191690831515021790555050565b8280546200024190620004ec565b90600052602060002090601f016020900481019282620002655760008555620002b1565b82601f106200028057805160ff1916838001178555620002b1565b82800160010185558215620002b1579182015b82811115620002b057825182559160200191906001019062000293565b5b509050620002c09190620002c4565b5090565b5b80821115620002df576000816000905550600101620002c5565b5090565b6000620002fa620002f4846200044c565b62000423565b9050828152602081018484840111156200031357600080fd5b62000320848285620004b6565b509392505050565b6000815190506200033981620005c7565b92915050565b600082601f8301126200035157600080fd5b815162000363848260208601620002e3565b91505092915050565b600080600080608085870312156200038357600080fd5b6000620003938782880162000328565b945050602085015167ffffffffffffffff811115620003b157600080fd5b620003bf878288016200033f565b935050604085015167ffffffffffffffff811115620003dd57600080fd5b620003eb878288016200033f565b925050606085015167ffffffffffffffff8111156200040957600080fd5b62000417878288016200033f565b91505092959194509250565b60006200042f62000442565b90506200043d828262000522565b919050565b6000604051905090565b600067ffffffffffffffff8211156200046a576200046962000587565b5b6200047582620005b6565b9050602081019050919050565b60006200048f8262000496565b9050919050565b600073ffffffffffffffffffffffffffffffffffffffff82169050919050565b60005b83811015620004d6578082015181840152602081019050620004b9565b83811115620004e6576000848401525b50505050565b600060028204905060018216806200050557607f821691505b602082108114156200051c576200051b62000558565b5b50919050565b6200052d82620005b6565b810181811067ffffffffffffffff821117156200054f576200054e62000587565b5b80604052505050565b7f4e487b7100000000000000000000000000000000000000000000000000000000600052602260045260246000fd5b7f4e487b7100000000000000000000000000000000000000000000000000000000600052604160045260246000fd5b6000601f19601f8301169050919050565b620005d28162000482565b8114620005de57600080fd5b50565b614b4080620005f16000396000f3fe608060405234801561001057600080fd5b506004361061018e5760003560e01c80634f6ccce7116100de578063bdc32be011610097578063e6bcd74511610071578063e6bcd745146104a7578063e985e9c5146104c3578063f2fde38b146104f3578063f76b44311461050f5761018e565b8063bdc32be01461043d578063c38bb5371461045b578063c87b56dd146104775761018e565b80634f6ccce7146103575780636352211e1461038757806370a08231146103b7578063893d20e8146103e7578063a22cb46514610405578063b88d4fde146104215761018e565b80631d9023cb1161014b5780632f745c59116101255780632f745c59146102bf57806338bbfa50146102ef57806340c10f191461030b57806342842e0e1461033b5761018e565b80631d9023cb1461026957806323b872dd1461028757806327dc297e146102a35761018e565b806301ffc9a714610193578063081812fc146101c3578063095ea7b3146101f3578063150704011461020f57806317d7de7c1461022d57806318160ddd1461024b575b600080fd5b6101ad60048036038101906101a8919061381e565b61052b565b6040516101ba9190613e52565b60405180910390f35b6101dd60048036038101906101d89190613870565b610593565b6040516101ea9190613d7b565b60405180910390f35b61020d6004803603810190610208919061361c565b6105d0565b005b6102176107c2565b6040516102249190613e6d565b60405180910390f35b610235610854565b6040516102429190613e6d565b60405180910390f35b6102536108e6565b604051610260919061410f565b60405180910390f35b6102716108f3565b60405161027e9190613e52565b60405180910390f35b6102a1600480360381019061029c9190613516565b610909565b005b6102bd60048036038101906102b8919061374b565b6109b2565b005b6102d960048036038101906102d4919061361c565b610a34565b6040516102e6919061410f565b60405180910390f35b6103096004803603810190610304919061379f565b610ad4565b005b6103256004803603810190610320919061361c565b610af7565b6040516103329190613e52565b60405180910390f35b61035560048036038101906103509190613516565b610bf5565b005b610371600480360381019061036c9190613870565b610c65565b60405161037e919061410f565b60405180910390f35b6103a1600480360381019061039c9190613870565b610cc6565b6040516103ae9190613d7b565b60405180910390f35b6103d160048036038101906103cc91906134b1565b610d03565b6040516103de919061410f565b60405180910390f35b6103ef610d53565b6040516103fc9190613d7b565b60405180910390f35b61041f600480360381019061041a91906135e0565b610d7c565b005b61043b60048036038101906104369190613565565b610f02565b005b610445610f78565b6040516104529190613e6d565b60405180910390f35b610475600480360381019061047091906136f9565b61100a565b005b610491600480360381019061048c9190613870565b6111f5565b60405161049e9190613e6d565b60405180910390f35b6104c160048036038101906104bc9190613658565b6112ac565b005b6104dd60048036038101906104d891906134da565b6114bf565b6040516104ea9190613e52565b60405180910390f35b61050d600480360381019061050891906134b1565b611553565b005b61052960048036038101906105249190613694565b61165d565b005b600060016000837bffffffffffffffffffffffffffffffffffffffffffffffffffffffff19167bffffffffffffffffffffffffffffffffffffffffffffffffffffffff1916815260200190815260200160002060009054906101000a900460ff169050919050565b60006003600083815260200190815260200160002060009054906101000a900473ffffffffffffffffffffffffffffffffffffffff169050919050565b600060149054906101000a900460ff1615610620576040517f08c379a00000000000000000000000000000000000000000000000000000000081526004016106179061400f565b60405180910390fd5b60006002600083815260200190815260200160002060009054906101000a900473ffffffffffffffffffffffffffffffffffffffff1690508073ffffffffffffffffffffffffffffffffffffffff168373ffffffffffffffffffffffffffffffffffffffff1614156106c7576040517f08c379a00000000000000000000000000000000000000000000000000000000081526004016106be906140ef565b60405180910390fd5b8073ffffffffffffffffffffffffffffffffffffffff163373ffffffffffffffffffffffffffffffffffffffff161480610707575061070683336114bf565b5b61071057600080fd5b826003600084815260200190815260200160002060006101000a81548173ffffffffffffffffffffffffffffffffffffffff021916908373ffffffffffffffffffffffffffffffffffffffff160217905550818373ffffffffffffffffffffffffffffffffffffffff168273ffffffffffffffffffffffffffffffffffffffff167f8c5be1e5ebec7d5bd14f71427d1e84f3dd0314c0f7b2291e5b200ac8c7c3b92560405160405180910390a4505050565b6060601080546107d19061443e565b80601f01602080910402602001604051908101604052809291908181526020018280546107fd9061443e565b801561084a5780601f1061081f5761010080835404028352916020019161084a565b820191906000526020600020905b81548152906001019060200180831161082d57829003601f168201915b5050505050905090565b6060600f80546108639061443e565b80601f016020809104026020016040519081016040528092919081815260200182805461088f9061443e565b80156108dc5780601f106108b1576101008083540402835291602001916108dc565b820191906000526020600020905b8154815290600101906020018083116108bf57829003601f168201915b5050505050905090565b6000600880549050905090565b60008060149054906101000a900460ff16905090565b600060149054906101000a900460ff1615610959576040517f08c379a00000000000000000000000000000000000000000000000000000000081526004016109509061400f565b60405180910390fd5b6109633382611a16565b6109a2576040517f08c379a000000000000000000000000000000000000000000000000000000000815260040161099990613f2f565b60405180910390fd5b6109ad838383611aab565b505050565b610a308282600067ffffffffffffffff8111156109f8577f4e487b7100000000000000000000000000000000000000000000000000000000600052604160045260246000fd5b6040519080825280601f01601f191660200182016040528015610a2a5781602001600182028036833780820191505090505b50610ad4565b5050565b6000610a3f83610d03565b8210610a4a57600080fd5b600660008473ffffffffffffffffffffffffffffffffffffffff1673ffffffffffffffffffffffffffffffffffffffff1681526020019081526020016000208281548110610ac1577f4e487b7100000000000000000000000000000000000000000000000000000000600052603260045260246000fd5b9060005260206000200154905092915050565b6000801b600d60008060001b815260200190815260200160002081905550505050565b60008060009054906101000a900473ffffffffffffffffffffffffffffffffffffffff1673ffffffffffffffffffffffffffffffffffffffff163373ffffffffffffffffffffffffffffffffffffffff1614610b88576040517f08c379a0000000000000000000000000000000000000000000000000000000008152600401610b7f90613fef565b60405180910390fd5b600060149054906101000a900460ff1615610bd8576040517f08c379a0000000000000000000000000000000000000000000000000000000008152600401610bcf9061400f565b60405180910390fd5b610be28383611b1f565b610beb82611bd9565b6001905092915050565b600060149054906101000a900460ff1615610c45576040517f08c379a0000000000000000000000000000000000000000000000000000000008152600401610c3c9061400f565b60405180910390fd5b610c6083838360405180602001604052806000815250610f02565b505050565b6000610c6f6108e6565b8210610c7a57600080fd5b60088281548110610cb4577f4e487b7100000000000000000000000000000000000000000000000000000000600052603260045260246000fd5b90600052602060002001549050919050565b60006002600083815260200190815260200160002060009054906101000a900473ffffffffffffffffffffffffffffffffffffffff169050919050565b6000610d4c600460008473ffffffffffffffffffffffffffffffffffffffff1673ffffffffffffffffffffffffffffffffffffffff168152602001908152602001600020611ced565b9050919050565b60008060009054906101000a900473ffffffffffffffffffffffffffffffffffffffff16905090565b600060149054906101000a900460ff1615610dcc576040517f08c379a0000000000000000000000000000000000000000000000000000000008152600401610dc39061400f565b60405180910390fd5b3373ffffffffffffffffffffffffffffffffffffffff168273ffffffffffffffffffffffffffffffffffffffff161415610e0557600080fd5b80600560003373ffffffffffffffffffffffffffffffffffffffff1673ffffffffffffffffffffffffffffffffffffffff16815260200190815260200160002060008473ffffffffffffffffffffffffffffffffffffffff1673ffffffffffffffffffffffffffffffffffffffff16815260200190815260200160002060006101000a81548160ff0219169083151502179055508173ffffffffffffffffffffffffffffffffffffffff163373ffffffffffffffffffffffffffffffffffffffff167f17307eab39ab6107e8899845ad3d59bd9653f200f220920489ca2b5937696c3183604051610ef69190613e52565b60405180910390a35050565b600060149054906101000a900460ff1615610f52576040517f08c379a0000000000000000000000000000000000000000000000000000000008152600401610f499061400f565b60405180910390fd5b610f5d848484610909565b610f6984848484611cfb565b610f7257600080fd5b50505050565b606060118054610f879061443e565b80601f0160208091040260200160405190810160405280929190818152602001828054610fb39061443e565b80156110005780601f10610fd557610100808354040283529160200191611000565b820191906000526020600020905b815481529060010190602001808311610fe357829003601f168201915b5050505050905090565b60008054906101000a900473ffffffffffffffffffffffffffffffffffffffff1673ffffffffffffffffffffffffffffffffffffffff163373ffffffffffffffffffffffffffffffffffffffff1614611098576040517f08c379a000000000000000000000000000000000000000000000000000000000815260040161108f90613fef565b60405180910390fd5b6001151581151514806110af575060001515811515145b6110ee576040517f08c379a00000000000000000000000000000000000000000000000000000000081526004016110e59061404f565b60405180910390fd5b801515600060149054906101000a900460ff1615151415611144576040517f08c379a000000000000000000000000000000000000000000000000000000000815260040161113b90613e8f565b60405180910390fd5b80156111a05780600060146101000a81548160ff0219169083151502179055507f0e2fb031ee032dc02d8011dc50b816eb450cf856abd8261680dac74f72165bd2816040516111939190613e52565b60405180910390a16111f2565b80600060146101000a81548160ff0219169083151502179055507fbef695c228e00c57176296d6577586ca18da1cd098f552037934a1ffd0557c2c816040516111e99190613e52565b60405180910390a15b50565b606061120082611e12565b61120957600080fd5b6012600083815260200190815260200160002080546112279061443e565b80601f01602080910402602001604051908101604052809291908181526020018280546112539061443e565b80156112a05780601f10611275576101008083540402835291602001916112a0565b820191906000526020600020905b81548152906001019060200180831161128357829003601f168201915b50505050509050919050565b600060149054906101000a900460ff16156112fc576040517f08c379a00000000000000000000000000000000000000000000000000000000081526004016112f39061400f565b60405180910390fd5b600082600060028110611338577f4e487b7100000000000000000000000000000000000000000000000000000000600052603260045260246000fd5b602002013583600160028110611377577f4e487b7100000000000000000000000000000000000000000000000000000000600052603260045260246000fd5b602002013560405160200161138d929190613d4f565b60405160208183030381529060405280519060200120905060006113b2828433611e84565b9050806113f4576040517f08c379a00000000000000000000000000000000000000000000000000000000081526004016113eb9061408f565b60405180910390fd5b6000601560008481526020019081526020016000206000015490506114198482611b1f565b61142281611bd9565b600115156015600085815260200190815260200160002060010160149054906101000a905050507fa559673d1244980f99b73da51a667e2aea888c32fab5655ee99ed0b41399688b816015600086815260200190815260200160002060010160009054906101000a900473ffffffffffffffffffffffffffffffffffffffff166040516114b092919061412a565b60405180910390a15050505050565b6000600560008473ffffffffffffffffffffffffffffffffffffffff1673ffffffffffffffffffffffffffffffffffffffff16815260200190815260200160002060008373ffffffffffffffffffffffffffffffffffffffff1673ffffffffffffffffffffffffffffffffffffffff16815260200190815260200160002060009054906101000a900460ff16905092915050565b60008054906101000a900473ffffffffffffffffffffffffffffffffffffffff1673ffffffffffffffffffffffffffffffffffffffff163373ffffffffffffffffffffffffffffffffffffffff16146115e1576040517f08c379a00000000000000000000000000000000000000000000000000000000081526004016115d890613fef565b60405180910390fd5b806000806101000a81548173ffffffffffffffffffffffffffffffffffffffff021916908373ffffffffffffffffffffffffffffffffffffffff1602179055507feb38696426b5aa8881f6ba9f2f3e0ac06ee7ea6ffbe944120578d61191ef61018133604051611652929190613d96565b60405180910390a150565b600060149054906101000a900460ff16156116ad576040517f08c379a00000000000000000000000000000000000000000000000000000000081526004016116a49061400f565b60405180910390fd5b6000816000600281106116e9577f4e487b7100000000000000000000000000000000000000000000000000000000600052603260045260246000fd5b602002015182600160028110611728577f4e487b7100000000000000000000000000000000000000000000000000000000600052603260045260246000fd5b602002015160405160200161173e929190613d4f565b604051602081830303815290604052805190602001209050600073ffffffffffffffffffffffffffffffffffffffff166015600083815260200190815260200160002060010160009054906101000a900473ffffffffffffffffffffffffffffffffffffffff1673ffffffffffffffffffffffffffffffffffffffff16146117fb576040517f08c379a00000000000000000000000000000000000000000000000000000000081526004016117f29061406f565b60405180910390fd5b6000601360009054906101000a900473ffffffffffffffffffffffffffffffffffffffff1673ffffffffffffffffffffffffffffffffffffffff1663621e9ec0878787876040518563ffffffff1660e01b815260040161185e9493929190613e0b565b602060405180830381600087803b15801561187857600080fd5b505af115801561188c573d6000803e3d6000fd5b505050506040513d601f19601f820116820180604052508101906118b09190613722565b9050806118f2576040517f08c379a00000000000000000000000000000000000000000000000000000000081526004016118e99061402f565b60405180910390fd5b60006014805490509050600060405180606001604052808381526020013373ffffffffffffffffffffffffffffffffffffffff16815260200160001515815250905060148190806001815401808255809150506001900390600052602060002090600202016000909190919091506000820151816000015560208201518160010160006101000a81548173ffffffffffffffffffffffffffffffffffffffff021916908373ffffffffffffffffffffffffffffffffffffffff16021790555060408201518160010160146101000a81548160ff02191690831515021790555050507f078793128cefb19aac38a33f9e5df39f67716907f6d747e8065545699e0b2b8d8233604051611a0492919061412a565b60405180910390a15050505050505050565b600080611a2283610cc6565b90508073ffffffffffffffffffffffffffffffffffffffff168473ffffffffffffffffffffffffffffffffffffffff161480611a9157508373ffffffffffffffffffffffffffffffffffffffff16611a7984610593565b73ffffffffffffffffffffffffffffffffffffffff16145b80611aa25750611aa181856114bf565b5b91505092915050565b600060149054906101000a900460ff1615611afb576040517f08c379a0000000000000000000000000000000000000000000000000000000008152600401611af29061400f565b60405180910390fd5b611b068383836120b4565b611b108382612333565b611b1a828261255c565b505050565b600060149054906101000a900460ff1615611b6f576040517f08c379a0000000000000000000000000000000000000000000000000000000008152600401611b669061400f565b60405180910390fd5b611b7881611e12565b15611bb8576040517f08c379a0000000000000000000000000000000000000000000000000000000008152600401611baf90613f0f565b60405180910390fd5b611bc28282612620565b611bcc828261255c565b611bd581612828565b5050565b611be281611e12565b611c21576040517f08c379a0000000000000000000000000000000000000000000000000000000008152600401611c1890613faf565b60405180910390fd5b6000611cbf60118054611c339061443e565b80601f0160208091040260200160405190810160405280929190818152602001828054611c5f9061443e565b8015611cac5780601f10611c8157610100808354040283529160200191611cac565b820191906000526020600020905b815481529060010190602001808311611c8f57829003601f168201915b5050505050611cba84612871565b612a75565b905080601260008481526020019081526020016000209080519060200190611ce8929190613179565b505050565b600081600001549050919050565b6000611d1c8473ffffffffffffffffffffffffffffffffffffffff16612ab9565b611d295760019050611e0a565b60008473ffffffffffffffffffffffffffffffffffffffff1663150b7a02338887876040518563ffffffff1660e01b8152600401611d6a9493929190613dbf565b602060405180830381600087803b158015611d8457600080fd5b505af1158015611d98573d6000803e3d6000fd5b505050506040513d601f19601f82011682018060405250810190611dbc9190613847565b905063150b7a0260e01b7bffffffffffffffffffffffffffffffffffffffffffffffffffffffff1916817bffffffffffffffffffffffffffffffffffffffffffffffffffffffff1916149150505b949350505050565b6000806002600084815260200190815260200160002060009054906101000a900473ffffffffffffffffffffffffffffffffffffffff169050600073ffffffffffffffffffffffffffffffffffffffff168173ffffffffffffffffffffffffffffffffffffffff161415915050919050565b60008073ffffffffffffffffffffffffffffffffffffffff168373ffffffffffffffffffffffffffffffffffffffff161415611ef5576040517f08c379a0000000000000000000000000000000000000000000000000000000008152600401611eec90613f6f565b60405180910390fd5b8173ffffffffffffffffffffffffffffffffffffffff166015600086815260200190815260200160002060010160009054906101000a900473ffffffffffffffffffffffffffffffffffffffff1673ffffffffffffffffffffffffffffffffffffffff1614611f99576040517f08c379a0000000000000000000000000000000000000000000000000000000008152600401611f9090613eaf565b60405180910390fd5b600073ffffffffffffffffffffffffffffffffffffffff166015600086815260200190815260200160002060010160009054906101000a900473ffffffffffffffffffffffffffffffffffffffff1673ffffffffffffffffffffffffffffffffffffffff16141561203f576040517f08c379a0000000000000000000000000000000000000000000000000000000008152600401612036906140cf565b60405180910390fd5b600015156015600086815260200190815260200160002060010160149054906101000a900460ff161515146120a9576040517f08c379a00000000000000000000000000000000000000000000000000000000081526004016120a090613fcf565b60405180910390fd5b600190509392505050565b600060149054906101000a900460ff1615612104576040517f08c379a00000000000000000000000000000000000000000000000000000000081526004016120fb9061400f565b60405180910390fd5b61210d81610cc6565b73ffffffffffffffffffffffffffffffffffffffff168373ffffffffffffffffffffffffffffffffffffffff161461217a576040517f08c379a000000000000000000000000000000000000000000000000000000000815260040161217190613f4f565b60405180910390fd5b600073ffffffffffffffffffffffffffffffffffffffff168273ffffffffffffffffffffffffffffffffffffffff1614156121ea576040517f08c379a00000000000000000000000000000000000000000000000000000000081526004016121e190613f8f565b60405180910390fd5b6121f381612adc565b61223a600460008573ffffffffffffffffffffffffffffffffffffffff1673ffffffffffffffffffffffffffffffffffffffff168152602001908152602001600020612bea565b612281600460008473ffffffffffffffffffffffffffffffffffffffff1673ffffffffffffffffffffffffffffffffffffffff168152602001908152602001600020612c46565b816002600083815260200190815260200160002060006101000a81548173ffffffffffffffffffffffffffffffffffffffff021916908373ffffffffffffffffffffffffffffffffffffffff160217905550808273ffffffffffffffffffffffffffffffffffffffff168473ffffffffffffffffffffffffffffffffffffffff167fddf252ad1be2c89b69c2b068fc378daa952ba7f163c4a11628f55a4df523b3ef60405160405180910390a4505050565b60006001600660008573ffffffffffffffffffffffffffffffffffffffff1673ffffffffffffffffffffffffffffffffffffffff16815260200190815260200160002080549050612384919061434a565b90506000600760008481526020019081526020016000205490508181146124cb576000600660008673ffffffffffffffffffffffffffffffffffffffff1673ffffffffffffffffffffffffffffffffffffffff168152602001908152602001600020838154811061241e577f4e487b7100000000000000000000000000000000000000000000000000000000600052603260045260246000fd5b9060005260206000200154905080600660008773ffffffffffffffffffffffffffffffffffffffff1673ffffffffffffffffffffffffffffffffffffffff16815260200190815260200160002083815481106124a3577f4e487b7100000000000000000000000000000000000000000000000000000000600052603260045260246000fd5b9060005260206000200181905550816007600083815260200190815260200160002081905550505b600660008573ffffffffffffffffffffffffffffffffffffffff1673ffffffffffffffffffffffffffffffffffffffff168152602001908152602001600020805480612540577f4e487b7100000000000000000000000000000000000000000000000000000000600052603160045260246000fd5b6001900381819060005260206000200160009055905550505050565b600660008373ffffffffffffffffffffffffffffffffffffffff1673ffffffffffffffffffffffffffffffffffffffff168152602001908152602001600020805490506007600083815260200190815260200160002081905550600660008373ffffffffffffffffffffffffffffffffffffffff1673ffffffffffffffffffffffffffffffffffffffff1681526020019081526020016000208190806001815401808255809150506001900390600052602060002001600090919091909150555050565b600060149054906101000a900460ff1615612670576040517f08c379a00000000000000000000000000000000000000000000000000000000081526004016126679061400f565b60405180910390fd5b6000151561267d82611e12565b1515146126bf576040517f08c379a00000000000000000000000000000000000000000000000000000000081526004016126b690613ecf565b60405180910390fd5b600073ffffffffffffffffffffffffffffffffffffffff168273ffffffffffffffffffffffffffffffffffffffff16141561272f576040517f08c379a0000000000000000000000000000000000000000000000000000000008152600401612726906140af565b60405180910390fd5b816002600083815260200190815260200160002060006101000a81548173ffffffffffffffffffffffffffffffffffffffff021916908373ffffffffffffffffffffffffffffffffffffffff1602179055506127c8600460008473ffffffffffffffffffffffffffffffffffffffff1673ffffffffffffffffffffffffffffffffffffffff168152602001908152602001600020612c46565b808273ffffffffffffffffffffffffffffffffffffffff16600073ffffffffffffffffffffffffffffffffffffffff167fddf252ad1be2c89b69c2b068fc378daa952ba7f163c4a11628f55a4df523b3ef60405160405180910390a45050565b6008805490506009600083815260200190815260200160002081905550600881908060018154018082558091505060019003906000526020600020016000909190919091505550565b606060008214156128b9576040518060400160405280600181526020017f30000000000000000000000000000000000000000000000000000000000000008152509050612a70565b600082905060005b600082146128eb5780806128d4906144a1565b915050600a826128e49190614319565b91506128c1565b60008167ffffffffffffffff81111561292d577f4e487b7100000000000000000000000000000000000000000000000000000000600052604160045260246000fd5b6040519080825280601f01601f19166020018201604052801561295f5781602001600182028036833780820191505090505b5090506000600183612971919061434a565b90505b60008614612a6857600a86816129b3577f4e487b7100000000000000000000000000000000000000000000000000000000600052601260045260246000fd5b0660300160f81b828280600190039350815181106129fa577f4e487b7100000000000000000000000000000000000000000000000000000000600052603260045260246000fd5b60200101907effffffffffffffffffffffffffffffffffffffffffffffffffffffffffffff1916908160001a905350600a8681612a60577f4e487b7100000000000000000000000000000000000000000000000000000000600052601260045260246000fd5b049550612974565b819450505050505b919050565b6060612ab18383604051806020016040528060008152506040518060200160405280600081525060405180602001604052806000815250612c5c565b905092915050565b6000808273ffffffffffffffffffffffffffffffffffffffff163b119050919050565b600060149054906101000a900460ff1615612b2c576040517f08c379a0000000000000000000000000000000000000000000000000000000008152600401612b239061400f565b60405180910390fd5b600073ffffffffffffffffffffffffffffffffffffffff166003600083815260200190815260200160002060009054906101000a900473ffffffffffffffffffffffffffffffffffffffff1673ffffffffffffffffffffffffffffffffffffffff1614612be75760006003600083815260200190815260200160002060006101000a81548173ffffffffffffffffffffffffffffffffffffffff021916908373ffffffffffffffffffffffffffffffffffffffff1602179055505b50565b60008160000154905060008111612c36576040517f08c379a0000000000000000000000000000000000000000000000000000000008152600401612c2d90613eef565b60405180910390fd5b6001810382600001819055505050565b6001816000016000828254019250508190555050565b606060008690506000869050600086905060008690506000869050600081518351855187518951612c8d91906142c3565b612c9791906142c3565b612ca191906142c3565b612cab91906142c3565b67ffffffffffffffff811115612cea577f4e487b7100000000000000000000000000000000000000000000000000000000600052604160045260246000fd5b6040519080825280601f01601f191660200182016040528015612d1c5781602001600182028036833780820191505090505b5090506000819050600080600090505b8851811015612e0057888181518110612d6e577f4e487b7100000000000000000000000000000000000000000000000000000000600052603260045260246000fd5b602001015160f81c60f81b838380612d85906144a1565b945081518110612dbe577f4e487b7100000000000000000000000000000000000000000000000000000000600052603260045260246000fd5b60200101907effffffffffffffffffffffffffffffffffffffffffffffffffffffffffffff1916908160001a9053508080612df8906144a1565b915050612d2c565b600090505b8751811015612ed957878181518110612e47577f4e487b7100000000000000000000000000000000000000000000000000000000600052603260045260246000fd5b602001015160f81c60f81b838380612e5e906144a1565b945081518110612e97577f4e487b7100000000000000000000000000000000000000000000000000000000600052603260045260246000fd5b60200101907effffffffffffffffffffffffffffffffffffffffffffffffffffffffffffff1916908160001a9053508080612ed1906144a1565b915050612e05565b600090505b8651811015612fb257868181518110612f20577f4e487b7100000000000000000000000000000000000000000000000000000000600052603260045260246000fd5b602001015160f81c60f81b838380612f37906144a1565b945081518110612f70577f4e487b7100000000000000000000000000000000000000000000000000000000600052603260045260246000fd5b60200101907effffffffffffffffffffffffffffffffffffffffffffffffffffffffffffff1916908160001a9053508080612faa906144a1565b915050612ede565b600090505b855181101561308b57858181518110612ff9577f4e487b7100000000000000000000000000000000000000000000000000000000600052603260045260246000fd5b602001015160f81c60f81b838380613010906144a1565b945081518110613049577f4e487b7100000000000000000000000000000000000000000000000000000000600052603260045260246000fd5b60200101907effffffffffffffffffffffffffffffffffffffffffffffffffffffffffffff1916908160001a9053508080613083906144a1565b915050612fb7565b600090505b8451811015613164578481815181106130d2577f4e487b7100000000000000000000000000000000000000000000000000000000600052603260045260246000fd5b602001015160f81c60f81b8383806130e9906144a1565b945081518110613122577f4e487b7100000000000000000000000000000000000000000000000000000000600052603260045260246000fd5b60200101907effffffffffffffffffffffffffffffffffffffffffffffffffffffffffffff1916908160001a905350808061315c906144a1565b915050613090565b82995050505050505050505095945050505050565b8280546131859061443e565b90600052602060002090601f0160209004810192826131a757600085556131ee565b82601f106131c057805160ff19168380011785556131ee565b828001600101855582156131ee579182015b828111156131ed5782518255916020019190600101906131d2565b5b5090506131fb91906131ff565b5090565b5b80821115613218576000816000905550600101613200565b5090565b600061322f61322a84614178565b614153565b9050808285604086028201111561324557600080fd5b60005b85811015613275578161325b88826133b8565b845260208401935060408301925050600181019050613248565b5050509392505050565b600061329261328d8461419e565b614153565b905080828560208602820111156132a857600080fd5b60005b858110156132d857816132be888261349c565b8452602084019350602083019250506001810190506132ab565b5050509392505050565b60006132f56132f0846141c4565b614153565b90508281526020810184848401111561330d57600080fd5b6133188482856143fc565b509392505050565b600061333361332e846141f5565b614153565b90508281526020810184848401111561334b57600080fd5b6133568482856143fc565b509392505050565b60008135905061336d81614a97565b92915050565b600082601f83011261338457600080fd5b600261339184828561321c565b91505092915050565b6000819050826020600202820111156133b257600080fd5b92915050565b600082601f8301126133c957600080fd5b60026133d684828561327f565b91505092915050565b6000813590506133ee81614aae565b92915050565b60008151905061340381614aae565b92915050565b60008135905061341881614ac5565b92915050565b60008135905061342d81614adc565b92915050565b60008151905061344281614adc565b92915050565b600082601f83011261345957600080fd5b81356134698482602086016132e2565b91505092915050565b600082601f83011261348357600080fd5b8135613493848260208601613320565b91505092915050565b6000813590506134ab81614af3565b92915050565b6000602082840312156134c357600080fd5b60006134d18482850161335e565b91505092915050565b600080604083850312156134ed57600080fd5b60006134fb8582860161335e565b925050602061350c8582860161335e565b9150509250929050565b60008060006060848603121561352b57600080fd5b60006135398682870161335e565b935050602061354a8682870161335e565b925050604061355b8682870161349c565b9150509250925092565b6000806000806080858703121561357b57600080fd5b60006135898782880161335e565b945050602061359a8782880161335e565b93505060406135ab8782880161349c565b925050606085013567ffffffffffffffff8111156135c857600080fd5b6135d487828801613448565b91505092959194509250565b600080604083850312156135f357600080fd5b60006136018582860161335e565b9250506020613612858286016133df565b9150509250929050565b6000806040838503121561362f57600080fd5b600061363d8582860161335e565b925050602061364e8582860161349c565b9150509250929050565b6000806060838503121561366b57600080fd5b60006136798582860161339a565b925050604061368a8582860161335e565b9150509250929050565b60008060008061014085870312156136ab57600080fd5b60006136b9878288016133b8565b94505060406136ca87828801613373565b93505060c06136db878288016133b8565b9250506101006136ed878288016133b8565b91505092959194509250565b60006020828403121561370b57600080fd5b6000613719848285016133df565b91505092915050565b60006020828403121561373457600080fd5b6000613742848285016133f4565b91505092915050565b6000806040838503121561375e57600080fd5b600061376c85828601613409565b925050602083013567ffffffffffffffff81111561378957600080fd5b61379585828601613472565b9150509250929050565b6000806000606084860312156137b457600080fd5b60006137c286828701613409565b935050602084013567ffffffffffffffff8111156137df57600080fd5b6137eb86828701613472565b925050604084013567ffffffffffffffff81111561380857600080fd5b61381486828701613448565b9150509250925092565b60006020828403121561383057600080fd5b600061383e8482850161341e565b91505092915050565b60006020828403121561385957600080fd5b600061386784828501613433565b91505092915050565b60006020828403121561388257600080fd5b60006138908482850161349c565b91505092915050565b60006138a5838361392f565b60408301905092915050565b60006138bd8383613d1a565b60208301905092915050565b6138d28161437e565b82525050565b6138e18161423a565b6138eb8184614280565b92506138f682614226565b8060005b8381101561392757815161390e8782613899565b965061391983614266565b9250506001810190506138fa565b505050505050565b61393881614245565b613942818461428b565b925061394d82614230565b8060005b8381101561397e57815161396587826138b1565b965061397083614273565b925050600181019050613951565b505050505050565b61398f81614245565b6139998184614296565b92506139a482614230565b8060005b838110156139d55781516139bc87826138b1565b96506139c783614273565b9250506001810190506139a8565b505050505050565b6139e681614390565b82525050565b60006139f782614250565b613a0181856142a1565b9350613a1181856020860161440b565b613a1a816145b0565b840191505092915050565b6000613a308261425b565b613a3a81856142b2565b9350613a4a81856020860161440b565b613a53816145b0565b840191505092915050565b6000613a6b6025836142b2565b9150613a76826145c1565b604082019050919050565b6000613a8e602f836142b2565b9150613a9982614610565b604082019050919050565b6000613ab16019836142b2565b9150613abc8261465f565b602082019050919050565b6000613ad4601b836142b2565b9150613adf82614688565b602082019050919050565b6000613af76016836142b2565b9150613b02826146b1565b602082019050919050565b6000613b1a603c836142b2565b9150613b25826146da565b604082019050919050565b6000613b3d6022836142b2565b9150613b4882614729565b604082019050919050565b6000613b606022836142b2565b9150613b6b82614778565b604082019050919050565b6000613b83601a836142b2565b9150613b8e826147c7565b602082019050919050565b6000613ba66014836142b2565b9150613bb1826147f0565b602082019050919050565b6000613bc96030836142b2565b9150613bd482614819565b604082019050919050565b6000613bec603c836142b2565b9150613bf782614868565b604082019050919050565b6000613c0f603f836142b2565b9150613c1a826148b7565b604082019050919050565b6000613c326036836142b2565b9150613c3d82614906565b604082019050919050565b6000613c55601e836142b2565b9150613c6082614955565b602082019050919050565b6000613c78601c836142b2565b9150613c838261497e565b602082019050919050565b6000613c9b601b836142b2565b9150613ca6826149a7565b602082019050919050565b6000613cbe601a836142b2565b9150613cc9826149d0565b602082019050919050565b6000613ce16026836142b2565b9150613cec826149f9565b604082019050919050565b6000613d046038836142b2565b9150613d0f82614a48565b604082019050919050565b613d23816143f2565b82525050565b613d32816143f2565b82525050565b613d49613d44826143f2565b6144ea565b82525050565b6000613d5b8285613d38565b602082019150613d6b8284613d38565b6020820191508190509392505050565b6000602082019050613d9060008301846138c9565b92915050565b6000604082019050613dab60008301856138c9565b613db860208301846138c9565b9392505050565b6000608082019050613dd460008301876138c9565b613de160208301866138c9565b613dee6040830185613d29565b8181036060830152613e0081846139ec565b905095945050505050565b600061014082019050613e216000830187613986565b613e2e60408301866138d8565b613e3b60c0830185613986565b613e49610100830184613986565b95945050505050565b6000602082019050613e6760008301846139dd565b92915050565b60006020820190508181036000830152613e878184613a25565b905092915050565b60006020820190508181036000830152613ea881613a5e565b9050919050565b60006020820190508181036000830152613ec881613a81565b9050919050565b60006020820190508181036000830152613ee881613aa4565b9050919050565b60006020820190508181036000830152613f0881613ac7565b9050919050565b60006020820190508181036000830152613f2881613aea565b9050919050565b60006020820190508181036000830152613f4881613b0d565b9050919050565b60006020820190508181036000830152613f6881613b30565b9050919050565b60006020820190508181036000830152613f8881613b53565b9050919050565b60006020820190508181036000830152613fa881613b76565b9050919050565b60006020820190508181036000830152613fc881613b99565b9050919050565b60006020820190508181036000830152613fe881613bbc565b9050919050565b6000602082019050818103600083015261400881613bdf565b9050919050565b6000602082019050818103600083015261402881613c02565b9050919050565b6000602082019050818103600083015261404881613c25565b9050919050565b6000602082019050818103600083015261406881613c48565b9050919050565b6000602082019050818103600083015261408881613c6b565b9050919050565b600060208201905081810360008301526140a881613c8e565b9050919050565b600060208201905081810360008301526140c881613cb1565b9050919050565b600060208201905081810360008301526140e881613cd4565b9050919050565b6000602082019050818103600083015261410881613cf7565b9050919050565b60006020820190506141246000830184613d29565b92915050565b600060408201905061413f6000830185613d29565b61414c60208301846138c9565b9392505050565b600061415d61416e565b90506141698282614470565b919050565b6000604051905090565b600067ffffffffffffffff82111561419357614192614581565b5b602082029050919050565b600067ffffffffffffffff8211156141b9576141b8614581565b5b602082029050919050565b600067ffffffffffffffff8211156141df576141de614581565b5b6141e8826145b0565b9050602081019050919050565b600067ffffffffffffffff8211156142105761420f614581565b5b614219826145b0565b9050602081019050919050565b6000819050919050565b6000819050919050565b600060029050919050565b600060029050919050565b600081519050919050565b600081519050919050565b6000602082019050919050565b6000602082019050919050565b600081905092915050565b600081905092915050565b600081905092915050565b600082825260208201905092915050565b600082825260208201905092915050565b60006142ce826143f2565b91506142d9836143f2565b9250827fffffffffffffffffffffffffffffffffffffffffffffffffffffffffffffffff0382111561430e5761430d6144f4565b5b828201905092915050565b6000614324826143f2565b915061432f836143f2565b92508261433f5761433e614523565b5b828204905092915050565b6000614355826143f2565b9150614360836143f2565b925082821015614373576143726144f4565b5b828203905092915050565b6000614389826143d2565b9050919050565b60008115159050919050565b6000819050919050565b60007fffffffff0000000000000000000000000000000000000000000000000000000082169050919050565b600073ffffffffffffffffffffffffffffffffffffffff82169050919050565b6000819050919050565b82818337600083830152505050565b60005b8381101561442957808201518184015260208101905061440e565b83811115614438576000848401525b50505050565b6000600282049050600182168061445657607f821691505b6020821081141561446a57614469614552565b5b50919050565b614479826145b0565b810181811067ffffffffffffffff8211171561449857614497614581565b5b80604052505050565b60006144ac826143f2565b91507fffffffffffffffffffffffffffffffffffffffffffffffffffffffffffffffff8214156144df576144de6144f4565b5b600182019050919050565b6000819050919050565b7f4e487b7100000000000000000000000000000000000000000000000000000000600052601160045260246000fd5b7f4e487b7100000000000000000000000000000000000000000000000000000000600052601260045260246000fd5b7f4e487b7100000000000000000000000000000000000000000000000000000000600052602260045260246000fd5b7f4e487b7100000000000000000000000000000000000000000000000000000000600052604160045260246000fd5b6000601f19601f8301169050919050565b7f596f75206d75737420696e697469616c697365206120646966666572656e742060008201527f76616c7565000000000000000000000000000000000000000000000000000000602082015250565b7f4f6e6c792074686520736f6c7574696f6e20616464726573732063616e20696e60008201527f697469616c6973652061206d696e740000000000000000000000000000000000602082015250565b7f5468697320746f6b656e20616c72656164792065786973747300000000000000600082015250565b7f436f756e7465723a2064656372656d656e74206f766572666c6f770000000000600082015250565b7f546f6b656e494420616c72656164792065786973747300000000000000000000600082015250565b7f596f75206d75737420626520746865206f776e6572206f7220617070726f766560008201527f6420627920746865206f776e6572206f66207468697320746f6b656e00000000602082015250565b7f596f75206d75737420626520746865206f776e6572206f662074686520746f6b60008201527f656e000000000000000000000000000000000000000000000000000000000000602082015250565b7f706172616d2027746f27204d75737420626520612076616c696420616464726560008201527f7373000000000000000000000000000000000000000000000000000000000000602082015250565b7f4d75737420626520612076616c696420746f2061646472657373000000000000600082015250565b7f546f6b656e20646f6573206e6f74206578697374000000000000000000000000600082015250565b7f546f6b656e2068617320616c7265616479206265656e206d696e74656420776960008201527f7468207468697320736f6c7574696f6e00000000000000000000000000000000602082015250565b7f596f75206d75737420626520746865206f776e6572206f662074686520636f6e60008201527f747261637420746f20656e74657220746869732066756e6374696f6e00000000602082015250565b7f54686520636f6e74726163742069732063757272656e746c792070617573656460008201527f2c20746869732066756e6374696f6e206973206e6f742063616c6c61626c6500602082015250565b7f5472616e73616374696f6e20636f756c64206e6f74206265207665726966696560008201527f64207769746820676976656e20617267756d656e747300000000000000000000602082015250565b7f796f75206d75737420696e707574206120626f6f6c65616e2076616c75650000600082015250565b7f5468697320736f6c7574696f6e20616c72656164792065786973747300000000600082015250565b7f5468697320736f6c7574696f6e206973206e6f7420756e697175650000000000600082015250565b7f4d75737420656e74657220612076616c69642061646472657373000000000000600082015250565b7f706172616d20276d696e74657227206d75737420626520612076616c6964206160008201527f6464726573730000000000000000000000000000000000000000000000000000602082015250565b7f596f75206d757374206e6f7420626520746865206f776e6572206f662074686560008201527f20746f6b656e20796f752061726520617070726f76696e670000000000000000602082015250565b614aa08161437e565b8114614aab57600080fd5b50565b614ab781614390565b8114614ac257600080fd5b50565b614ace8161439c565b8114614ad957600080fd5b50565b614ae5816143a6565b8114614af057600080fd5b50565b614afc816143f2565b8114614b0757600080fd5b5056fea26469706673582212202ac73c03cc89d580a53cce904cf2a7561ae1637f894a36a9cea5e3514fa0758c64736f6c63430008040033",
  "linkReferences": {},
  "deployedLinkReferences": {}
}