{
  "_format": "hh-sol-artifact-1",
  "contractName": "SolnSquareVerifier",
  "sourceName": "contracts/SolnSquareVerifier.sol",
  "abi": [
    {
      "inputs": [
        {
          "internalType": "address",
          "name": "verifierContractAdd",
          "type": "address"
        },
        {
          "internalType": "string",
          "name": "name",
          "type": "string"
        },
        {
          "internalType": "string",
          "name": "symbol",
          "type": "string"
        },
        {
          "internalType": "string",
          "name": "baseURI",
          "type": "string"
        }
      ],
      "stateMutability": "nonpayable",
      "type": "constructor"
    },
    {
      "anonymous": false,
      "inputs": [
        {
          "indexed": true,
          "internalType": "address",
          "name": "owner",
          "type": "address"
        },
        {
          "indexed": true,
          "internalType": "address",
          "name": "approved",
          "type": "address"
        },
        {
          "indexed": true,
          "internalType": "uint256",
          "name": "tokenId",
          "type": "uint256"
        }
      ],
      "name": "Approval",
      "type": "event"
    },
    {
      "anonymous": false,
      "inputs": [
        {
          "indexed": true,
          "internalType": "address",
          "name": "owner",
          "type": "address"
        },
        {
          "indexed": true,
          "internalType": "address",
          "name": "operator",
          "type": "address"
        },
        {
          "indexed": false,
          "internalType": "bool",
          "name": "approved",
          "type": "bool"
        }
      ],
      "name": "ApprovalForAll",
      "type": "event"
    },
    {
      "anonymous": false,
      "inputs": [
        {
          "indexed": false,
          "internalType": "uint256",
          "name": "index",
          "type": "uint256"
        },
        {
          "indexed": false,
          "internalType": "address",
          "name": "from",
          "type": "address"
        }
      ],
      "name": "MintedSolution",
      "type": "event"
    },
    {
      "anonymous": false,
      "inputs": [
        {
          "indexed": false,
          "internalType": "bool",
          "name": "value",
          "type": "bool"
        }
      ],
      "name": "Paused",
      "type": "event"
    },
    {
      "anonymous": false,
      "inputs": [
        {
          "indexed": false,
          "internalType": "uint256",
          "name": "index",
          "type": "uint256"
        },
        {
          "indexed": false,
          "internalType": "address",
          "name": "from",
          "type": "address"
        }
      ],
      "name": "SolutionAdded",
      "type": "event"
    },
    {
      "anonymous": false,
      "inputs": [
        {
          "indexed": true,
          "internalType": "address",
          "name": "from",
          "type": "address"
        },
        {
          "indexed": true,
          "internalType": "address",
          "name": "to",
          "type": "address"
        },
        {
          "indexed": true,
          "internalType": "uint256",
          "name": "tokenId",
          "type": "uint256"
        }
      ],
      "name": "Transfer",
      "type": "event"
    },
    {
      "anonymous": false,
      "inputs": [
        {
          "indexed": false,
          "internalType": "bool",
          "name": "value",
          "type": "bool"
        }
      ],
      "name": "UnPaused",
      "type": "event"
    },
    {
      "anonymous": false,
      "inputs": [
        {
          "indexed": false,
          "internalType": "address",
          "name": "newOwner",
          "type": "address"
        },
        {
          "indexed": false,
          "internalType": "address",
          "name": "oldOwner",
          "type": "address"
        }
      ],
      "name": "ownershipTransfered",
      "type": "event"
    },
    {
      "inputs": [
        {
          "internalType": "bytes32",
          "name": "_myid",
          "type": "bytes32"
        },
        {
          "internalType": "string",
          "name": "_result",
          "type": "string"
        }
      ],
      "name": "__callback",
      "outputs": [],
      "stateMutability": "nonpayable",
      "type": "function"
    },
    {
      "inputs": [
        {
          "internalType": "bytes32",
          "name": "_myid",
          "type": "bytes32"
        },
        {
          "internalType": "string",
          "name": "_result",
          "type": "string"
        },
        {
          "internalType": "bytes",
          "name": "_proof",
          "type": "bytes"
        }
      ],
      "name": "__callback",
      "outputs": [],
      "stateMutability": "nonpayable",
      "type": "function"
    },
    {
      "inputs": [
        {
          "internalType": "uint256[2]",
          "name": "a",
          "type": "uint256[2]"
        },
        {
          "internalType": "uint256[2][2]",
          "name": "b",
          "type": "uint256[2][2]"
        },
        {
          "internalType": "uint256[2]",
          "name": "c",
          "type": "uint256[2]"
        },
        {
          "internalType": "uint256[2]",
          "name": "input",
          "type": "uint256[2]"
        }
      ],
      "name": "addSolution",
      "outputs": [],
      "stateMutability": "nonpayable",
      "type": "function"
    },
    {
      "inputs": [
        {
          "internalType": "address",
          "name": "to",
          "type": "address"
        },
        {
          "internalType": "uint256",
          "name": "tokenId",
          "type": "uint256"
        }
      ],
      "name": "approve",
      "outputs": [],
      "stateMutability": "nonpayable",
      "type": "function"
    },
    {
      "inputs": [
        {
          "internalType": "address",
          "name": "owner",
          "type": "address"
        }
      ],
      "name": "balanceOf",
      "outputs": [
        {
          "internalType": "uint256",
          "name": "",
          "type": "uint256"
        }
      ],
      "stateMutability": "view",
      "type": "function"
    },
    {
      "inputs": [
        {
          "internalType": "uint256",
          "name": "tokenId",
          "type": "uint256"
        }
      ],
      "name": "getApproved",
      "outputs": [
        {
          "internalType": "address",
          "name": "",
          "type": "address"
        }
      ],
      "stateMutability": "view",
      "type": "function"
    },
    {
      "inputs": [],
      "name": "getBaseTokenURI",
      "outputs": [
        {
          "internalType": "string",
          "name": "",
          "type": "string"
        }
      ],
      "stateMutability": "view",
      "type": "function"
    },
    {
      "inputs": [],
      "name": "getName",
      "outputs": [
        {
          "internalType": "string",
          "name": "",
          "type": "string"
        }
      ],
      "stateMutability": "view",
      "type": "function"
    },
    {
      "inputs": [],
      "name": "getOwner",
      "outputs": [
        {
          "internalType": "address",
          "name": "",
          "type": "address"
        }
      ],
      "stateMutability": "view",
      "type": "function"
    },
    {
      "inputs": [],
      "name": "getPauseStatus",
      "outputs": [
        {
          "internalType": "bool",
          "name": "status",
          "type": "bool"
        }
      ],
      "stateMutability": "view",
      "type": "function"
    },
    {
      "inputs": [],
      "name": "getSymbol",
      "outputs": [
        {
          "internalType": "string",
          "name": "",
          "type": "string"
        }
      ],
      "stateMutability": "view",
      "type": "function"
    },
    {
      "inputs": [
        {
          "internalType": "address",
          "name": "owner",
          "type": "address"
        },
        {
          "internalType": "address",
          "name": "operator",
          "type": "address"
        }
      ],
      "name": "isApprovedForAll",
      "outputs": [
        {
          "internalType": "bool",
          "name": "",
          "type": "bool"
        }
      ],
      "stateMutability": "view",
      "type": "function"
    },
    {
      "inputs": [
        {
          "internalType": "address",
          "name": "to",
          "type": "address"
        },
        {
          "internalType": "uint256",
          "name": "tokenId",
          "type": "uint256"
        }
      ],
      "name": "mint",
      "outputs": [
        {
          "internalType": "bool",
          "name": "",
          "type": "bool"
        }
      ],
      "stateMutability": "nonpayable",
      "type": "function"
    },
    {
      "inputs": [
        {
          "internalType": "uint256[2]",
          "name": "inputs",
          "type": "uint256[2]"
        },
        {
          "internalType": "address",
          "name": "to",
          "type": "address"
        }
      ],
      "name": "mintNewNFT",
      "outputs": [],
      "stateMutability": "nonpayable",
      "type": "function"
    },
    {
      "inputs": [
        {
          "internalType": "uint256",
          "name": "tokenId",
          "type": "uint256"
        }
      ],
      "name": "ownerOf",
      "outputs": [
        {
          "internalType": "address",
          "name": "",
          "type": "address"
        }
      ],
      "stateMutability": "view",
      "type": "function"
    },
    {
      "inputs": [
        {
          "internalType": "address",
          "name": "from",
          "type": "address"
        },
        {
          "internalType": "address",
          "name": "to",
          "type": "address"
        },
        {
          "internalType": "uint256",
          "name": "tokenId",
          "type": "uint256"
        }
      ],
      "name": "safeTransferFrom",
      "outputs": [],
      "stateMutability": "nonpayable",
      "type": "function"
    },
    {
      "inputs": [
        {
          "internalType": "address",
          "name": "from",
          "type": "address"
        },
        {
          "internalType": "address",
          "name": "to",
          "type": "address"
        },
        {
          "internalType": "uint256",
          "name": "tokenId",
          "type": "uint256"
        },
        {
          "internalType": "bytes",
          "name": "_data",
          "type": "bytes"
        }
      ],
      "name": "safeTransferFrom",
      "outputs": [],
      "stateMutability": "nonpayable",
      "type": "function"
    },
    {
      "inputs": [
        {
          "internalType": "address",
          "name": "to",
          "type": "address"
        },
        {
          "internalType": "bool",
          "name": "approved",
          "type": "bool"
        }
      ],
      "name": "setApprovalForAll",
      "outputs": [],
      "stateMutability": "nonpayable",
      "type": "function"
    },
    {
      "inputs": [
        {
          "internalType": "bool",
          "name": "_value",
          "type": "bool"
        }
      ],
      "name": "setPauseStatus",
      "outputs": [],
      "stateMutability": "nonpayable",
      "type": "function"
    },
    {
      "inputs": [
        {
          "internalType": "bytes4",
          "name": "interfaceId",
          "type": "bytes4"
        }
      ],
      "name": "supportsInterface",
      "outputs": [
        {
          "internalType": "bool",
          "name": "",
          "type": "bool"
        }
      ],
      "stateMutability": "view",
      "type": "function"
    },
    {
      "inputs": [
        {
          "internalType": "uint256",
          "name": "index",
          "type": "uint256"
        }
      ],
      "name": "tokenByIndex",
      "outputs": [
        {
          "internalType": "uint256",
          "name": "",
          "type": "uint256"
        }
      ],
      "stateMutability": "view",
      "type": "function"
    },
    {
      "inputs": [
        {
          "internalType": "address",
          "name": "owner",
          "type": "address"
        },
        {
          "internalType": "uint256",
          "name": "index",
          "type": "uint256"
        }
      ],
      "name": "tokenOfOwnerByIndex",
      "outputs": [
        {
          "internalType": "uint256",
          "name": "",
          "type": "uint256"
        }
      ],
      "stateMutability": "view",
      "type": "function"
    },
    {
      "inputs": [
        {
          "internalType": "uint256",
          "name": "tokenId",
          "type": "uint256"
        }
      ],
      "name": "tokenURI",
      "outputs": [
        {
          "internalType": "string",
          "name": "",
          "type": "string"
        }
      ],
      "stateMutability": "view",
      "type": "function"
    },
    {
      "inputs": [],
      "name": "totalSupply",
      "outputs": [
        {
          "internalType": "uint256",
          "name": "",
          "type": "uint256"
        }
      ],
      "stateMutability": "view",
      "type": "function"
    },
    {
      "inputs": [
        {
          "internalType": "address",
          "name": "from",
          "type": "address"
        },
        {
          "internalType": "address",
          "name": "to",
          "type": "address"
        },
        {
          "internalType": "uint256",
          "name": "tokenId",
          "type": "uint256"
        }
      ],
      "name": "transferFrom",
      "outputs": [],
      "stateMutability": "nonpayable",
      "type": "function"
    },
    {
      "inputs": [
        {
          "internalType": "address",
          "name": "_newOwner",
          "type": "address"
        }
      ],
      "name": "transferOwnership",
      "outputs": [],
      "stateMutability": "nonpayable",
      "type": "function"
    }
  ],
  "bytecode": "0x608060405260006014553480156200001657600080fd5b50604051620051343803806200513483398181016040528101906200003c919062000371565b828282828282336000806101000a81548173ffffffffffffffffffffffffffffffffffffffff021916908373ffffffffffffffffffffffffffffffffffffffff16021790555060008060146101000a81548160ff021916908315150217905550620000b46301ffc9a760e01b6200019860201b60201c565b620000cc6380ac58cd60e01b6200019860201b60201c565b620000e463780e9d6360e01b6200019860201b60201c565b82600f9080519060200190620000fc92919062000238565b5081601090805190602001906200011592919062000238565b5080601190805190602001906200012e92919062000238565b5062000147635b5e139f60e01b6200019860201b60201c565b50505050505083601360006101000a81548173ffffffffffffffffffffffffffffffffffffffff021916908373ffffffffffffffffffffffffffffffffffffffff16021790555050505050620005e6565b63ffffffff60e01b817bffffffffffffffffffffffffffffffffffffffffffffffffffffffff19161415620001cc57600080fd5b6001806000837bffffffffffffffffffffffffffffffffffffffffffffffffffffffff19167bffffffffffffffffffffffffffffffffffffffffffffffffffffffff1916815260200190815260200160002060006101000a81548160ff02191690831515021790555050565b8280546200024690620004f1565b90600052602060002090601f0160209004810192826200026a5760008555620002b6565b82601f106200028557805160ff1916838001178555620002b6565b82800160010185558215620002b6579182015b82811115620002b557825182559160200191906001019062000298565b5b509050620002c59190620002c9565b5090565b5b80821115620002e4576000816000905550600101620002ca565b5090565b6000620002ff620002f98462000451565b62000428565b9050828152602081018484840111156200031857600080fd5b62000325848285620004bb565b509392505050565b6000815190506200033e81620005cc565b92915050565b600082601f8301126200035657600080fd5b815162000368848260208601620002e8565b91505092915050565b600080600080608085870312156200038857600080fd5b600062000398878288016200032d565b945050602085015167ffffffffffffffff811115620003b657600080fd5b620003c48782880162000344565b935050604085015167ffffffffffffffff811115620003e257600080fd5b620003f08782880162000344565b925050606085015167ffffffffffffffff8111156200040e57600080fd5b6200041c8782880162000344565b91505092959194509250565b60006200043462000447565b905062000442828262000527565b919050565b6000604051905090565b600067ffffffffffffffff8211156200046f576200046e6200058c565b5b6200047a82620005bb565b9050602081019050919050565b600062000494826200049b565b9050919050565b600073ffffffffffffffffffffffffffffffffffffffff82169050919050565b60005b83811015620004db578082015181840152602081019050620004be565b83811115620004eb576000848401525b50505050565b600060028204905060018216806200050a57607f821691505b602082108114156200052157620005206200055d565b5b50919050565b6200053282620005bb565b810181811067ffffffffffffffff821117156200055457620005536200058c565b5b80604052505050565b7f4e487b7100000000000000000000000000000000000000000000000000000000600052602260045260246000fd5b7f4e487b7100000000000000000000000000000000000000000000000000000000600052604160045260246000fd5b6000601f19601f8301169050919050565b620005d78162000487565b8114620005e357600080fd5b50565b614b3e80620005f66000396000f3fe608060405234801561001057600080fd5b506004361061018e5760003560e01c80634f6ccce7116100de578063bdc32be011610097578063e6bcd74511610071578063e6bcd745146104a7578063e985e9c5146104c3578063f2fde38b146104f3578063f76b44311461050f5761018e565b8063bdc32be01461043d578063c38bb5371461045b578063c87b56dd146104775761018e565b80634f6ccce7146103575780636352211e1461038757806370a08231146103b7578063893d20e8146103e7578063a22cb46514610405578063b88d4fde146104215761018e565b80631d9023cb1161014b5780632f745c59116101255780632f745c59146102bf57806338bbfa50146102ef57806340c10f191461030b57806342842e0e1461033b5761018e565b80631d9023cb1461026957806323b872dd1461028757806327dc297e146102a35761018e565b806301ffc9a714610193578063081812fc146101c3578063095ea7b3146101f3578063150704011461020f57806317d7de7c1461022d57806318160ddd1461024b575b600080fd5b6101ad60048036038101906101a8919061381c565b61052b565b6040516101ba9190613e50565b60405180910390f35b6101dd60048036038101906101d8919061386e565b610593565b6040516101ea9190613d79565b60405180910390f35b61020d6004803603810190610208919061361a565b6105d0565b005b6102176107c2565b6040516102249190613e6b565b60405180910390f35b610235610854565b6040516102429190613e6b565b60405180910390f35b6102536108e6565b604051610260919061410d565b60405180910390f35b6102716108f3565b60405161027e9190613e50565b60405180910390f35b6102a1600480360381019061029c9190613514565b610909565b005b6102bd60048036038101906102b89190613749565b6109b2565b005b6102d960048036038101906102d4919061361a565b610a34565b6040516102e6919061410d565b60405180910390f35b6103096004803603810190610304919061379d565b610ad4565b005b6103256004803603810190610320919061361a565b610af7565b6040516103329190613e50565b60405180910390f35b61035560048036038101906103509190613514565b610bf5565b005b610371600480360381019061036c919061386e565b610c65565b60405161037e919061410d565b60405180910390f35b6103a1600480360381019061039c919061386e565b610cc6565b6040516103ae9190613d79565b60405180910390f35b6103d160048036038101906103cc91906134af565b610d03565b6040516103de919061410d565b60405180910390f35b6103ef610d53565b6040516103fc9190613d79565b60405180910390f35b61041f600480360381019061041a91906135de565b610d7c565b005b61043b60048036038101906104369190613563565b610f02565b005b610445610f78565b6040516104529190613e6b565b60405180910390f35b610475600480360381019061047091906136f7565b61100a565b005b610491600480360381019061048c919061386e565b6111f5565b60405161049e9190613e6b565b60405180910390f35b6104c160048036038101906104bc9190613656565b6112ac565b005b6104dd60048036038101906104d891906134d8565b6114bf565b6040516104ea9190613e50565b60405180910390f35b61050d600480360381019061050891906134af565b611553565b005b61052960048036038101906105249190613692565b61165d565b005b600060016000837bffffffffffffffffffffffffffffffffffffffffffffffffffffffff19167bffffffffffffffffffffffffffffffffffffffffffffffffffffffff1916815260200190815260200160002060009054906101000a900460ff169050919050565b60006003600083815260200190815260200160002060009054906101000a900473ffffffffffffffffffffffffffffffffffffffff169050919050565b600060149054906101000a900460ff1615610620576040517f08c379a00000000000000000000000000000000000000000000000000000000081526004016106179061400d565b60405180910390fd5b60006002600083815260200190815260200160002060009054906101000a900473ffffffffffffffffffffffffffffffffffffffff1690508073ffffffffffffffffffffffffffffffffffffffff168373ffffffffffffffffffffffffffffffffffffffff1614156106c7576040517f08c379a00000000000000000000000000000000000000000000000000000000081526004016106be906140ed565b60405180910390fd5b8073ffffffffffffffffffffffffffffffffffffffff163373ffffffffffffffffffffffffffffffffffffffff161480610707575061070683336114bf565b5b61071057600080fd5b826003600084815260200190815260200160002060006101000a81548173ffffffffffffffffffffffffffffffffffffffff021916908373ffffffffffffffffffffffffffffffffffffffff160217905550818373ffffffffffffffffffffffffffffffffffffffff168273ffffffffffffffffffffffffffffffffffffffff167f8c5be1e5ebec7d5bd14f71427d1e84f3dd0314c0f7b2291e5b200ac8c7c3b92560405160405180910390a4505050565b6060601080546107d19061443c565b80601f01602080910402602001604051908101604052809291908181526020018280546107fd9061443c565b801561084a5780601f1061081f5761010080835404028352916020019161084a565b820191906000526020600020905b81548152906001019060200180831161082d57829003601f168201915b5050505050905090565b6060600f80546108639061443c565b80601f016020809104026020016040519081016040528092919081815260200182805461088f9061443c565b80156108dc5780601f106108b1576101008083540402835291602001916108dc565b820191906000526020600020905b8154815290600101906020018083116108bf57829003601f168201915b5050505050905090565b6000600880549050905090565b60008060149054906101000a900460ff16905090565b600060149054906101000a900460ff1615610959576040517f08c379a00000000000000000000000000000000000000000000000000000000081526004016109509061400d565b60405180910390fd5b6109633382611a14565b6109a2576040517f08c379a000000000000000000000000000000000000000000000000000000000815260040161099990613f2d565b60405180910390fd5b6109ad838383611aa9565b505050565b610a308282600067ffffffffffffffff8111156109f8577f4e487b7100000000000000000000000000000000000000000000000000000000600052604160045260246000fd5b6040519080825280601f01601f191660200182016040528015610a2a5781602001600182028036833780820191505090505b50610ad4565b5050565b6000610a3f83610d03565b8210610a4a57600080fd5b600660008473ffffffffffffffffffffffffffffffffffffffff1673ffffffffffffffffffffffffffffffffffffffff1681526020019081526020016000208281548110610ac1577f4e487b7100000000000000000000000000000000000000000000000000000000600052603260045260246000fd5b9060005260206000200154905092915050565b6000801b600d60008060001b815260200190815260200160002081905550505050565b60008060009054906101000a900473ffffffffffffffffffffffffffffffffffffffff1673ffffffffffffffffffffffffffffffffffffffff163373ffffffffffffffffffffffffffffffffffffffff1614610b88576040517f08c379a0000000000000000000000000000000000000000000000000000000008152600401610b7f90613fed565b60405180910390fd5b600060149054906101000a900460ff1615610bd8576040517f08c379a0000000000000000000000000000000000000000000000000000000008152600401610bcf9061400d565b60405180910390fd5b610be28383611b1d565b610beb82611bd7565b6001905092915050565b600060149054906101000a900460ff1615610c45576040517f08c379a0000000000000000000000000000000000000000000000000000000008152600401610c3c9061400d565b60405180910390fd5b610c6083838360405180602001604052806000815250610f02565b505050565b6000610c6f6108e6565b8210610c7a57600080fd5b60088281548110610cb4577f4e487b7100000000000000000000000000000000000000000000000000000000600052603260045260246000fd5b90600052602060002001549050919050565b60006002600083815260200190815260200160002060009054906101000a900473ffffffffffffffffffffffffffffffffffffffff169050919050565b6000610d4c600460008473ffffffffffffffffffffffffffffffffffffffff1673ffffffffffffffffffffffffffffffffffffffff168152602001908152602001600020611ceb565b9050919050565b60008060009054906101000a900473ffffffffffffffffffffffffffffffffffffffff16905090565b600060149054906101000a900460ff1615610dcc576040517f08c379a0000000000000000000000000000000000000000000000000000000008152600401610dc39061400d565b60405180910390fd5b3373ffffffffffffffffffffffffffffffffffffffff168273ffffffffffffffffffffffffffffffffffffffff161415610e0557600080fd5b80600560003373ffffffffffffffffffffffffffffffffffffffff1673ffffffffffffffffffffffffffffffffffffffff16815260200190815260200160002060008473ffffffffffffffffffffffffffffffffffffffff1673ffffffffffffffffffffffffffffffffffffffff16815260200190815260200160002060006101000a81548160ff0219169083151502179055508173ffffffffffffffffffffffffffffffffffffffff163373ffffffffffffffffffffffffffffffffffffffff167f17307eab39ab6107e8899845ad3d59bd9653f200f220920489ca2b5937696c3183604051610ef69190613e50565b60405180910390a35050565b600060149054906101000a900460ff1615610f52576040517f08c379a0000000000000000000000000000000000000000000000000000000008152600401610f499061400d565b60405180910390fd5b610f5d848484610909565b610f6984848484611cf9565b610f7257600080fd5b50505050565b606060118054610f879061443c565b80601f0160208091040260200160405190810160405280929190818152602001828054610fb39061443c565b80156110005780601f10610fd557610100808354040283529160200191611000565b820191906000526020600020905b815481529060010190602001808311610fe357829003601f168201915b5050505050905090565b60008054906101000a900473ffffffffffffffffffffffffffffffffffffffff1673ffffffffffffffffffffffffffffffffffffffff163373ffffffffffffffffffffffffffffffffffffffff1614611098576040517f08c379a000000000000000000000000000000000000000000000000000000000815260040161108f90613fed565b60405180910390fd5b6001151581151514806110af575060001515811515145b6110ee576040517f08c379a00000000000000000000000000000000000000000000000000000000081526004016110e59061404d565b60405180910390fd5b801515600060149054906101000a900460ff1615151415611144576040517f08c379a000000000000000000000000000000000000000000000000000000000815260040161113b90613e8d565b60405180910390fd5b80156111a05780600060146101000a81548160ff0219169083151502179055507f0e2fb031ee032dc02d8011dc50b816eb450cf856abd8261680dac74f72165bd2816040516111939190613e50565b60405180910390a16111f2565b80600060146101000a81548160ff0219169083151502179055507fbef695c228e00c57176296d6577586ca18da1cd098f552037934a1ffd0557c2c816040516111e99190613e50565b60405180910390a15b50565b606061120082611e10565b61120957600080fd5b6012600083815260200190815260200160002080546112279061443c565b80601f01602080910402602001604051908101604052809291908181526020018280546112539061443c565b80156112a05780601f10611275576101008083540402835291602001916112a0565b820191906000526020600020905b81548152906001019060200180831161128357829003601f168201915b50505050509050919050565b600060149054906101000a900460ff16156112fc576040517f08c379a00000000000000000000000000000000000000000000000000000000081526004016112f39061400d565b60405180910390fd5b600082600060028110611338577f4e487b7100000000000000000000000000000000000000000000000000000000600052603260045260246000fd5b602002013583600160028110611377577f4e487b7100000000000000000000000000000000000000000000000000000000600052603260045260246000fd5b602002013560405160200161138d929190613d4d565b60405160208183030381529060405280519060200120905060006113b2828433611e82565b9050806113f4576040517f08c379a00000000000000000000000000000000000000000000000000000000081526004016113eb9061408d565b60405180910390fd5b6000601560008481526020019081526020016000206000015490506114198482611b1d565b61142281611bd7565b600115156015600085815260200190815260200160002060010160149054906101000a905050507fa559673d1244980f99b73da51a667e2aea888c32fab5655ee99ed0b41399688b816015600086815260200190815260200160002060010160009054906101000a900473ffffffffffffffffffffffffffffffffffffffff166040516114b0929190614128565b60405180910390a15050505050565b6000600560008473ffffffffffffffffffffffffffffffffffffffff1673ffffffffffffffffffffffffffffffffffffffff16815260200190815260200160002060008373ffffffffffffffffffffffffffffffffffffffff1673ffffffffffffffffffffffffffffffffffffffff16815260200190815260200160002060009054906101000a900460ff16905092915050565b60008054906101000a900473ffffffffffffffffffffffffffffffffffffffff1673ffffffffffffffffffffffffffffffffffffffff163373ffffffffffffffffffffffffffffffffffffffff16146115e1576040517f08c379a00000000000000000000000000000000000000000000000000000000081526004016115d890613fed565b60405180910390fd5b806000806101000a81548173ffffffffffffffffffffffffffffffffffffffff021916908373ffffffffffffffffffffffffffffffffffffffff1602179055507feb38696426b5aa8881f6ba9f2f3e0ac06ee7ea6ffbe944120578d61191ef61018133604051611652929190613d94565b60405180910390a150565b600060149054906101000a900460ff16156116ad576040517f08c379a00000000000000000000000000000000000000000000000000000000081526004016116a49061400d565b60405180910390fd5b6000816000600281106116e9577f4e487b7100000000000000000000000000000000000000000000000000000000600052603260045260246000fd5b602002015182600160028110611728577f4e487b7100000000000000000000000000000000000000000000000000000000600052603260045260246000fd5b602002015160405160200161173e929190613d4d565b604051602081830303815290604052805190602001209050600073ffffffffffffffffffffffffffffffffffffffff166015600083815260200190815260200160002060010160009054906101000a900473ffffffffffffffffffffffffffffffffffffffff1673ffffffffffffffffffffffffffffffffffffffff16146117fb576040517f08c379a00000000000000000000000000000000000000000000000000000000081526004016117f29061406d565b60405180910390fd5b6000601360009054906101000a900473ffffffffffffffffffffffffffffffffffffffff1673ffffffffffffffffffffffffffffffffffffffff1663621e9ec0878787876040518563ffffffff1660e01b815260040161185e9493929190613e09565b602060405180830381600087803b15801561187857600080fd5b505af115801561188c573d6000803e3d6000fd5b505050506040513d601f19601f820116820180604052508101906118b09190613720565b9050806118f2576040517f08c379a00000000000000000000000000000000000000000000000000000000081526004016118e99061402d565b60405180910390fd5b6000604051806060016040528060145481526020013373ffffffffffffffffffffffffffffffffffffffff16815260200160001515815250905080601560008581526020019081526020016000206000820151816000015560208201518160010160006101000a81548173ffffffffffffffffffffffffffffffffffffffff021916908373ffffffffffffffffffffffffffffffffffffffff16021790555060408201518160010160146101000a81548160ff0219169083151502179055509050507f078793128cefb19aac38a33f9e5df39f67716907f6d747e8065545699e0b2b8d60145482602001516040516119eb929190614128565b60405180910390a160146000815480929190611a069061449f565b919050555050505050505050565b600080611a2083610cc6565b90508073ffffffffffffffffffffffffffffffffffffffff168473ffffffffffffffffffffffffffffffffffffffff161480611a8f57508373ffffffffffffffffffffffffffffffffffffffff16611a7784610593565b73ffffffffffffffffffffffffffffffffffffffff16145b80611aa05750611a9f81856114bf565b5b91505092915050565b600060149054906101000a900460ff1615611af9576040517f08c379a0000000000000000000000000000000000000000000000000000000008152600401611af09061400d565b60405180910390fd5b611b048383836120b2565b611b0e8382612331565b611b18828261255a565b505050565b600060149054906101000a900460ff1615611b6d576040517f08c379a0000000000000000000000000000000000000000000000000000000008152600401611b649061400d565b60405180910390fd5b611b7681611e10565b15611bb6576040517f08c379a0000000000000000000000000000000000000000000000000000000008152600401611bad90613f0d565b60405180910390fd5b611bc0828261261e565b611bca828261255a565b611bd381612826565b5050565b611be081611e10565b611c1f576040517f08c379a0000000000000000000000000000000000000000000000000000000008152600401611c1690613fad565b60405180910390fd5b6000611cbd60118054611c319061443c565b80601f0160208091040260200160405190810160405280929190818152602001828054611c5d9061443c565b8015611caa5780601f10611c7f57610100808354040283529160200191611caa565b820191906000526020600020905b815481529060010190602001808311611c8d57829003601f168201915b5050505050611cb88461286f565b612a73565b905080601260008481526020019081526020016000209080519060200190611ce6929190613177565b505050565b600081600001549050919050565b6000611d1a8473ffffffffffffffffffffffffffffffffffffffff16612ab7565b611d275760019050611e08565b60008473ffffffffffffffffffffffffffffffffffffffff1663150b7a02338887876040518563ffffffff1660e01b8152600401611d689493929190613dbd565b602060405180830381600087803b158015611d8257600080fd5b505af1158015611d96573d6000803e3d6000fd5b505050506040513d601f19601f82011682018060405250810190611dba9190613845565b905063150b7a0260e01b7bffffffffffffffffffffffffffffffffffffffffffffffffffffffff1916817bffffffffffffffffffffffffffffffffffffffffffffffffffffffff1916149150505b949350505050565b6000806002600084815260200190815260200160002060009054906101000a900473ffffffffffffffffffffffffffffffffffffffff169050600073ffffffffffffffffffffffffffffffffffffffff168173ffffffffffffffffffffffffffffffffffffffff161415915050919050565b60008073ffffffffffffffffffffffffffffffffffffffff168373ffffffffffffffffffffffffffffffffffffffff161415611ef3576040517f08c379a0000000000000000000000000000000000000000000000000000000008152600401611eea90613f6d565b60405180910390fd5b8173ffffffffffffffffffffffffffffffffffffffff166015600086815260200190815260200160002060010160009054906101000a900473ffffffffffffffffffffffffffffffffffffffff1673ffffffffffffffffffffffffffffffffffffffff1614611f97576040517f08c379a0000000000000000000000000000000000000000000000000000000008152600401611f8e90613ead565b60405180910390fd5b600073ffffffffffffffffffffffffffffffffffffffff166015600086815260200190815260200160002060010160009054906101000a900473ffffffffffffffffffffffffffffffffffffffff1673ffffffffffffffffffffffffffffffffffffffff16141561203d576040517f08c379a0000000000000000000000000000000000000000000000000000000008152600401612034906140cd565b60405180910390fd5b600015156015600086815260200190815260200160002060010160149054906101000a900460ff161515146120a7576040517f08c379a000000000000000000000000000000000000000000000000000000000815260040161209e90613fcd565b60405180910390fd5b600190509392505050565b600060149054906101000a900460ff1615612102576040517f08c379a00000000000000000000000000000000000000000000000000000000081526004016120f99061400d565b60405180910390fd5b61210b81610cc6565b73ffffffffffffffffffffffffffffffffffffffff168373ffffffffffffffffffffffffffffffffffffffff1614612178576040517f08c379a000000000000000000000000000000000000000000000000000000000815260040161216f90613f4d565b60405180910390fd5b600073ffffffffffffffffffffffffffffffffffffffff168273ffffffffffffffffffffffffffffffffffffffff1614156121e8576040517f08c379a00000000000000000000000000000000000000000000000000000000081526004016121df90613f8d565b60405180910390fd5b6121f181612ada565b612238600460008573ffffffffffffffffffffffffffffffffffffffff1673ffffffffffffffffffffffffffffffffffffffff168152602001908152602001600020612be8565b61227f600460008473ffffffffffffffffffffffffffffffffffffffff1673ffffffffffffffffffffffffffffffffffffffff168152602001908152602001600020612c44565b816002600083815260200190815260200160002060006101000a81548173ffffffffffffffffffffffffffffffffffffffff021916908373ffffffffffffffffffffffffffffffffffffffff160217905550808273ffffffffffffffffffffffffffffffffffffffff168473ffffffffffffffffffffffffffffffffffffffff167fddf252ad1be2c89b69c2b068fc378daa952ba7f163c4a11628f55a4df523b3ef60405160405180910390a4505050565b60006001600660008573ffffffffffffffffffffffffffffffffffffffff1673ffffffffffffffffffffffffffffffffffffffff168152602001908152602001600020805490506123829190614348565b90506000600760008481526020019081526020016000205490508181146124c9576000600660008673ffffffffffffffffffffffffffffffffffffffff1673ffffffffffffffffffffffffffffffffffffffff168152602001908152602001600020838154811061241c577f4e487b7100000000000000000000000000000000000000000000000000000000600052603260045260246000fd5b9060005260206000200154905080600660008773ffffffffffffffffffffffffffffffffffffffff1673ffffffffffffffffffffffffffffffffffffffff16815260200190815260200160002083815481106124a1577f4e487b7100000000000000000000000000000000000000000000000000000000600052603260045260246000fd5b9060005260206000200181905550816007600083815260200190815260200160002081905550505b600660008573ffffffffffffffffffffffffffffffffffffffff1673ffffffffffffffffffffffffffffffffffffffff16815260200190815260200160002080548061253e577f4e487b7100000000000000000000000000000000000000000000000000000000600052603160045260246000fd5b6001900381819060005260206000200160009055905550505050565b600660008373ffffffffffffffffffffffffffffffffffffffff1673ffffffffffffffffffffffffffffffffffffffff168152602001908152602001600020805490506007600083815260200190815260200160002081905550600660008373ffffffffffffffffffffffffffffffffffffffff1673ffffffffffffffffffffffffffffffffffffffff1681526020019081526020016000208190806001815401808255809150506001900390600052602060002001600090919091909150555050565b600060149054906101000a900460ff161561266e576040517f08c379a00000000000000000000000000000000000000000000000000000000081526004016126659061400d565b60405180910390fd5b6000151561267b82611e10565b1515146126bd576040517f08c379a00000000000000000000000000000000000000000000000000000000081526004016126b490613ecd565b60405180910390fd5b600073ffffffffffffffffffffffffffffffffffffffff168273ffffffffffffffffffffffffffffffffffffffff16141561272d576040517f08c379a0000000000000000000000000000000000000000000000000000000008152600401612724906140ad565b60405180910390fd5b816002600083815260200190815260200160002060006101000a81548173ffffffffffffffffffffffffffffffffffffffff021916908373ffffffffffffffffffffffffffffffffffffffff1602179055506127c6600460008473ffffffffffffffffffffffffffffffffffffffff1673ffffffffffffffffffffffffffffffffffffffff168152602001908152602001600020612c44565b808273ffffffffffffffffffffffffffffffffffffffff16600073ffffffffffffffffffffffffffffffffffffffff167fddf252ad1be2c89b69c2b068fc378daa952ba7f163c4a11628f55a4df523b3ef60405160405180910390a45050565b6008805490506009600083815260200190815260200160002081905550600881908060018154018082558091505060019003906000526020600020016000909190919091505550565b606060008214156128b7576040518060400160405280600181526020017f30000000000000000000000000000000000000000000000000000000000000008152509050612a6e565b600082905060005b600082146128e95780806128d29061449f565b915050600a826128e29190614317565b91506128bf565b60008167ffffffffffffffff81111561292b577f4e487b7100000000000000000000000000000000000000000000000000000000600052604160045260246000fd5b6040519080825280601f01601f19166020018201604052801561295d5781602001600182028036833780820191505090505b509050600060018361296f9190614348565b90505b60008614612a6657600a86816129b1577f4e487b7100000000000000000000000000000000000000000000000000000000600052601260045260246000fd5b0660300160f81b828280600190039350815181106129f8577f4e487b7100000000000000000000000000000000000000000000000000000000600052603260045260246000fd5b60200101907effffffffffffffffffffffffffffffffffffffffffffffffffffffffffffff1916908160001a905350600a8681612a5e577f4e487b7100000000000000000000000000000000000000000000000000000000600052601260045260246000fd5b049550612972565b819450505050505b919050565b6060612aaf8383604051806020016040528060008152506040518060200160405280600081525060405180602001604052806000815250612c5a565b905092915050565b6000808273ffffffffffffffffffffffffffffffffffffffff163b119050919050565b600060149054906101000a900460ff1615612b2a576040517f08c379a0000000000000000000000000000000000000000000000000000000008152600401612b219061400d565b60405180910390fd5b600073ffffffffffffffffffffffffffffffffffffffff166003600083815260200190815260200160002060009054906101000a900473ffffffffffffffffffffffffffffffffffffffff1673ffffffffffffffffffffffffffffffffffffffff1614612be55760006003600083815260200190815260200160002060006101000a81548173ffffffffffffffffffffffffffffffffffffffff021916908373ffffffffffffffffffffffffffffffffffffffff1602179055505b50565b60008160000154905060008111612c34576040517f08c379a0000000000000000000000000000000000000000000000000000000008152600401612c2b90613eed565b60405180910390fd5b6001810382600001819055505050565b6001816000016000828254019250508190555050565b606060008690506000869050600086905060008690506000869050600081518351855187518951612c8b91906142c1565b612c9591906142c1565b612c9f91906142c1565b612ca991906142c1565b67ffffffffffffffff811115612ce8577f4e487b7100000000000000000000000000000000000000000000000000000000600052604160045260246000fd5b6040519080825280601f01601f191660200182016040528015612d1a5781602001600182028036833780820191505090505b5090506000819050600080600090505b8851811015612dfe57888181518110612d6c577f4e487b7100000000000000000000000000000000000000000000000000000000600052603260045260246000fd5b602001015160f81c60f81b838380612d839061449f565b945081518110612dbc577f4e487b7100000000000000000000000000000000000000000000000000000000600052603260045260246000fd5b60200101907effffffffffffffffffffffffffffffffffffffffffffffffffffffffffffff1916908160001a9053508080612df69061449f565b915050612d2a565b600090505b8751811015612ed757878181518110612e45577f4e487b7100000000000000000000000000000000000000000000000000000000600052603260045260246000fd5b602001015160f81c60f81b838380612e5c9061449f565b945081518110612e95577f4e487b7100000000000000000000000000000000000000000000000000000000600052603260045260246000fd5b60200101907effffffffffffffffffffffffffffffffffffffffffffffffffffffffffffff1916908160001a9053508080612ecf9061449f565b915050612e03565b600090505b8651811015612fb057868181518110612f1e577f4e487b7100000000000000000000000000000000000000000000000000000000600052603260045260246000fd5b602001015160f81c60f81b838380612f359061449f565b945081518110612f6e577f4e487b7100000000000000000000000000000000000000000000000000000000600052603260045260246000fd5b60200101907effffffffffffffffffffffffffffffffffffffffffffffffffffffffffffff1916908160001a9053508080612fa89061449f565b915050612edc565b600090505b855181101561308957858181518110612ff7577f4e487b7100000000000000000000000000000000000000000000000000000000600052603260045260246000fd5b602001015160f81c60f81b83838061300e9061449f565b945081518110613047577f4e487b7100000000000000000000000000000000000000000000000000000000600052603260045260246000fd5b60200101907effffffffffffffffffffffffffffffffffffffffffffffffffffffffffffff1916908160001a90535080806130819061449f565b915050612fb5565b600090505b8451811015613162578481815181106130d0577f4e487b7100000000000000000000000000000000000000000000000000000000600052603260045260246000fd5b602001015160f81c60f81b8383806130e79061449f565b945081518110613120577f4e487b7100000000000000000000000000000000000000000000000000000000600052603260045260246000fd5b60200101907effffffffffffffffffffffffffffffffffffffffffffffffffffffffffffff1916908160001a905350808061315a9061449f565b91505061308e565b82995050505050505050505095945050505050565b8280546131839061443c565b90600052602060002090601f0160209004810192826131a557600085556131ec565b82601f106131be57805160ff19168380011785556131ec565b828001600101855582156131ec579182015b828111156131eb5782518255916020019190600101906131d0565b5b5090506131f991906131fd565b5090565b5b808211156132165760008160009055506001016131fe565b5090565b600061322d61322884614176565b614151565b9050808285604086028201111561324357600080fd5b60005b85811015613273578161325988826133b6565b845260208401935060408301925050600181019050613246565b5050509392505050565b600061329061328b8461419c565b614151565b905080828560208602820111156132a657600080fd5b60005b858110156132d657816132bc888261349a565b8452602084019350602083019250506001810190506132a9565b5050509392505050565b60006132f36132ee846141c2565b614151565b90508281526020810184848401111561330b57600080fd5b6133168482856143fa565b509392505050565b600061333161332c846141f3565b614151565b90508281526020810184848401111561334957600080fd5b6133548482856143fa565b509392505050565b60008135905061336b81614a95565b92915050565b600082601f83011261338257600080fd5b600261338f84828561321a565b91505092915050565b6000819050826020600202820111156133b057600080fd5b92915050565b600082601f8301126133c757600080fd5b60026133d484828561327d565b91505092915050565b6000813590506133ec81614aac565b92915050565b60008151905061340181614aac565b92915050565b60008135905061341681614ac3565b92915050565b60008135905061342b81614ada565b92915050565b60008151905061344081614ada565b92915050565b600082601f83011261345757600080fd5b81356134678482602086016132e0565b91505092915050565b600082601f83011261348157600080fd5b813561349184826020860161331e565b91505092915050565b6000813590506134a981614af1565b92915050565b6000602082840312156134c157600080fd5b60006134cf8482850161335c565b91505092915050565b600080604083850312156134eb57600080fd5b60006134f98582860161335c565b925050602061350a8582860161335c565b9150509250929050565b60008060006060848603121561352957600080fd5b60006135378682870161335c565b93505060206135488682870161335c565b92505060406135598682870161349a565b9150509250925092565b6000806000806080858703121561357957600080fd5b60006135878782880161335c565b94505060206135988782880161335c565b93505060406135a98782880161349a565b925050606085013567ffffffffffffffff8111156135c657600080fd5b6135d287828801613446565b91505092959194509250565b600080604083850312156135f157600080fd5b60006135ff8582860161335c565b9250506020613610858286016133dd565b9150509250929050565b6000806040838503121561362d57600080fd5b600061363b8582860161335c565b925050602061364c8582860161349a565b9150509250929050565b6000806060838503121561366957600080fd5b600061367785828601613398565b92505060406136888582860161335c565b9150509250929050565b60008060008061014085870312156136a957600080fd5b60006136b7878288016133b6565b94505060406136c887828801613371565b93505060c06136d9878288016133b6565b9250506101006136eb878288016133b6565b91505092959194509250565b60006020828403121561370957600080fd5b6000613717848285016133dd565b91505092915050565b60006020828403121561373257600080fd5b6000613740848285016133f2565b91505092915050565b6000806040838503121561375c57600080fd5b600061376a85828601613407565b925050602083013567ffffffffffffffff81111561378757600080fd5b61379385828601613470565b9150509250929050565b6000806000606084860312156137b257600080fd5b60006137c086828701613407565b935050602084013567ffffffffffffffff8111156137dd57600080fd5b6137e986828701613470565b925050604084013567ffffffffffffffff81111561380657600080fd5b61381286828701613446565b9150509250925092565b60006020828403121561382e57600080fd5b600061383c8482850161341c565b91505092915050565b60006020828403121561385757600080fd5b600061386584828501613431565b91505092915050565b60006020828403121561388057600080fd5b600061388e8482850161349a565b91505092915050565b60006138a3838361392d565b60408301905092915050565b60006138bb8383613d18565b60208301905092915050565b6138d08161437c565b82525050565b6138df81614238565b6138e9818461427e565b92506138f482614224565b8060005b8381101561392557815161390c8782613897565b965061391783614264565b9250506001810190506138f8565b505050505050565b61393681614243565b6139408184614289565b925061394b8261422e565b8060005b8381101561397c57815161396387826138af565b965061396e83614271565b92505060018101905061394f565b505050505050565b61398d81614243565b6139978184614294565b92506139a28261422e565b8060005b838110156139d35781516139ba87826138af565b96506139c583614271565b9250506001810190506139a6565b505050505050565b6139e48161438e565b82525050565b60006139f58261424e565b6139ff818561429f565b9350613a0f818560208601614409565b613a18816145ae565b840191505092915050565b6000613a2e82614259565b613a3881856142b0565b9350613a48818560208601614409565b613a51816145ae565b840191505092915050565b6000613a696025836142b0565b9150613a74826145bf565b604082019050919050565b6000613a8c602f836142b0565b9150613a978261460e565b604082019050919050565b6000613aaf6019836142b0565b9150613aba8261465d565b602082019050919050565b6000613ad2601b836142b0565b9150613add82614686565b602082019050919050565b6000613af56016836142b0565b9150613b00826146af565b602082019050919050565b6000613b18603c836142b0565b9150613b23826146d8565b604082019050919050565b6000613b3b6022836142b0565b9150613b4682614727565b604082019050919050565b6000613b5e6022836142b0565b9150613b6982614776565b604082019050919050565b6000613b81601a836142b0565b9150613b8c826147c5565b602082019050919050565b6000613ba46014836142b0565b9150613baf826147ee565b602082019050919050565b6000613bc76030836142b0565b9150613bd282614817565b604082019050919050565b6000613bea603c836142b0565b9150613bf582614866565b604082019050919050565b6000613c0d603f836142b0565b9150613c18826148b5565b604082019050919050565b6000613c306036836142b0565b9150613c3b82614904565b604082019050919050565b6000613c53601e836142b0565b9150613c5e82614953565b602082019050919050565b6000613c76601c836142b0565b9150613c818261497c565b602082019050919050565b6000613c99601b836142b0565b9150613ca4826149a5565b602082019050919050565b6000613cbc601a836142b0565b9150613cc7826149ce565b602082019050919050565b6000613cdf6026836142b0565b9150613cea826149f7565b604082019050919050565b6000613d026038836142b0565b9150613d0d82614a46565b604082019050919050565b613d21816143f0565b82525050565b613d30816143f0565b82525050565b613d47613d42826143f0565b6144e8565b82525050565b6000613d598285613d36565b602082019150613d698284613d36565b6020820191508190509392505050565b6000602082019050613d8e60008301846138c7565b92915050565b6000604082019050613da960008301856138c7565b613db660208301846138c7565b9392505050565b6000608082019050613dd260008301876138c7565b613ddf60208301866138c7565b613dec6040830185613d27565b8181036060830152613dfe81846139ea565b905095945050505050565b600061014082019050613e1f6000830187613984565b613e2c60408301866138d6565b613e3960c0830185613984565b613e47610100830184613984565b95945050505050565b6000602082019050613e6560008301846139db565b92915050565b60006020820190508181036000830152613e858184613a23565b905092915050565b60006020820190508181036000830152613ea681613a5c565b9050919050565b60006020820190508181036000830152613ec681613a7f565b9050919050565b60006020820190508181036000830152613ee681613aa2565b9050919050565b60006020820190508181036000830152613f0681613ac5565b9050919050565b60006020820190508181036000830152613f2681613ae8565b9050919050565b60006020820190508181036000830152613f4681613b0b565b9050919050565b60006020820190508181036000830152613f6681613b2e565b9050919050565b60006020820190508181036000830152613f8681613b51565b9050919050565b60006020820190508181036000830152613fa681613b74565b9050919050565b60006020820190508181036000830152613fc681613b97565b9050919050565b60006020820190508181036000830152613fe681613bba565b9050919050565b6000602082019050818103600083015261400681613bdd565b9050919050565b6000602082019050818103600083015261402681613c00565b9050919050565b6000602082019050818103600083015261404681613c23565b9050919050565b6000602082019050818103600083015261406681613c46565b9050919050565b6000602082019050818103600083015261408681613c69565b9050919050565b600060208201905081810360008301526140a681613c8c565b9050919050565b600060208201905081810360008301526140c681613caf565b9050919050565b600060208201905081810360008301526140e681613cd2565b9050919050565b6000602082019050818103600083015261410681613cf5565b9050919050565b60006020820190506141226000830184613d27565b92915050565b600060408201905061413d6000830185613d27565b61414a60208301846138c7565b9392505050565b600061415b61416c565b9050614167828261446e565b919050565b6000604051905090565b600067ffffffffffffffff8211156141915761419061457f565b5b602082029050919050565b600067ffffffffffffffff8211156141b7576141b661457f565b5b602082029050919050565b600067ffffffffffffffff8211156141dd576141dc61457f565b5b6141e6826145ae565b9050602081019050919050565b600067ffffffffffffffff82111561420e5761420d61457f565b5b614217826145ae565b9050602081019050919050565b6000819050919050565b6000819050919050565b600060029050919050565b600060029050919050565b600081519050919050565b600081519050919050565b6000602082019050919050565b6000602082019050919050565b600081905092915050565b600081905092915050565b600081905092915050565b600082825260208201905092915050565b600082825260208201905092915050565b60006142cc826143f0565b91506142d7836143f0565b9250827fffffffffffffffffffffffffffffffffffffffffffffffffffffffffffffffff0382111561430c5761430b6144f2565b5b828201905092915050565b6000614322826143f0565b915061432d836143f0565b92508261433d5761433c614521565b5b828204905092915050565b6000614353826143f0565b915061435e836143f0565b925082821015614371576143706144f2565b5b828203905092915050565b6000614387826143d0565b9050919050565b60008115159050919050565b6000819050919050565b60007fffffffff0000000000000000000000000000000000000000000000000000000082169050919050565b600073ffffffffffffffffffffffffffffffffffffffff82169050919050565b6000819050919050565b82818337600083830152505050565b60005b8381101561442757808201518184015260208101905061440c565b83811115614436576000848401525b50505050565b6000600282049050600182168061445457607f821691505b6020821081141561446857614467614550565b5b50919050565b614477826145ae565b810181811067ffffffffffffffff821117156144965761449561457f565b5b80604052505050565b60006144aa826143f0565b91507fffffffffffffffffffffffffffffffffffffffffffffffffffffffffffffffff8214156144dd576144dc6144f2565b5b600182019050919050565b6000819050919050565b7f4e487b7100000000000000000000000000000000000000000000000000000000600052601160045260246000fd5b7f4e487b7100000000000000000000000000000000000000000000000000000000600052601260045260246000fd5b7f4e487b7100000000000000000000000000000000000000000000000000000000600052602260045260246000fd5b7f4e487b7100000000000000000000000000000000000000000000000000000000600052604160045260246000fd5b6000601f19601f8301169050919050565b7f596f75206d75737420696e697469616c697365206120646966666572656e742060008201527f76616c7565000000000000000000000000000000000000000000000000000000602082015250565b7f4f6e6c792074686520736f6c7574696f6e20616464726573732063616e20696e60008201527f697469616c6973652061206d696e740000000000000000000000000000000000602082015250565b7f5468697320746f6b656e20616c72656164792065786973747300000000000000600082015250565b7f436f756e7465723a2064656372656d656e74206f766572666c6f770000000000600082015250565b7f546f6b656e494420616c72656164792065786973747300000000000000000000600082015250565b7f596f75206d75737420626520746865206f776e6572206f7220617070726f766560008201527f6420627920746865206f776e6572206f66207468697320746f6b656e00000000602082015250565b7f596f75206d75737420626520746865206f776e6572206f662074686520746f6b60008201527f656e000000000000000000000000000000000000000000000000000000000000602082015250565b7f706172616d2027746f27204d75737420626520612076616c696420616464726560008201527f7373000000000000000000000000000000000000000000000000000000000000602082015250565b7f4d75737420626520612076616c696420746f2061646472657373000000000000600082015250565b7f546f6b656e20646f6573206e6f74206578697374000000000000000000000000600082015250565b7f546f6b656e2068617320616c7265616479206265656e206d696e74656420776960008201527f7468207468697320736f6c7574696f6e00000000000000000000000000000000602082015250565b7f596f75206d75737420626520746865206f776e6572206f662074686520636f6e60008201527f747261637420746f20656e74657220746869732066756e6374696f6e00000000602082015250565b7f54686520636f6e74726163742069732063757272656e746c792070617573656460008201527f2c20746869732066756e6374696f6e206973206e6f742063616c6c61626c6500602082015250565b7f5472616e73616374696f6e20636f756c64206e6f74206265207665726966696560008201527f64207769746820676976656e20617267756d656e747300000000000000000000602082015250565b7f796f75206d75737420696e707574206120626f6f6c65616e2076616c75650000600082015250565b7f5468697320736f6c7574696f6e20616c72656164792065786973747300000000600082015250565b7f5468697320736f6c7574696f6e206973206e6f7420756e697175650000000000600082015250565b7f4d75737420656e74657220612076616c69642061646472657373000000000000600082015250565b7f706172616d20276d696e74657227206d75737420626520612076616c6964206160008201527f6464726573730000000000000000000000000000000000000000000000000000602082015250565b7f596f75206d757374206e6f7420626520746865206f776e6572206f662074686560008201527f20746f6b656e20796f752061726520617070726f76696e670000000000000000602082015250565b614a9e8161437c565b8114614aa957600080fd5b50565b614ab58161438e565b8114614ac057600080fd5b50565b614acc8161439a565b8114614ad757600080fd5b50565b614ae3816143a4565b8114614aee57600080fd5b50565b614afa816143f0565b8114614b0557600080fd5b5056fea26469706673582212200cb216371dd256c60c1f8ee0508d6a8d09cbb3a606a07ed11c01627b4b7bf31764736f6c63430008040033",
  "linkReferences": {},
  "deployedLinkReferences": {}
}